
pwm tim2.elf:     file format elf32-littlearm

Sections:
Idx Name          Size      VMA       LMA       File off  Algn
  0 .isr_vector   00000194  08000000  08000000  00010000  2**0
                  CONTENTS, ALLOC, LOAD, READONLY, DATA
  1 .text         00001520  08000194  08000194  00010194  2**2
                  CONTENTS, ALLOC, LOAD, READONLY, CODE
  2 .rodata       00000010  080016b4  080016b4  000116b4  2**0
                  CONTENTS, ALLOC, LOAD, READONLY, DATA
  3 .ARM          00000008  080016c4  080016c4  000116c4  2**2
                  CONTENTS, ALLOC, LOAD, READONLY, DATA
  4 .init_array   00000004  080016cc  080016cc  000116cc  2**2
                  CONTENTS, ALLOC, LOAD, DATA
  5 .fini_array   00000004  080016d0  080016d0  000116d0  2**2
                  CONTENTS, ALLOC, LOAD, DATA
  6 .data         0000000c  20000000  080016d4  00020000  2**2
                  CONTENTS, ALLOC, LOAD, DATA
  7 .bss          0000005c  2000000c  080016e0  0002000c  2**2
                  ALLOC
  8 ._user_heap_stack 00000600  20000068  080016e0  00020068  2**0
                  ALLOC
  9 .ARM.attributes 00000030  00000000  00000000  0002000c  2**0
                  CONTENTS, READONLY
 10 .debug_info   0000e77b  00000000  00000000  0002003c  2**0
                  CONTENTS, READONLY, DEBUGGING
 11 .debug_abbrev 00001c1c  00000000  00000000  0002e7b7  2**0
                  CONTENTS, READONLY, DEBUGGING
 12 .debug_loc    00004704  00000000  00000000  000303d3  2**0
                  CONTENTS, READONLY, DEBUGGING
 13 .debug_aranges 00000688  00000000  00000000  00034ad8  2**3
                  CONTENTS, READONLY, DEBUGGING
 14 .debug_ranges 000008a0  00000000  00000000  00035160  2**3
                  CONTENTS, READONLY, DEBUGGING
 15 .debug_line   0000378f  00000000  00000000  00035a00  2**0
                  CONTENTS, READONLY, DEBUGGING
 16 .debug_str    00002dce  00000000  00000000  0003918f  2**0
                  CONTENTS, READONLY, DEBUGGING
 17 .comment      0000007c  00000000  00000000  0003bf5d  2**0
                  CONTENTS, READONLY
 18 .debug_frame  000012ac  00000000  00000000  0003bfdc  2**2
                  CONTENTS, READONLY, DEBUGGING

Disassembly of section .text:

08000194 <__do_global_dtors_aux>:
 8000194:	b510      	push	{r4, lr}
 8000196:	4c05      	ldr	r4, [pc, #20]	; (80001ac <__do_global_dtors_aux+0x18>)
 8000198:	7823      	ldrb	r3, [r4, #0]
 800019a:	b933      	cbnz	r3, 80001aa <__do_global_dtors_aux+0x16>
 800019c:	4b04      	ldr	r3, [pc, #16]	; (80001b0 <__do_global_dtors_aux+0x1c>)
 800019e:	b113      	cbz	r3, 80001a6 <__do_global_dtors_aux+0x12>
 80001a0:	4804      	ldr	r0, [pc, #16]	; (80001b4 <__do_global_dtors_aux+0x20>)
 80001a2:	f3af 8000 	nop.w
 80001a6:	2301      	movs	r3, #1
 80001a8:	7023      	strb	r3, [r4, #0]
 80001aa:	bd10      	pop	{r4, pc}
 80001ac:	2000000c 	.word	0x2000000c
 80001b0:	00000000 	.word	0x00000000
 80001b4:	0800169c 	.word	0x0800169c

080001b8 <frame_dummy>:
 80001b8:	b508      	push	{r3, lr}
 80001ba:	4b03      	ldr	r3, [pc, #12]	; (80001c8 <frame_dummy+0x10>)
 80001bc:	b11b      	cbz	r3, 80001c6 <frame_dummy+0xe>
 80001be:	4903      	ldr	r1, [pc, #12]	; (80001cc <frame_dummy+0x14>)
 80001c0:	4803      	ldr	r0, [pc, #12]	; (80001d0 <frame_dummy+0x18>)
 80001c2:	f3af 8000 	nop.w
 80001c6:	bd08      	pop	{r3, pc}
 80001c8:	00000000 	.word	0x00000000
 80001cc:	20000010 	.word	0x20000010
 80001d0:	0800169c 	.word	0x0800169c

080001d4 <__aeabi_uldivmod>:
 80001d4:	b953      	cbnz	r3, 80001ec <__aeabi_uldivmod+0x18>
 80001d6:	b94a      	cbnz	r2, 80001ec <__aeabi_uldivmod+0x18>
 80001d8:	2900      	cmp	r1, #0
 80001da:	bf08      	it	eq
 80001dc:	2800      	cmpeq	r0, #0
 80001de:	bf1c      	itt	ne
 80001e0:	f04f 31ff 	movne.w	r1, #4294967295
 80001e4:	f04f 30ff 	movne.w	r0, #4294967295
 80001e8:	f000 b97a 	b.w	80004e0 <__aeabi_idiv0>
 80001ec:	f1ad 0c08 	sub.w	ip, sp, #8
 80001f0:	e96d ce04 	strd	ip, lr, [sp, #-16]!
 80001f4:	f000 f806 	bl	8000204 <__udivmoddi4>
 80001f8:	f8dd e004 	ldr.w	lr, [sp, #4]
 80001fc:	e9dd 2302 	ldrd	r2, r3, [sp, #8]
 8000200:	b004      	add	sp, #16
 8000202:	4770      	bx	lr

08000204 <__udivmoddi4>:
 8000204:	e92d 47f0 	stmdb	sp!, {r4, r5, r6, r7, r8, r9, sl, lr}
 8000208:	468c      	mov	ip, r1
 800020a:	460d      	mov	r5, r1
 800020c:	4604      	mov	r4, r0
 800020e:	9e08      	ldr	r6, [sp, #32]
 8000210:	2b00      	cmp	r3, #0
 8000212:	d151      	bne.n	80002b8 <__udivmoddi4+0xb4>
 8000214:	428a      	cmp	r2, r1
 8000216:	4617      	mov	r7, r2
 8000218:	d96d      	bls.n	80002f6 <__udivmoddi4+0xf2>
 800021a:	fab2 fe82 	clz	lr, r2
 800021e:	f1be 0f00 	cmp.w	lr, #0
 8000222:	d00b      	beq.n	800023c <__udivmoddi4+0x38>
 8000224:	f1ce 0c20 	rsb	ip, lr, #32
 8000228:	fa01 f50e 	lsl.w	r5, r1, lr
 800022c:	fa20 fc0c 	lsr.w	ip, r0, ip
 8000230:	fa02 f70e 	lsl.w	r7, r2, lr
 8000234:	ea4c 0c05 	orr.w	ip, ip, r5
 8000238:	fa00 f40e 	lsl.w	r4, r0, lr
 800023c:	ea4f 4a17 	mov.w	sl, r7, lsr #16
 8000240:	0c25      	lsrs	r5, r4, #16
 8000242:	fbbc f8fa 	udiv	r8, ip, sl
 8000246:	fa1f f987 	uxth.w	r9, r7
 800024a:	fb0a cc18 	mls	ip, sl, r8, ip
 800024e:	ea45 450c 	orr.w	r5, r5, ip, lsl #16
 8000252:	fb08 f309 	mul.w	r3, r8, r9
 8000256:	42ab      	cmp	r3, r5
 8000258:	d90a      	bls.n	8000270 <__udivmoddi4+0x6c>
 800025a:	19ed      	adds	r5, r5, r7
 800025c:	f108 32ff 	add.w	r2, r8, #4294967295
 8000260:	f080 8123 	bcs.w	80004aa <__udivmoddi4+0x2a6>
 8000264:	42ab      	cmp	r3, r5
 8000266:	f240 8120 	bls.w	80004aa <__udivmoddi4+0x2a6>
 800026a:	f1a8 0802 	sub.w	r8, r8, #2
 800026e:	443d      	add	r5, r7
 8000270:	1aed      	subs	r5, r5, r3
 8000272:	b2a4      	uxth	r4, r4
 8000274:	fbb5 f0fa 	udiv	r0, r5, sl
 8000278:	fb0a 5510 	mls	r5, sl, r0, r5
 800027c:	ea44 4405 	orr.w	r4, r4, r5, lsl #16
 8000280:	fb00 f909 	mul.w	r9, r0, r9
 8000284:	45a1      	cmp	r9, r4
 8000286:	d909      	bls.n	800029c <__udivmoddi4+0x98>
 8000288:	19e4      	adds	r4, r4, r7
 800028a:	f100 33ff 	add.w	r3, r0, #4294967295
 800028e:	f080 810a 	bcs.w	80004a6 <__udivmoddi4+0x2a2>
 8000292:	45a1      	cmp	r9, r4
 8000294:	f240 8107 	bls.w	80004a6 <__udivmoddi4+0x2a2>
 8000298:	3802      	subs	r0, #2
 800029a:	443c      	add	r4, r7
 800029c:	eba4 0409 	sub.w	r4, r4, r9
 80002a0:	ea40 4008 	orr.w	r0, r0, r8, lsl #16
 80002a4:	2100      	movs	r1, #0
 80002a6:	2e00      	cmp	r6, #0
 80002a8:	d061      	beq.n	800036e <__udivmoddi4+0x16a>
 80002aa:	fa24 f40e 	lsr.w	r4, r4, lr
 80002ae:	2300      	movs	r3, #0
 80002b0:	6034      	str	r4, [r6, #0]
 80002b2:	6073      	str	r3, [r6, #4]
 80002b4:	e8bd 87f0 	ldmia.w	sp!, {r4, r5, r6, r7, r8, r9, sl, pc}
 80002b8:	428b      	cmp	r3, r1
 80002ba:	d907      	bls.n	80002cc <__udivmoddi4+0xc8>
 80002bc:	2e00      	cmp	r6, #0
 80002be:	d054      	beq.n	800036a <__udivmoddi4+0x166>
 80002c0:	2100      	movs	r1, #0
 80002c2:	e886 0021 	stmia.w	r6, {r0, r5}
 80002c6:	4608      	mov	r0, r1
 80002c8:	e8bd 87f0 	ldmia.w	sp!, {r4, r5, r6, r7, r8, r9, sl, pc}
 80002cc:	fab3 f183 	clz	r1, r3
 80002d0:	2900      	cmp	r1, #0
 80002d2:	f040 808e 	bne.w	80003f2 <__udivmoddi4+0x1ee>
 80002d6:	42ab      	cmp	r3, r5
 80002d8:	d302      	bcc.n	80002e0 <__udivmoddi4+0xdc>
 80002da:	4282      	cmp	r2, r0
 80002dc:	f200 80fa 	bhi.w	80004d4 <__udivmoddi4+0x2d0>
 80002e0:	1a84      	subs	r4, r0, r2
 80002e2:	eb65 0503 	sbc.w	r5, r5, r3
 80002e6:	2001      	movs	r0, #1
 80002e8:	46ac      	mov	ip, r5
 80002ea:	2e00      	cmp	r6, #0
 80002ec:	d03f      	beq.n	800036e <__udivmoddi4+0x16a>
 80002ee:	e886 1010 	stmia.w	r6, {r4, ip}
 80002f2:	e8bd 87f0 	ldmia.w	sp!, {r4, r5, r6, r7, r8, r9, sl, pc}
 80002f6:	b912      	cbnz	r2, 80002fe <__udivmoddi4+0xfa>
 80002f8:	2701      	movs	r7, #1
 80002fa:	fbb7 f7f2 	udiv	r7, r7, r2
 80002fe:	fab7 fe87 	clz	lr, r7
 8000302:	f1be 0f00 	cmp.w	lr, #0
 8000306:	d134      	bne.n	8000372 <__udivmoddi4+0x16e>
 8000308:	1beb      	subs	r3, r5, r7
 800030a:	0c3a      	lsrs	r2, r7, #16
 800030c:	fa1f fc87 	uxth.w	ip, r7
 8000310:	2101      	movs	r1, #1
 8000312:	fbb3 f8f2 	udiv	r8, r3, r2
 8000316:	0c25      	lsrs	r5, r4, #16
 8000318:	fb02 3318 	mls	r3, r2, r8, r3
 800031c:	ea45 4503 	orr.w	r5, r5, r3, lsl #16
 8000320:	fb0c f308 	mul.w	r3, ip, r8
 8000324:	42ab      	cmp	r3, r5
 8000326:	d907      	bls.n	8000338 <__udivmoddi4+0x134>
 8000328:	19ed      	adds	r5, r5, r7
 800032a:	f108 30ff 	add.w	r0, r8, #4294967295
 800032e:	d202      	bcs.n	8000336 <__udivmoddi4+0x132>
 8000330:	42ab      	cmp	r3, r5
 8000332:	f200 80d1 	bhi.w	80004d8 <__udivmoddi4+0x2d4>
 8000336:	4680      	mov	r8, r0
 8000338:	1aed      	subs	r5, r5, r3
 800033a:	b2a3      	uxth	r3, r4
 800033c:	fbb5 f0f2 	udiv	r0, r5, r2
 8000340:	fb02 5510 	mls	r5, r2, r0, r5
 8000344:	ea43 4405 	orr.w	r4, r3, r5, lsl #16
 8000348:	fb0c fc00 	mul.w	ip, ip, r0
 800034c:	45a4      	cmp	ip, r4
 800034e:	d907      	bls.n	8000360 <__udivmoddi4+0x15c>
 8000350:	19e4      	adds	r4, r4, r7
 8000352:	f100 33ff 	add.w	r3, r0, #4294967295
 8000356:	d202      	bcs.n	800035e <__udivmoddi4+0x15a>
 8000358:	45a4      	cmp	ip, r4
 800035a:	f200 80b8 	bhi.w	80004ce <__udivmoddi4+0x2ca>
 800035e:	4618      	mov	r0, r3
 8000360:	eba4 040c 	sub.w	r4, r4, ip
 8000364:	ea40 4008 	orr.w	r0, r0, r8, lsl #16
 8000368:	e79d      	b.n	80002a6 <__udivmoddi4+0xa2>
 800036a:	4631      	mov	r1, r6
 800036c:	4630      	mov	r0, r6
 800036e:	e8bd 87f0 	ldmia.w	sp!, {r4, r5, r6, r7, r8, r9, sl, pc}
 8000372:	f1ce 0420 	rsb	r4, lr, #32
 8000376:	fa05 f30e 	lsl.w	r3, r5, lr
 800037a:	fa07 f70e 	lsl.w	r7, r7, lr
 800037e:	fa20 f804 	lsr.w	r8, r0, r4
 8000382:	0c3a      	lsrs	r2, r7, #16
 8000384:	fa25 f404 	lsr.w	r4, r5, r4
 8000388:	ea48 0803 	orr.w	r8, r8, r3
 800038c:	fbb4 f1f2 	udiv	r1, r4, r2
 8000390:	ea4f 4518 	mov.w	r5, r8, lsr #16
 8000394:	fb02 4411 	mls	r4, r2, r1, r4
 8000398:	fa1f fc87 	uxth.w	ip, r7
 800039c:	ea45 4504 	orr.w	r5, r5, r4, lsl #16
 80003a0:	fb01 f30c 	mul.w	r3, r1, ip
 80003a4:	42ab      	cmp	r3, r5
 80003a6:	fa00 f40e 	lsl.w	r4, r0, lr
 80003aa:	d909      	bls.n	80003c0 <__udivmoddi4+0x1bc>
 80003ac:	19ed      	adds	r5, r5, r7
 80003ae:	f101 30ff 	add.w	r0, r1, #4294967295
 80003b2:	f080 808a 	bcs.w	80004ca <__udivmoddi4+0x2c6>
 80003b6:	42ab      	cmp	r3, r5
 80003b8:	f240 8087 	bls.w	80004ca <__udivmoddi4+0x2c6>
 80003bc:	3902      	subs	r1, #2
 80003be:	443d      	add	r5, r7
 80003c0:	1aeb      	subs	r3, r5, r3
 80003c2:	fa1f f588 	uxth.w	r5, r8
 80003c6:	fbb3 f0f2 	udiv	r0, r3, r2
 80003ca:	fb02 3310 	mls	r3, r2, r0, r3
 80003ce:	ea45 4503 	orr.w	r5, r5, r3, lsl #16
 80003d2:	fb00 f30c 	mul.w	r3, r0, ip
 80003d6:	42ab      	cmp	r3, r5
 80003d8:	d907      	bls.n	80003ea <__udivmoddi4+0x1e6>
 80003da:	19ed      	adds	r5, r5, r7
 80003dc:	f100 38ff 	add.w	r8, r0, #4294967295
 80003e0:	d26f      	bcs.n	80004c2 <__udivmoddi4+0x2be>
 80003e2:	42ab      	cmp	r3, r5
 80003e4:	d96d      	bls.n	80004c2 <__udivmoddi4+0x2be>
 80003e6:	3802      	subs	r0, #2
 80003e8:	443d      	add	r5, r7
 80003ea:	1aeb      	subs	r3, r5, r3
 80003ec:	ea40 4101 	orr.w	r1, r0, r1, lsl #16
 80003f0:	e78f      	b.n	8000312 <__udivmoddi4+0x10e>
 80003f2:	f1c1 0720 	rsb	r7, r1, #32
 80003f6:	fa22 f807 	lsr.w	r8, r2, r7
 80003fa:	408b      	lsls	r3, r1
 80003fc:	fa05 f401 	lsl.w	r4, r5, r1
 8000400:	ea48 0303 	orr.w	r3, r8, r3
 8000404:	fa20 fe07 	lsr.w	lr, r0, r7
 8000408:	ea4f 4c13 	mov.w	ip, r3, lsr #16
 800040c:	40fd      	lsrs	r5, r7
 800040e:	ea4e 0e04 	orr.w	lr, lr, r4
 8000412:	fbb5 f9fc 	udiv	r9, r5, ip
 8000416:	ea4f 441e 	mov.w	r4, lr, lsr #16
 800041a:	fb0c 5519 	mls	r5, ip, r9, r5
 800041e:	fa1f f883 	uxth.w	r8, r3
 8000422:	ea44 4505 	orr.w	r5, r4, r5, lsl #16
 8000426:	fb09 f408 	mul.w	r4, r9, r8
 800042a:	42ac      	cmp	r4, r5
 800042c:	fa02 f201 	lsl.w	r2, r2, r1
 8000430:	fa00 fa01 	lsl.w	sl, r0, r1
 8000434:	d908      	bls.n	8000448 <__udivmoddi4+0x244>
 8000436:	18ed      	adds	r5, r5, r3
 8000438:	f109 30ff 	add.w	r0, r9, #4294967295
 800043c:	d243      	bcs.n	80004c6 <__udivmoddi4+0x2c2>
 800043e:	42ac      	cmp	r4, r5
 8000440:	d941      	bls.n	80004c6 <__udivmoddi4+0x2c2>
 8000442:	f1a9 0902 	sub.w	r9, r9, #2
 8000446:	441d      	add	r5, r3
 8000448:	1b2d      	subs	r5, r5, r4
 800044a:	fa1f fe8e 	uxth.w	lr, lr
 800044e:	fbb5 f0fc 	udiv	r0, r5, ip
 8000452:	fb0c 5510 	mls	r5, ip, r0, r5
 8000456:	ea4e 4405 	orr.w	r4, lr, r5, lsl #16
 800045a:	fb00 f808 	mul.w	r8, r0, r8
 800045e:	45a0      	cmp	r8, r4
 8000460:	d907      	bls.n	8000472 <__udivmoddi4+0x26e>
 8000462:	18e4      	adds	r4, r4, r3
 8000464:	f100 35ff 	add.w	r5, r0, #4294967295
 8000468:	d229      	bcs.n	80004be <__udivmoddi4+0x2ba>
 800046a:	45a0      	cmp	r8, r4
 800046c:	d927      	bls.n	80004be <__udivmoddi4+0x2ba>
 800046e:	3802      	subs	r0, #2
 8000470:	441c      	add	r4, r3
 8000472:	ea40 4009 	orr.w	r0, r0, r9, lsl #16
 8000476:	eba4 0408 	sub.w	r4, r4, r8
 800047a:	fba0 8902 	umull	r8, r9, r0, r2
 800047e:	454c      	cmp	r4, r9
 8000480:	46c6      	mov	lr, r8
 8000482:	464d      	mov	r5, r9
 8000484:	d315      	bcc.n	80004b2 <__udivmoddi4+0x2ae>
 8000486:	d012      	beq.n	80004ae <__udivmoddi4+0x2aa>
 8000488:	b156      	cbz	r6, 80004a0 <__udivmoddi4+0x29c>
 800048a:	ebba 030e 	subs.w	r3, sl, lr
 800048e:	eb64 0405 	sbc.w	r4, r4, r5
 8000492:	fa04 f707 	lsl.w	r7, r4, r7
 8000496:	40cb      	lsrs	r3, r1
 8000498:	431f      	orrs	r7, r3
 800049a:	40cc      	lsrs	r4, r1
 800049c:	6037      	str	r7, [r6, #0]
 800049e:	6074      	str	r4, [r6, #4]
 80004a0:	2100      	movs	r1, #0
 80004a2:	e8bd 87f0 	ldmia.w	sp!, {r4, r5, r6, r7, r8, r9, sl, pc}
 80004a6:	4618      	mov	r0, r3
 80004a8:	e6f8      	b.n	800029c <__udivmoddi4+0x98>
 80004aa:	4690      	mov	r8, r2
 80004ac:	e6e0      	b.n	8000270 <__udivmoddi4+0x6c>
 80004ae:	45c2      	cmp	sl, r8
 80004b0:	d2ea      	bcs.n	8000488 <__udivmoddi4+0x284>
 80004b2:	ebb8 0e02 	subs.w	lr, r8, r2
 80004b6:	eb69 0503 	sbc.w	r5, r9, r3
 80004ba:	3801      	subs	r0, #1
 80004bc:	e7e4      	b.n	8000488 <__udivmoddi4+0x284>
 80004be:	4628      	mov	r0, r5
 80004c0:	e7d7      	b.n	8000472 <__udivmoddi4+0x26e>
 80004c2:	4640      	mov	r0, r8
 80004c4:	e791      	b.n	80003ea <__udivmoddi4+0x1e6>
 80004c6:	4681      	mov	r9, r0
 80004c8:	e7be      	b.n	8000448 <__udivmoddi4+0x244>
 80004ca:	4601      	mov	r1, r0
 80004cc:	e778      	b.n	80003c0 <__udivmoddi4+0x1bc>
 80004ce:	3802      	subs	r0, #2
 80004d0:	443c      	add	r4, r7
 80004d2:	e745      	b.n	8000360 <__udivmoddi4+0x15c>
 80004d4:	4608      	mov	r0, r1
 80004d6:	e708      	b.n	80002ea <__udivmoddi4+0xe6>
 80004d8:	f1a8 0802 	sub.w	r8, r8, #2
 80004dc:	443d      	add	r5, r7
 80004de:	e72b      	b.n	8000338 <__udivmoddi4+0x134>

080004e0 <__aeabi_idiv0>:
 80004e0:	4770      	bx	lr
 80004e2:	bf00      	nop

080004e4 <HAL_InitTick>:
  *       implementation  in user file.
  * @param TickPriority Tick interrupt priority.
  * @retval HAL status
  */
__weak HAL_StatusTypeDef HAL_InitTick(uint32_t TickPriority)
{
 80004e4:	b538      	push	{r3, r4, r5, lr}
  /* Configure the SysTick to have interrupt in 1ms time basis*/
  if (HAL_SYSTICK_Config(SystemCoreClock / (1000U / uwTickFreq)) > 0U)
 80004e6:	4a0e      	ldr	r2, [pc, #56]	; (8000520 <HAL_InitTick+0x3c>)
 80004e8:	4b0e      	ldr	r3, [pc, #56]	; (8000524 <HAL_InitTick+0x40>)
{
 80004ea:	4605      	mov	r5, r0
  if (HAL_SYSTICK_Config(SystemCoreClock / (1000U / uwTickFreq)) > 0U)
 80004ec:	7818      	ldrb	r0, [r3, #0]
 80004ee:	f44f 737a 	mov.w	r3, #1000	; 0x3e8
 80004f2:	fbb3 f3f0 	udiv	r3, r3, r0
 80004f6:	6810      	ldr	r0, [r2, #0]
 80004f8:	fbb0 f0f3 	udiv	r0, r0, r3
 80004fc:	f000 f894 	bl	8000628 <HAL_SYSTICK_Config>
 8000500:	4604      	mov	r4, r0
 8000502:	b958      	cbnz	r0, 800051c <HAL_InitTick+0x38>
  {
    return HAL_ERROR;
  }

  /* Configure the SysTick IRQ priority */
  if (TickPriority < (1UL << __NVIC_PRIO_BITS))
 8000504:	2d0f      	cmp	r5, #15
 8000506:	d809      	bhi.n	800051c <HAL_InitTick+0x38>
  {
    HAL_NVIC_SetPriority(SysTick_IRQn, TickPriority, 0U);
 8000508:	4602      	mov	r2, r0
 800050a:	4629      	mov	r1, r5
 800050c:	f04f 30ff 	mov.w	r0, #4294967295
 8000510:	f000 f84a 	bl	80005a8 <HAL_NVIC_SetPriority>
    uwTickPrio = TickPriority;
 8000514:	4b04      	ldr	r3, [pc, #16]	; (8000528 <HAL_InitTick+0x44>)
 8000516:	4620      	mov	r0, r4
 8000518:	601d      	str	r5, [r3, #0]
 800051a:	bd38      	pop	{r3, r4, r5, pc}
    return HAL_ERROR;
 800051c:	2001      	movs	r0, #1
    return HAL_ERROR;
  }

  /* Return function status */
  return HAL_OK;
}
 800051e:	bd38      	pop	{r3, r4, r5, pc}
 8000520:	20000008 	.word	0x20000008
 8000524:	20000000 	.word	0x20000000
 8000528:	20000004 	.word	0x20000004

0800052c <HAL_Init>:
{
 800052c:	b508      	push	{r3, lr}
  __HAL_FLASH_INSTRUCTION_CACHE_ENABLE();
 800052e:	4b0b      	ldr	r3, [pc, #44]	; (800055c <HAL_Init+0x30>)
 8000530:	681a      	ldr	r2, [r3, #0]
 8000532:	f442 7200 	orr.w	r2, r2, #512	; 0x200
 8000536:	601a      	str	r2, [r3, #0]
  __HAL_FLASH_DATA_CACHE_ENABLE();
 8000538:	681a      	ldr	r2, [r3, #0]
 800053a:	f442 6280 	orr.w	r2, r2, #1024	; 0x400
 800053e:	601a      	str	r2, [r3, #0]
  __HAL_FLASH_PREFETCH_BUFFER_ENABLE();
 8000540:	681a      	ldr	r2, [r3, #0]
 8000542:	f442 7280 	orr.w	r2, r2, #256	; 0x100
 8000546:	601a      	str	r2, [r3, #0]
  HAL_NVIC_SetPriorityGrouping(NVIC_PRIORITYGROUP_4);
 8000548:	2003      	movs	r0, #3
 800054a:	f000 f81b 	bl	8000584 <HAL_NVIC_SetPriorityGrouping>
  HAL_InitTick(TICK_INT_PRIORITY);
 800054e:	2000      	movs	r0, #0
 8000550:	f7ff ffc8 	bl	80004e4 <HAL_InitTick>
  HAL_MspInit();
 8000554:	f000 ffa2 	bl	800149c <HAL_MspInit>
}
 8000558:	2000      	movs	r0, #0
 800055a:	bd08      	pop	{r3, pc}
 800055c:	40023c00 	.word	0x40023c00

08000560 <HAL_IncTick>:
  *      implementations in user file.
  * @retval None
  */
__weak void HAL_IncTick(void)
{
  uwTick += uwTickFreq;
 8000560:	4a03      	ldr	r2, [pc, #12]	; (8000570 <HAL_IncTick+0x10>)
 8000562:	4b04      	ldr	r3, [pc, #16]	; (8000574 <HAL_IncTick+0x14>)
 8000564:	6811      	ldr	r1, [r2, #0]
 8000566:	781b      	ldrb	r3, [r3, #0]
 8000568:	440b      	add	r3, r1
 800056a:	6013      	str	r3, [r2, #0]
 800056c:	4770      	bx	lr
 800056e:	bf00      	nop
 8000570:	20000028 	.word	0x20000028
 8000574:	20000000 	.word	0x20000000

08000578 <HAL_GetTick>:
  *       implementations in user file.
  * @retval tick value
  */
__weak uint32_t HAL_GetTick(void)
{
  return uwTick;
 8000578:	4b01      	ldr	r3, [pc, #4]	; (8000580 <HAL_GetTick+0x8>)
 800057a:	6818      	ldr	r0, [r3, #0]
}
 800057c:	4770      	bx	lr
 800057e:	bf00      	nop
 8000580:	20000028 	.word	0x20000028

08000584 <HAL_NVIC_SetPriorityGrouping>:
__STATIC_INLINE void NVIC_SetPriorityGrouping(uint32_t PriorityGroup)
{
  uint32_t reg_value;
  uint32_t PriorityGroupTmp = (PriorityGroup & (uint32_t)0x07UL);             /* only values 0..7 are used          */

  reg_value  =  SCB->AIRCR;                                                   /* read old register configuration    */
 8000584:	4a07      	ldr	r2, [pc, #28]	; (80005a4 <HAL_NVIC_SetPriorityGrouping+0x20>)
 8000586:	68d3      	ldr	r3, [r2, #12]
  reg_value &= ~((uint32_t)(SCB_AIRCR_VECTKEY_Msk | SCB_AIRCR_PRIGROUP_Msk)); /* clear bits to change               */
 8000588:	f423 63e0 	bic.w	r3, r3, #1792	; 0x700
 800058c:	041b      	lsls	r3, r3, #16
 800058e:	0c1b      	lsrs	r3, r3, #16
 8000590:	f043 63bf 	orr.w	r3, r3, #100139008	; 0x5f80000
  reg_value  =  (reg_value                                   |
                ((uint32_t)0x5FAUL << SCB_AIRCR_VECTKEY_Pos) |
                (PriorityGroupTmp << 8U)                      );              /* Insert write key and priorty group */
 8000594:	0200      	lsls	r0, r0, #8
 8000596:	f443 3300 	orr.w	r3, r3, #131072	; 0x20000
 800059a:	f400 60e0 	and.w	r0, r0, #1792	; 0x700
  reg_value  =  (reg_value                                   |
 800059e:	4303      	orrs	r3, r0
  SCB->AIRCR =  reg_value;
 80005a0:	60d3      	str	r3, [r2, #12]
 80005a2:	4770      	bx	lr
 80005a4:	e000ed00 	.word	0xe000ed00

080005a8 <HAL_NVIC_SetPriority>:
  \details Reads the priority grouping field from the NVIC Interrupt Controller.
  \return                Priority grouping field (SCB->AIRCR [10:8] PRIGROUP field).
 */
__STATIC_INLINE uint32_t NVIC_GetPriorityGrouping(void)
{
  return ((uint32_t)((SCB->AIRCR & SCB_AIRCR_PRIGROUP_Msk) >> SCB_AIRCR_PRIGROUP_Pos));
 80005a8:	4b17      	ldr	r3, [pc, #92]	; (8000608 <HAL_NVIC_SetPriority+0x60>)
  *         This parameter can be a value between 0 and 15
  *         A lower priority value indicates a higher priority.          
  * @retval None
  */
void HAL_NVIC_SetPriority(IRQn_Type IRQn, uint32_t PreemptPriority, uint32_t SubPriority)
{ 
 80005aa:	b530      	push	{r4, r5, lr}
 80005ac:	68dc      	ldr	r4, [r3, #12]
 80005ae:	f3c4 2402 	ubfx	r4, r4, #8, #3
{
  uint32_t PriorityGroupTmp = (PriorityGroup & (uint32_t)0x07UL);   /* only values 0..7 are used          */
  uint32_t PreemptPriorityBits;
  uint32_t SubPriorityBits;

  PreemptPriorityBits = ((7UL - PriorityGroupTmp) > (uint32_t)(__NVIC_PRIO_BITS)) ? (uint32_t)(__NVIC_PRIO_BITS) : (uint32_t)(7UL - PriorityGroupTmp);
 80005b2:	f1c4 0307 	rsb	r3, r4, #7
  SubPriorityBits     = ((PriorityGroupTmp + (uint32_t)(__NVIC_PRIO_BITS)) < (uint32_t)7UL) ? (uint32_t)0UL : (uint32_t)((PriorityGroupTmp - 7UL) + (uint32_t)(__NVIC_PRIO_BITS));
 80005b6:	1d25      	adds	r5, r4, #4
  PreemptPriorityBits = ((7UL - PriorityGroupTmp) > (uint32_t)(__NVIC_PRIO_BITS)) ? (uint32_t)(__NVIC_PRIO_BITS) : (uint32_t)(7UL - PriorityGroupTmp);
 80005b8:	2b04      	cmp	r3, #4
 80005ba:	bf28      	it	cs
 80005bc:	2304      	movcs	r3, #4
  SubPriorityBits     = ((PriorityGroupTmp + (uint32_t)(__NVIC_PRIO_BITS)) < (uint32_t)7UL) ? (uint32_t)0UL : (uint32_t)((PriorityGroupTmp - 7UL) + (uint32_t)(__NVIC_PRIO_BITS));
 80005be:	2d06      	cmp	r5, #6

  return (
           ((PreemptPriority & (uint32_t)((1UL << (PreemptPriorityBits)) - 1UL)) << SubPriorityBits) |
 80005c0:	f04f 0501 	mov.w	r5, #1
 80005c4:	fa05 f303 	lsl.w	r3, r5, r3
 80005c8:	f103 33ff 	add.w	r3, r3, #4294967295
  SubPriorityBits     = ((PriorityGroupTmp + (uint32_t)(__NVIC_PRIO_BITS)) < (uint32_t)7UL) ? (uint32_t)0UL : (uint32_t)((PriorityGroupTmp - 7UL) + (uint32_t)(__NVIC_PRIO_BITS));
 80005cc:	bf8c      	ite	hi
 80005ce:	3c03      	subhi	r4, #3
 80005d0:	2400      	movls	r4, #0
           ((PreemptPriority & (uint32_t)((1UL << (PreemptPriorityBits)) - 1UL)) << SubPriorityBits) |
 80005d2:	4019      	ands	r1, r3
 80005d4:	40a1      	lsls	r1, r4
           ((SubPriority     & (uint32_t)((1UL << (SubPriorityBits    )) - 1UL)))
 80005d6:	fa05 f404 	lsl.w	r4, r5, r4
 80005da:	3c01      	subs	r4, #1
 80005dc:	4022      	ands	r2, r4
  if ((int32_t)(IRQn) < 0)
 80005de:	2800      	cmp	r0, #0
           ((PreemptPriority & (uint32_t)((1UL << (PreemptPriorityBits)) - 1UL)) << SubPriorityBits) |
 80005e0:	ea42 0201 	orr.w	r2, r2, r1
 80005e4:	ea4f 1202 	mov.w	r2, r2, lsl #4
    NVIC->IP[((uint32_t)(int32_t)IRQn)]               = (uint8_t)((priority << (8U - __NVIC_PRIO_BITS)) & (uint32_t)0xFFUL);
 80005e8:	bfaf      	iteee	ge
 80005ea:	f100 4060 	addge.w	r0, r0, #3758096384	; 0xe0000000
    SCB->SHP[(((uint32_t)(int32_t)IRQn) & 0xFUL)-4UL] = (uint8_t)((priority << (8U - __NVIC_PRIO_BITS)) & (uint32_t)0xFFUL);
 80005ee:	f000 000f 	andlt.w	r0, r0, #15
 80005f2:	4b06      	ldrlt	r3, [pc, #24]	; (800060c <HAL_NVIC_SetPriority+0x64>)
 80005f4:	b2d2      	uxtblt	r2, r2
    NVIC->IP[((uint32_t)(int32_t)IRQn)]               = (uint8_t)((priority << (8U - __NVIC_PRIO_BITS)) & (uint32_t)0xFFUL);
 80005f6:	bfa5      	ittet	ge
 80005f8:	f500 4061 	addge.w	r0, r0, #57600	; 0xe100
 80005fc:	b2d2      	uxtbge	r2, r2
    SCB->SHP[(((uint32_t)(int32_t)IRQn) & 0xFUL)-4UL] = (uint8_t)((priority << (8U - __NVIC_PRIO_BITS)) & (uint32_t)0xFFUL);
 80005fe:	541a      	strblt	r2, [r3, r0]
    NVIC->IP[((uint32_t)(int32_t)IRQn)]               = (uint8_t)((priority << (8U - __NVIC_PRIO_BITS)) & (uint32_t)0xFFUL);
 8000600:	f880 2300 	strbge.w	r2, [r0, #768]	; 0x300
 8000604:	bd30      	pop	{r4, r5, pc}
 8000606:	bf00      	nop
 8000608:	e000ed00 	.word	0xe000ed00
 800060c:	e000ed14 	.word	0xe000ed14

08000610 <HAL_NVIC_EnableIRQ>:
  NVIC->ISER[(((uint32_t)(int32_t)IRQn) >> 5UL)] = (uint32_t)(1UL << (((uint32_t)(int32_t)IRQn) & 0x1FUL));
 8000610:	0942      	lsrs	r2, r0, #5
 8000612:	2301      	movs	r3, #1
 8000614:	f000 001f 	and.w	r0, r0, #31
 8000618:	fa03 f000 	lsl.w	r0, r3, r0
 800061c:	4b01      	ldr	r3, [pc, #4]	; (8000624 <HAL_NVIC_EnableIRQ+0x14>)
 800061e:	f843 0022 	str.w	r0, [r3, r2, lsl #2]
 8000622:	4770      	bx	lr
 8000624:	e000e100 	.word	0xe000e100

08000628 <HAL_SYSTICK_Config>:
           function <b>SysTick_Config</b> is not included. In this case, the file <b><i>device</i>.h</b>
           must contain a vendor-specific implementation of this function.
 */
__STATIC_INLINE uint32_t SysTick_Config(uint32_t ticks)
{
  if ((ticks - 1UL) > SysTick_LOAD_RELOAD_Msk)
 8000628:	3801      	subs	r0, #1
 800062a:	f1b0 7f80 	cmp.w	r0, #16777216	; 0x1000000
 800062e:	d20a      	bcs.n	8000646 <HAL_SYSTICK_Config+0x1e>
  {
    return (1UL);                                                   /* Reload value impossible */
  }

  SysTick->LOAD  = (uint32_t)(ticks - 1UL);                         /* set reload register */
 8000630:	4b06      	ldr	r3, [pc, #24]	; (800064c <HAL_SYSTICK_Config+0x24>)
    SCB->SHP[(((uint32_t)(int32_t)IRQn) & 0xFUL)-4UL] = (uint8_t)((priority << (8U - __NVIC_PRIO_BITS)) & (uint32_t)0xFFUL);
 8000632:	4a07      	ldr	r2, [pc, #28]	; (8000650 <HAL_SYSTICK_Config+0x28>)
  SysTick->LOAD  = (uint32_t)(ticks - 1UL);                         /* set reload register */
 8000634:	6058      	str	r0, [r3, #4]
    SCB->SHP[(((uint32_t)(int32_t)IRQn) & 0xFUL)-4UL] = (uint8_t)((priority << (8U - __NVIC_PRIO_BITS)) & (uint32_t)0xFFUL);
 8000636:	21f0      	movs	r1, #240	; 0xf0
 8000638:	f882 1023 	strb.w	r1, [r2, #35]	; 0x23
  NVIC_SetPriority (SysTick_IRQn, (1UL << __NVIC_PRIO_BITS) - 1UL); /* set Priority for Systick Interrupt */
  SysTick->VAL   = 0UL;                                             /* Load the SysTick Counter Value */
 800063c:	2000      	movs	r0, #0
  SysTick->CTRL  = SysTick_CTRL_CLKSOURCE_Msk |
 800063e:	2207      	movs	r2, #7
  SysTick->VAL   = 0UL;                                             /* Load the SysTick Counter Value */
 8000640:	6098      	str	r0, [r3, #8]
  SysTick->CTRL  = SysTick_CTRL_CLKSOURCE_Msk |
 8000642:	601a      	str	r2, [r3, #0]
 8000644:	4770      	bx	lr
    return (1UL);                                                   /* Reload value impossible */
 8000646:	2001      	movs	r0, #1
  *                  - 1  Function failed.
  */
uint32_t HAL_SYSTICK_Config(uint32_t TicksNumb)
{
   return SysTick_Config(TicksNumb);
}
 8000648:	4770      	bx	lr
 800064a:	bf00      	nop
 800064c:	e000e010 	.word	0xe000e010
 8000650:	e000ed00 	.word	0xe000ed00

08000654 <HAL_SYSTICK_CLKSourceConfig>:
  *             @arg SYSTICK_CLKSOURCE_HCLK_DIV8: AHB clock divided by 8 selected as SysTick clock source.
  *             @arg SYSTICK_CLKSOURCE_HCLK: AHB clock selected as SysTick clock source.
  * @retval None
  */
void HAL_SYSTICK_CLKSourceConfig(uint32_t CLKSource)
{
 8000654:	4b04      	ldr	r3, [pc, #16]	; (8000668 <HAL_SYSTICK_CLKSourceConfig+0x14>)
  /* Check the parameters */
  assert_param(IS_SYSTICK_CLK_SOURCE(CLKSource));
  if (CLKSource == SYSTICK_CLKSOURCE_HCLK)
  {
    SysTick->CTRL |= SYSTICK_CLKSOURCE_HCLK;
 8000656:	681a      	ldr	r2, [r3, #0]
  if (CLKSource == SYSTICK_CLKSOURCE_HCLK)
 8000658:	2804      	cmp	r0, #4
    SysTick->CTRL |= SYSTICK_CLKSOURCE_HCLK;
 800065a:	bf0c      	ite	eq
 800065c:	f042 0204 	orreq.w	r2, r2, #4
  }
  else
  {
    SysTick->CTRL &= ~SYSTICK_CLKSOURCE_HCLK;
 8000660:	f022 0204 	bicne.w	r2, r2, #4
 8000664:	601a      	str	r2, [r3, #0]
 8000666:	4770      	bx	lr
 8000668:	e000e010 	.word	0xe000e010

0800066c <HAL_SYSTICK_Callback>:
/**
  * @brief  SYSTICK callback.
  * @retval None
  */
__weak void HAL_SYSTICK_Callback(void)
{
 800066c:	4770      	bx	lr

0800066e <HAL_SYSTICK_IRQHandler>:
{
 800066e:	b508      	push	{r3, lr}
  HAL_SYSTICK_Callback();
 8000670:	f7ff fffc 	bl	800066c <HAL_SYSTICK_Callback>
 8000674:	bd08      	pop	{r3, pc}
	...

08000678 <HAL_GPIO_Init>:
  * @param  GPIO_Init pointer to a GPIO_InitTypeDef structure that contains
  *         the configuration information for the specified GPIO peripheral.
  * @retval None
  */
void HAL_GPIO_Init(GPIO_TypeDef  *GPIOx, GPIO_InitTypeDef *GPIO_Init)
{
 8000678:	e92d 4ff0 	stmdb	sp!, {r4, r5, r6, r7, r8, r9, sl, fp, lr}
 800067c:	b085      	sub	sp, #20
  for(position = 0U; position < GPIO_NUMBER; position++)
  {
    /* Get the IO position */
    ioposition = 0x01U << position;
    /* Get the current IO position */
    iocurrent = (uint32_t)(GPIO_Init->Pin) & ioposition;
 800067e:	680b      	ldr	r3, [r1, #0]
      /*--------------------- EXTI Mode Configuration ------------------------*/
      /* Configure the External Interrupt or event for the current IO */
      if((GPIO_Init->Mode & EXTI_MODE) == EXTI_MODE)
      {
        /* Enable SYSCFG Clock */
        __HAL_RCC_SYSCFG_CLK_ENABLE();
 8000680:	f8df 819c 	ldr.w	r8, [pc, #412]	; 8000820 <HAL_GPIO_Init+0x1a8>
        temp &= ~(0x0FU << (4U * (position & 0x03U)));
        temp |= ((uint32_t)(GPIO_GET_INDEX(GPIOx)) << (4U * (position & 0x03U)));
        SYSCFG->EXTICR[position >> 2U] = temp;

        /* Clear EXTI line configuration */
        temp = EXTI->IMR;
 8000684:	4a64      	ldr	r2, [pc, #400]	; (8000818 <HAL_GPIO_Init+0x1a0>)
    iocurrent = (uint32_t)(GPIO_Init->Pin) & ioposition;
 8000686:	9301      	str	r3, [sp, #4]
    ioposition = 0x01U << position;
 8000688:	f04f 0901 	mov.w	r9, #1
  for(position = 0U; position < GPIO_NUMBER; position++)
 800068c:	2300      	movs	r3, #0
    iocurrent = (uint32_t)(GPIO_Init->Pin) & ioposition;
 800068e:	9c01      	ldr	r4, [sp, #4]
    ioposition = 0x01U << position;
 8000690:	fa09 f703 	lsl.w	r7, r9, r3
    iocurrent = (uint32_t)(GPIO_Init->Pin) & ioposition;
 8000694:	ea07 0604 	and.w	r6, r7, r4
    if(iocurrent == ioposition)
 8000698:	42b7      	cmp	r7, r6
 800069a:	f040 80ad 	bne.w	80007f8 <HAL_GPIO_Init+0x180>
      if((GPIO_Init->Mode == GPIO_MODE_AF_PP) || (GPIO_Init->Mode == GPIO_MODE_AF_OD))
 800069e:	684c      	ldr	r4, [r1, #4]
 80006a0:	f024 0a10 	bic.w	sl, r4, #16
 80006a4:	f1ba 0f02 	cmp.w	sl, #2
 80006a8:	d116      	bne.n	80006d8 <HAL_GPIO_Init+0x60>
        temp = GPIOx->AFR[position >> 3U];
 80006aa:	ea4f 0cd3 	mov.w	ip, r3, lsr #3
 80006ae:	eb00 0c8c 	add.w	ip, r0, ip, lsl #2
        temp &= ~(0xFU << ((uint32_t)(position & 0x07U) * 4U)) ;
 80006b2:	f003 0b07 	and.w	fp, r3, #7
        temp = GPIOx->AFR[position >> 3U];
 80006b6:	f8dc 5020 	ldr.w	r5, [ip, #32]
        temp &= ~(0xFU << ((uint32_t)(position & 0x07U) * 4U)) ;
 80006ba:	ea4f 0b8b 	mov.w	fp, fp, lsl #2
 80006be:	f04f 0e0f 	mov.w	lr, #15
 80006c2:	fa0e fe0b 	lsl.w	lr, lr, fp
 80006c6:	ea25 0e0e 	bic.w	lr, r5, lr
        temp |= ((uint32_t)(GPIO_Init->Alternate) << (((uint32_t)position & 0x07U) * 4U));
 80006ca:	690d      	ldr	r5, [r1, #16]
 80006cc:	fa05 f50b 	lsl.w	r5, r5, fp
 80006d0:	ea45 050e 	orr.w	r5, r5, lr
        GPIOx->AFR[position >> 3U] = temp;
 80006d4:	f8cc 5020 	str.w	r5, [ip, #32]
 80006d8:	ea4f 0c43 	mov.w	ip, r3, lsl #1
      temp &= ~(GPIO_MODER_MODER0 << (position * 2U));
 80006dc:	2503      	movs	r5, #3
      temp = GPIOx->MODER;
 80006de:	f8d0 b000 	ldr.w	fp, [r0]
      temp &= ~(GPIO_MODER_MODER0 << (position * 2U));
 80006e2:	fa05 f50c 	lsl.w	r5, r5, ip
 80006e6:	43ed      	mvns	r5, r5
      temp |= ((GPIO_Init->Mode & GPIO_MODE) << (position * 2U));
 80006e8:	f004 0e03 	and.w	lr, r4, #3
      temp &= ~(GPIO_MODER_MODER0 << (position * 2U));
 80006ec:	ea0b 0b05 	and.w	fp, fp, r5
      temp |= ((GPIO_Init->Mode & GPIO_MODE) << (position * 2U));
 80006f0:	fa0e fe0c 	lsl.w	lr, lr, ip
      if((GPIO_Init->Mode == GPIO_MODE_OUTPUT_PP) || (GPIO_Init->Mode == GPIO_MODE_AF_PP) ||
 80006f4:	f10a 3aff 	add.w	sl, sl, #4294967295
      temp |= ((GPIO_Init->Mode & GPIO_MODE) << (position * 2U));
 80006f8:	ea4e 0e0b 	orr.w	lr, lr, fp
      if((GPIO_Init->Mode == GPIO_MODE_OUTPUT_PP) || (GPIO_Init->Mode == GPIO_MODE_AF_PP) ||
 80006fc:	f1ba 0f01 	cmp.w	sl, #1
      temp &= ~(GPIO_MODER_MODER0 << (position * 2U));
 8000700:	9500      	str	r5, [sp, #0]
      GPIOx->MODER = temp;
 8000702:	f8c0 e000 	str.w	lr, [r0]
      if((GPIO_Init->Mode == GPIO_MODE_OUTPUT_PP) || (GPIO_Init->Mode == GPIO_MODE_AF_PP) ||
 8000706:	d815      	bhi.n	8000734 <HAL_GPIO_Init+0xbc>
        temp = GPIOx->OSPEEDR; 
 8000708:	f8d0 e008 	ldr.w	lr, [r0, #8]
        temp &= ~(GPIO_OSPEEDER_OSPEEDR0 << (position * 2U));
 800070c:	ea05 0e0e 	and.w	lr, r5, lr
        temp |= (GPIO_Init->Speed << (position * 2U));
 8000710:	68cd      	ldr	r5, [r1, #12]
 8000712:	fa05 fa0c 	lsl.w	sl, r5, ip
 8000716:	ea4a 0e0e 	orr.w	lr, sl, lr
        GPIOx->OSPEEDR = temp;
 800071a:	f8c0 e008 	str.w	lr, [r0, #8]
        temp = GPIOx->OTYPER;
 800071e:	f8d0 e004 	ldr.w	lr, [r0, #4]
        temp &= ~(GPIO_OTYPER_OT_0 << position) ;
 8000722:	ea2e 0707 	bic.w	r7, lr, r7
        temp |= (((GPIO_Init->Mode & GPIO_OUTPUT_TYPE) >> 4U) << position);
 8000726:	f3c4 1e00 	ubfx	lr, r4, #4, #1
 800072a:	fa0e fe03 	lsl.w	lr, lr, r3
 800072e:	ea4e 0707 	orr.w	r7, lr, r7
        GPIOx->OTYPER = temp;
 8000732:	6047      	str	r7, [r0, #4]
      temp = GPIOx->PUPDR;
 8000734:	68c7      	ldr	r7, [r0, #12]
      temp &= ~(GPIO_PUPDR_PUPDR0 << (position * 2U));
 8000736:	9d00      	ldr	r5, [sp, #0]
 8000738:	403d      	ands	r5, r7
      temp |= ((GPIO_Init->Pull) << (position * 2U));
 800073a:	688f      	ldr	r7, [r1, #8]
 800073c:	fa07 f70c 	lsl.w	r7, r7, ip
 8000740:	433d      	orrs	r5, r7
      GPIOx->PUPDR = temp;
 8000742:	60c5      	str	r5, [r0, #12]
      if((GPIO_Init->Mode & EXTI_MODE) == EXTI_MODE)
 8000744:	00e5      	lsls	r5, r4, #3
 8000746:	d557      	bpl.n	80007f8 <HAL_GPIO_Init+0x180>
        __HAL_RCC_SYSCFG_CLK_ENABLE();
 8000748:	f04f 0b00 	mov.w	fp, #0
 800074c:	f8cd b00c 	str.w	fp, [sp, #12]
 8000750:	f8d8 7044 	ldr.w	r7, [r8, #68]	; 0x44
        temp |= ((uint32_t)(GPIO_GET_INDEX(GPIOx)) << (4U * (position & 0x03U)));
 8000754:	4d31      	ldr	r5, [pc, #196]	; (800081c <HAL_GPIO_Init+0x1a4>)
        __HAL_RCC_SYSCFG_CLK_ENABLE();
 8000756:	f447 4780 	orr.w	r7, r7, #16384	; 0x4000
 800075a:	f8c8 7044 	str.w	r7, [r8, #68]	; 0x44
 800075e:	f8d8 7044 	ldr.w	r7, [r8, #68]	; 0x44
 8000762:	f407 4780 	and.w	r7, r7, #16384	; 0x4000
 8000766:	9703      	str	r7, [sp, #12]
 8000768:	9f03      	ldr	r7, [sp, #12]
 800076a:	f023 0703 	bic.w	r7, r3, #3
 800076e:	f107 4780 	add.w	r7, r7, #1073741824	; 0x40000000
 8000772:	f507 379c 	add.w	r7, r7, #79872	; 0x13800
        temp &= ~(0x0FU << (4U * (position & 0x03U)));
 8000776:	f003 0c03 	and.w	ip, r3, #3
        temp = SYSCFG->EXTICR[position >> 2U];
 800077a:	f8d7 a008 	ldr.w	sl, [r7, #8]
        temp &= ~(0x0FU << (4U * (position & 0x03U)));
 800077e:	ea4f 0c8c 	mov.w	ip, ip, lsl #2
 8000782:	f04f 0e0f 	mov.w	lr, #15
 8000786:	fa0e fe0c 	lsl.w	lr, lr, ip
        temp |= ((uint32_t)(GPIO_GET_INDEX(GPIOx)) << (4U * (position & 0x03U)));
 800078a:	42a8      	cmp	r0, r5
        temp &= ~(0x0FU << (4U * (position & 0x03U)));
 800078c:	ea2a 0e0e 	bic.w	lr, sl, lr
        temp |= ((uint32_t)(GPIO_GET_INDEX(GPIOx)) << (4U * (position & 0x03U)));
 8000790:	d039      	beq.n	8000806 <HAL_GPIO_Init+0x18e>
 8000792:	f505 6580 	add.w	r5, r5, #1024	; 0x400
 8000796:	42a8      	cmp	r0, r5
 8000798:	d037      	beq.n	800080a <HAL_GPIO_Init+0x192>
 800079a:	f505 6580 	add.w	r5, r5, #1024	; 0x400
 800079e:	42a8      	cmp	r0, r5
 80007a0:	d035      	beq.n	800080e <HAL_GPIO_Init+0x196>
 80007a2:	f505 6580 	add.w	r5, r5, #1024	; 0x400
 80007a6:	42a8      	cmp	r0, r5
 80007a8:	d033      	beq.n	8000812 <HAL_GPIO_Init+0x19a>
 80007aa:	f505 6580 	add.w	r5, r5, #1024	; 0x400
 80007ae:	42a8      	cmp	r0, r5
 80007b0:	bf14      	ite	ne
 80007b2:	2507      	movne	r5, #7
 80007b4:	2504      	moveq	r5, #4
 80007b6:	fa05 f50c 	lsl.w	r5, r5, ip
 80007ba:	ea45 050e 	orr.w	r5, r5, lr
        SYSCFG->EXTICR[position >> 2U] = temp;
 80007be:	60bd      	str	r5, [r7, #8]
        temp = EXTI->IMR;
 80007c0:	6815      	ldr	r5, [r2, #0]
        temp &= ~((uint32_t)iocurrent);
 80007c2:	43f7      	mvns	r7, r6
        if((GPIO_Init->Mode & GPIO_MODE_IT) == GPIO_MODE_IT)
 80007c4:	f414 3f80 	tst.w	r4, #65536	; 0x10000
        temp &= ~((uint32_t)iocurrent);
 80007c8:	bf0c      	ite	eq
 80007ca:	403d      	andeq	r5, r7
        {
          temp |= iocurrent;
 80007cc:	4335      	orrne	r5, r6
        }
        EXTI->IMR = temp;
 80007ce:	6015      	str	r5, [r2, #0]

        temp = EXTI->EMR;
 80007d0:	6855      	ldr	r5, [r2, #4]
        temp &= ~((uint32_t)iocurrent);
        if((GPIO_Init->Mode & GPIO_MODE_EVT) == GPIO_MODE_EVT)
 80007d2:	f414 3f00 	tst.w	r4, #131072	; 0x20000
        temp &= ~((uint32_t)iocurrent);
 80007d6:	bf0c      	ite	eq
 80007d8:	403d      	andeq	r5, r7
        {
          temp |= iocurrent;
 80007da:	4335      	orrne	r5, r6
        }
        EXTI->EMR = temp;
 80007dc:	6055      	str	r5, [r2, #4]

        /* Clear Rising Falling edge configuration */
        temp = EXTI->RTSR;
 80007de:	6895      	ldr	r5, [r2, #8]
        temp &= ~((uint32_t)iocurrent);
        if((GPIO_Init->Mode & RISING_EDGE) == RISING_EDGE)
 80007e0:	f414 1f80 	tst.w	r4, #1048576	; 0x100000
        temp &= ~((uint32_t)iocurrent);
 80007e4:	bf0c      	ite	eq
 80007e6:	403d      	andeq	r5, r7
        {
          temp |= iocurrent;
 80007e8:	4335      	orrne	r5, r6
        }
        EXTI->RTSR = temp;
 80007ea:	6095      	str	r5, [r2, #8]

        temp = EXTI->FTSR;
 80007ec:	68d5      	ldr	r5, [r2, #12]
        temp &= ~((uint32_t)iocurrent);
        if((GPIO_Init->Mode & FALLING_EDGE) == FALLING_EDGE)
 80007ee:	02a4      	lsls	r4, r4, #10
        temp &= ~((uint32_t)iocurrent);
 80007f0:	bf54      	ite	pl
 80007f2:	403d      	andpl	r5, r7
        {
          temp |= iocurrent;
 80007f4:	4335      	orrmi	r5, r6
        }
        EXTI->FTSR = temp;
 80007f6:	60d5      	str	r5, [r2, #12]
  for(position = 0U; position < GPIO_NUMBER; position++)
 80007f8:	3301      	adds	r3, #1
 80007fa:	2b10      	cmp	r3, #16
 80007fc:	f47f af47 	bne.w	800068e <HAL_GPIO_Init+0x16>
      }
    }
  }
}
 8000800:	b005      	add	sp, #20
 8000802:	e8bd 8ff0 	ldmia.w	sp!, {r4, r5, r6, r7, r8, r9, sl, fp, pc}
        temp |= ((uint32_t)(GPIO_GET_INDEX(GPIOx)) << (4U * (position & 0x03U)));
 8000806:	465d      	mov	r5, fp
 8000808:	e7d5      	b.n	80007b6 <HAL_GPIO_Init+0x13e>
 800080a:	2501      	movs	r5, #1
 800080c:	e7d3      	b.n	80007b6 <HAL_GPIO_Init+0x13e>
 800080e:	2502      	movs	r5, #2
 8000810:	e7d1      	b.n	80007b6 <HAL_GPIO_Init+0x13e>
 8000812:	2503      	movs	r5, #3
 8000814:	e7cf      	b.n	80007b6 <HAL_GPIO_Init+0x13e>
 8000816:	bf00      	nop
 8000818:	40013c00 	.word	0x40013c00
 800081c:	40020000 	.word	0x40020000
 8000820:	40023800 	.word	0x40023800

08000824 <HAL_RCC_OscConfig>:
  *         supported by this API. User should request a transition to HSE Off
  *         first and then HSE On or HSE Bypass.
  * @retval HAL status
  */
__weak HAL_StatusTypeDef HAL_RCC_OscConfig(RCC_OscInitTypeDef  *RCC_OscInitStruct)
{
 8000824:	e92d 41f3 	stmdb	sp!, {r0, r1, r4, r5, r6, r7, r8, lr}
  uint32_t tickstart;

  /* Check Null pointer */
  if(RCC_OscInitStruct == NULL)
 8000828:	4604      	mov	r4, r0
 800082a:	b918      	cbnz	r0, 8000834 <HAL_RCC_OscConfig+0x10>
  {
    return HAL_ERROR;
 800082c:	2001      	movs	r0, #1
    {
      return HAL_ERROR;
    }
  }
  return HAL_OK;
}
 800082e:	b002      	add	sp, #8
 8000830:	e8bd 81f0 	ldmia.w	sp!, {r4, r5, r6, r7, r8, pc}
  if(((RCC_OscInitStruct->OscillatorType) & RCC_OSCILLATORTYPE_HSE) == RCC_OSCILLATORTYPE_HSE)
 8000834:	6803      	ldr	r3, [r0, #0]
 8000836:	07dd      	lsls	r5, r3, #31
 8000838:	d410      	bmi.n	800085c <HAL_RCC_OscConfig+0x38>
  if(((RCC_OscInitStruct->OscillatorType) & RCC_OSCILLATORTYPE_HSI) == RCC_OSCILLATORTYPE_HSI)
 800083a:	6823      	ldr	r3, [r4, #0]
 800083c:	0798      	lsls	r0, r3, #30
 800083e:	d458      	bmi.n	80008f2 <HAL_RCC_OscConfig+0xce>
  if(((RCC_OscInitStruct->OscillatorType) & RCC_OSCILLATORTYPE_LSI) == RCC_OSCILLATORTYPE_LSI)
 8000840:	6823      	ldr	r3, [r4, #0]
 8000842:	071a      	lsls	r2, r3, #28
 8000844:	f100 809a 	bmi.w	800097c <HAL_RCC_OscConfig+0x158>
  if(((RCC_OscInitStruct->OscillatorType) & RCC_OSCILLATORTYPE_LSE) == RCC_OSCILLATORTYPE_LSE)
 8000848:	6823      	ldr	r3, [r4, #0]
 800084a:	075b      	lsls	r3, r3, #29
 800084c:	f100 80b8 	bmi.w	80009c0 <HAL_RCC_OscConfig+0x19c>
  if ((RCC_OscInitStruct->PLL.PLLState) != RCC_PLL_NONE)
 8000850:	69a2      	ldr	r2, [r4, #24]
 8000852:	2a00      	cmp	r2, #0
 8000854:	f040 8119 	bne.w	8000a8a <HAL_RCC_OscConfig+0x266>
  return HAL_OK;
 8000858:	2000      	movs	r0, #0
 800085a:	e7e8      	b.n	800082e <HAL_RCC_OscConfig+0xa>
    if((__HAL_RCC_GET_SYSCLK_SOURCE() == RCC_CFGR_SWS_HSE) ||\
 800085c:	4ba6      	ldr	r3, [pc, #664]	; (8000af8 <HAL_RCC_OscConfig+0x2d4>)
 800085e:	689a      	ldr	r2, [r3, #8]
 8000860:	f002 020c 	and.w	r2, r2, #12
 8000864:	2a04      	cmp	r2, #4
 8000866:	d007      	beq.n	8000878 <HAL_RCC_OscConfig+0x54>
      ((__HAL_RCC_GET_SYSCLK_SOURCE() == RCC_CFGR_SWS_PLL) && ((RCC->PLLCFGR & RCC_PLLCFGR_PLLSRC) == RCC_PLLCFGR_PLLSRC_HSE)))
 8000868:	689a      	ldr	r2, [r3, #8]
 800086a:	f002 020c 	and.w	r2, r2, #12
    if((__HAL_RCC_GET_SYSCLK_SOURCE() == RCC_CFGR_SWS_HSE) ||\
 800086e:	2a08      	cmp	r2, #8
 8000870:	d10a      	bne.n	8000888 <HAL_RCC_OscConfig+0x64>
      ((__HAL_RCC_GET_SYSCLK_SOURCE() == RCC_CFGR_SWS_PLL) && ((RCC->PLLCFGR & RCC_PLLCFGR_PLLSRC) == RCC_PLLCFGR_PLLSRC_HSE)))
 8000872:	685b      	ldr	r3, [r3, #4]
 8000874:	0259      	lsls	r1, r3, #9
 8000876:	d507      	bpl.n	8000888 <HAL_RCC_OscConfig+0x64>
      if((__HAL_RCC_GET_FLAG(RCC_FLAG_HSERDY) != RESET) && (RCC_OscInitStruct->HSEState == RCC_HSE_OFF))
 8000878:	4b9f      	ldr	r3, [pc, #636]	; (8000af8 <HAL_RCC_OscConfig+0x2d4>)
 800087a:	681b      	ldr	r3, [r3, #0]
 800087c:	039a      	lsls	r2, r3, #14
 800087e:	d5dc      	bpl.n	800083a <HAL_RCC_OscConfig+0x16>
 8000880:	6863      	ldr	r3, [r4, #4]
 8000882:	2b00      	cmp	r3, #0
 8000884:	d1d9      	bne.n	800083a <HAL_RCC_OscConfig+0x16>
 8000886:	e7d1      	b.n	800082c <HAL_RCC_OscConfig+0x8>
      __HAL_RCC_HSE_CONFIG(RCC_OscInitStruct->HSEState);
 8000888:	6863      	ldr	r3, [r4, #4]
 800088a:	4d9b      	ldr	r5, [pc, #620]	; (8000af8 <HAL_RCC_OscConfig+0x2d4>)
 800088c:	f5b3 3f80 	cmp.w	r3, #65536	; 0x10000
 8000890:	d111      	bne.n	80008b6 <HAL_RCC_OscConfig+0x92>
 8000892:	682b      	ldr	r3, [r5, #0]
 8000894:	f443 3380 	orr.w	r3, r3, #65536	; 0x10000
 8000898:	602b      	str	r3, [r5, #0]
        tickstart = HAL_GetTick();
 800089a:	f7ff fe6d 	bl	8000578 <HAL_GetTick>
        while(__HAL_RCC_GET_FLAG(RCC_FLAG_HSERDY) == RESET)
 800089e:	4d96      	ldr	r5, [pc, #600]	; (8000af8 <HAL_RCC_OscConfig+0x2d4>)
        tickstart = HAL_GetTick();
 80008a0:	4606      	mov	r6, r0
        while(__HAL_RCC_GET_FLAG(RCC_FLAG_HSERDY) == RESET)
 80008a2:	682b      	ldr	r3, [r5, #0]
 80008a4:	039b      	lsls	r3, r3, #14
 80008a6:	d4c8      	bmi.n	800083a <HAL_RCC_OscConfig+0x16>
          if((HAL_GetTick() - tickstart ) > HSE_TIMEOUT_VALUE)
 80008a8:	f7ff fe66 	bl	8000578 <HAL_GetTick>
 80008ac:	1b80      	subs	r0, r0, r6
 80008ae:	2864      	cmp	r0, #100	; 0x64
 80008b0:	d9f7      	bls.n	80008a2 <HAL_RCC_OscConfig+0x7e>
            return HAL_TIMEOUT;
 80008b2:	2003      	movs	r0, #3
 80008b4:	e7bb      	b.n	800082e <HAL_RCC_OscConfig+0xa>
      __HAL_RCC_HSE_CONFIG(RCC_OscInitStruct->HSEState);
 80008b6:	f5b3 2fa0 	cmp.w	r3, #327680	; 0x50000
 80008ba:	d104      	bne.n	80008c6 <HAL_RCC_OscConfig+0xa2>
 80008bc:	682b      	ldr	r3, [r5, #0]
 80008be:	f443 2380 	orr.w	r3, r3, #262144	; 0x40000
 80008c2:	602b      	str	r3, [r5, #0]
 80008c4:	e7e5      	b.n	8000892 <HAL_RCC_OscConfig+0x6e>
 80008c6:	682a      	ldr	r2, [r5, #0]
 80008c8:	f422 3280 	bic.w	r2, r2, #65536	; 0x10000
 80008cc:	602a      	str	r2, [r5, #0]
 80008ce:	682a      	ldr	r2, [r5, #0]
 80008d0:	f422 2280 	bic.w	r2, r2, #262144	; 0x40000
 80008d4:	602a      	str	r2, [r5, #0]
      if((RCC_OscInitStruct->HSEState) != RCC_HSE_OFF)
 80008d6:	2b00      	cmp	r3, #0
 80008d8:	d1df      	bne.n	800089a <HAL_RCC_OscConfig+0x76>
        tickstart = HAL_GetTick();
 80008da:	f7ff fe4d 	bl	8000578 <HAL_GetTick>
 80008de:	4606      	mov	r6, r0
        while(__HAL_RCC_GET_FLAG(RCC_FLAG_HSERDY) != RESET)
 80008e0:	682b      	ldr	r3, [r5, #0]
 80008e2:	039f      	lsls	r7, r3, #14
 80008e4:	d5a9      	bpl.n	800083a <HAL_RCC_OscConfig+0x16>
          if((HAL_GetTick() - tickstart ) > HSE_TIMEOUT_VALUE)
 80008e6:	f7ff fe47 	bl	8000578 <HAL_GetTick>
 80008ea:	1b80      	subs	r0, r0, r6
 80008ec:	2864      	cmp	r0, #100	; 0x64
 80008ee:	d9f7      	bls.n	80008e0 <HAL_RCC_OscConfig+0xbc>
 80008f0:	e7df      	b.n	80008b2 <HAL_RCC_OscConfig+0x8e>
    if((__HAL_RCC_GET_SYSCLK_SOURCE() == RCC_CFGR_SWS_HSI) ||\
 80008f2:	4b81      	ldr	r3, [pc, #516]	; (8000af8 <HAL_RCC_OscConfig+0x2d4>)
 80008f4:	689a      	ldr	r2, [r3, #8]
 80008f6:	f012 0f0c 	tst.w	r2, #12
 80008fa:	d007      	beq.n	800090c <HAL_RCC_OscConfig+0xe8>
      ((__HAL_RCC_GET_SYSCLK_SOURCE() == RCC_CFGR_SWS_PLL) && ((RCC->PLLCFGR & RCC_PLLCFGR_PLLSRC) == RCC_PLLCFGR_PLLSRC_HSI)))
 80008fc:	689a      	ldr	r2, [r3, #8]
 80008fe:	f002 020c 	and.w	r2, r2, #12
    if((__HAL_RCC_GET_SYSCLK_SOURCE() == RCC_CFGR_SWS_HSI) ||\
 8000902:	2a08      	cmp	r2, #8
 8000904:	d111      	bne.n	800092a <HAL_RCC_OscConfig+0x106>
      ((__HAL_RCC_GET_SYSCLK_SOURCE() == RCC_CFGR_SWS_PLL) && ((RCC->PLLCFGR & RCC_PLLCFGR_PLLSRC) == RCC_PLLCFGR_PLLSRC_HSI)))
 8000906:	685b      	ldr	r3, [r3, #4]
 8000908:	025e      	lsls	r6, r3, #9
 800090a:	d40e      	bmi.n	800092a <HAL_RCC_OscConfig+0x106>
      if((__HAL_RCC_GET_FLAG(RCC_FLAG_HSIRDY) != RESET) && (RCC_OscInitStruct->HSIState != RCC_HSI_ON))
 800090c:	4b7a      	ldr	r3, [pc, #488]	; (8000af8 <HAL_RCC_OscConfig+0x2d4>)
 800090e:	681a      	ldr	r2, [r3, #0]
 8000910:	0795      	lsls	r5, r2, #30
 8000912:	d502      	bpl.n	800091a <HAL_RCC_OscConfig+0xf6>
 8000914:	68e2      	ldr	r2, [r4, #12]
 8000916:	2a01      	cmp	r2, #1
 8000918:	d188      	bne.n	800082c <HAL_RCC_OscConfig+0x8>
        __HAL_RCC_HSI_CALIBRATIONVALUE_ADJUST(RCC_OscInitStruct->HSICalibrationValue);
 800091a:	681a      	ldr	r2, [r3, #0]
 800091c:	6921      	ldr	r1, [r4, #16]
 800091e:	f022 02f8 	bic.w	r2, r2, #248	; 0xf8
 8000922:	ea42 02c1 	orr.w	r2, r2, r1, lsl #3
 8000926:	601a      	str	r2, [r3, #0]
      if((__HAL_RCC_GET_FLAG(RCC_FLAG_HSIRDY) != RESET) && (RCC_OscInitStruct->HSIState != RCC_HSI_ON))
 8000928:	e78a      	b.n	8000840 <HAL_RCC_OscConfig+0x1c>
      if((RCC_OscInitStruct->HSIState)!= RCC_HSI_OFF)
 800092a:	68e2      	ldr	r2, [r4, #12]
 800092c:	4b73      	ldr	r3, [pc, #460]	; (8000afc <HAL_RCC_OscConfig+0x2d8>)
 800092e:	b1b2      	cbz	r2, 800095e <HAL_RCC_OscConfig+0x13a>
        __HAL_RCC_HSI_ENABLE();
 8000930:	2201      	movs	r2, #1
 8000932:	601a      	str	r2, [r3, #0]
        tickstart = HAL_GetTick();
 8000934:	f7ff fe20 	bl	8000578 <HAL_GetTick>
        while(__HAL_RCC_GET_FLAG(RCC_FLAG_HSIRDY) == RESET)
 8000938:	4d6f      	ldr	r5, [pc, #444]	; (8000af8 <HAL_RCC_OscConfig+0x2d4>)
        tickstart = HAL_GetTick();
 800093a:	4606      	mov	r6, r0
        while(__HAL_RCC_GET_FLAG(RCC_FLAG_HSIRDY) == RESET)
 800093c:	682b      	ldr	r3, [r5, #0]
 800093e:	0798      	lsls	r0, r3, #30
 8000940:	d507      	bpl.n	8000952 <HAL_RCC_OscConfig+0x12e>
        __HAL_RCC_HSI_CALIBRATIONVALUE_ADJUST(RCC_OscInitStruct->HSICalibrationValue);
 8000942:	682b      	ldr	r3, [r5, #0]
 8000944:	6922      	ldr	r2, [r4, #16]
 8000946:	f023 03f8 	bic.w	r3, r3, #248	; 0xf8
 800094a:	ea43 03c2 	orr.w	r3, r3, r2, lsl #3
 800094e:	602b      	str	r3, [r5, #0]
 8000950:	e776      	b.n	8000840 <HAL_RCC_OscConfig+0x1c>
          if((HAL_GetTick() - tickstart ) > HSI_TIMEOUT_VALUE)
 8000952:	f7ff fe11 	bl	8000578 <HAL_GetTick>
 8000956:	1b80      	subs	r0, r0, r6
 8000958:	2802      	cmp	r0, #2
 800095a:	d9ef      	bls.n	800093c <HAL_RCC_OscConfig+0x118>
 800095c:	e7a9      	b.n	80008b2 <HAL_RCC_OscConfig+0x8e>
        __HAL_RCC_HSI_DISABLE();
 800095e:	601a      	str	r2, [r3, #0]
        tickstart = HAL_GetTick();
 8000960:	f7ff fe0a 	bl	8000578 <HAL_GetTick>
        while(__HAL_RCC_GET_FLAG(RCC_FLAG_HSIRDY) != RESET)
 8000964:	4d64      	ldr	r5, [pc, #400]	; (8000af8 <HAL_RCC_OscConfig+0x2d4>)
        tickstart = HAL_GetTick();
 8000966:	4606      	mov	r6, r0
        while(__HAL_RCC_GET_FLAG(RCC_FLAG_HSIRDY) != RESET)
 8000968:	682b      	ldr	r3, [r5, #0]
 800096a:	0799      	lsls	r1, r3, #30
 800096c:	f57f af68 	bpl.w	8000840 <HAL_RCC_OscConfig+0x1c>
          if((HAL_GetTick() - tickstart ) > HSI_TIMEOUT_VALUE)
 8000970:	f7ff fe02 	bl	8000578 <HAL_GetTick>
 8000974:	1b80      	subs	r0, r0, r6
 8000976:	2802      	cmp	r0, #2
 8000978:	d9f6      	bls.n	8000968 <HAL_RCC_OscConfig+0x144>
 800097a:	e79a      	b.n	80008b2 <HAL_RCC_OscConfig+0x8e>
    if((RCC_OscInitStruct->LSIState)!= RCC_LSI_OFF)
 800097c:	6962      	ldr	r2, [r4, #20]
 800097e:	4b60      	ldr	r3, [pc, #384]	; (8000b00 <HAL_RCC_OscConfig+0x2dc>)
 8000980:	b17a      	cbz	r2, 80009a2 <HAL_RCC_OscConfig+0x17e>
      __HAL_RCC_LSI_ENABLE();
 8000982:	2201      	movs	r2, #1
 8000984:	601a      	str	r2, [r3, #0]
      tickstart = HAL_GetTick();
 8000986:	f7ff fdf7 	bl	8000578 <HAL_GetTick>
      while(__HAL_RCC_GET_FLAG(RCC_FLAG_LSIRDY) == RESET)
 800098a:	4d5b      	ldr	r5, [pc, #364]	; (8000af8 <HAL_RCC_OscConfig+0x2d4>)
      tickstart = HAL_GetTick();
 800098c:	4606      	mov	r6, r0
      while(__HAL_RCC_GET_FLAG(RCC_FLAG_LSIRDY) == RESET)
 800098e:	6f6b      	ldr	r3, [r5, #116]	; 0x74
 8000990:	079f      	lsls	r7, r3, #30
 8000992:	f53f af59 	bmi.w	8000848 <HAL_RCC_OscConfig+0x24>
        if((HAL_GetTick() - tickstart ) > LSI_TIMEOUT_VALUE)
 8000996:	f7ff fdef 	bl	8000578 <HAL_GetTick>
 800099a:	1b80      	subs	r0, r0, r6
 800099c:	2802      	cmp	r0, #2
 800099e:	d9f6      	bls.n	800098e <HAL_RCC_OscConfig+0x16a>
 80009a0:	e787      	b.n	80008b2 <HAL_RCC_OscConfig+0x8e>
      __HAL_RCC_LSI_DISABLE();
 80009a2:	601a      	str	r2, [r3, #0]
      tickstart = HAL_GetTick();
 80009a4:	f7ff fde8 	bl	8000578 <HAL_GetTick>
      while(__HAL_RCC_GET_FLAG(RCC_FLAG_LSIRDY) != RESET)
 80009a8:	4d53      	ldr	r5, [pc, #332]	; (8000af8 <HAL_RCC_OscConfig+0x2d4>)
      tickstart = HAL_GetTick();
 80009aa:	4606      	mov	r6, r0
      while(__HAL_RCC_GET_FLAG(RCC_FLAG_LSIRDY) != RESET)
 80009ac:	6f6b      	ldr	r3, [r5, #116]	; 0x74
 80009ae:	0798      	lsls	r0, r3, #30
 80009b0:	f57f af4a 	bpl.w	8000848 <HAL_RCC_OscConfig+0x24>
        if((HAL_GetTick() - tickstart ) > LSI_TIMEOUT_VALUE)
 80009b4:	f7ff fde0 	bl	8000578 <HAL_GetTick>
 80009b8:	1b80      	subs	r0, r0, r6
 80009ba:	2802      	cmp	r0, #2
 80009bc:	d9f6      	bls.n	80009ac <HAL_RCC_OscConfig+0x188>
 80009be:	e778      	b.n	80008b2 <HAL_RCC_OscConfig+0x8e>
    if(__HAL_RCC_PWR_IS_CLK_DISABLED())
 80009c0:	4b4d      	ldr	r3, [pc, #308]	; (8000af8 <HAL_RCC_OscConfig+0x2d4>)
 80009c2:	6c1a      	ldr	r2, [r3, #64]	; 0x40
 80009c4:	f012 5280 	ands.w	r2, r2, #268435456	; 0x10000000
 80009c8:	d128      	bne.n	8000a1c <HAL_RCC_OscConfig+0x1f8>
      __HAL_RCC_PWR_CLK_ENABLE();
 80009ca:	9201      	str	r2, [sp, #4]
 80009cc:	6c1a      	ldr	r2, [r3, #64]	; 0x40
 80009ce:	f042 5280 	orr.w	r2, r2, #268435456	; 0x10000000
 80009d2:	641a      	str	r2, [r3, #64]	; 0x40
 80009d4:	6c1b      	ldr	r3, [r3, #64]	; 0x40
 80009d6:	f003 5380 	and.w	r3, r3, #268435456	; 0x10000000
 80009da:	9301      	str	r3, [sp, #4]
 80009dc:	9b01      	ldr	r3, [sp, #4]
      pwrclkchanged = SET;
 80009de:	2601      	movs	r6, #1
    if(HAL_IS_BIT_CLR(PWR->CR, PWR_CR_DBP))
 80009e0:	4d48      	ldr	r5, [pc, #288]	; (8000b04 <HAL_RCC_OscConfig+0x2e0>)
 80009e2:	682b      	ldr	r3, [r5, #0]
 80009e4:	05d9      	lsls	r1, r3, #23
 80009e6:	d51b      	bpl.n	8000a20 <HAL_RCC_OscConfig+0x1fc>
    __HAL_RCC_LSE_CONFIG(RCC_OscInitStruct->LSEState);
 80009e8:	68a3      	ldr	r3, [r4, #8]
 80009ea:	4d43      	ldr	r5, [pc, #268]	; (8000af8 <HAL_RCC_OscConfig+0x2d4>)
 80009ec:	2b01      	cmp	r3, #1
 80009ee:	d127      	bne.n	8000a40 <HAL_RCC_OscConfig+0x21c>
 80009f0:	6f2b      	ldr	r3, [r5, #112]	; 0x70
 80009f2:	f043 0301 	orr.w	r3, r3, #1
 80009f6:	672b      	str	r3, [r5, #112]	; 0x70
      tickstart = HAL_GetTick();
 80009f8:	f7ff fdbe 	bl	8000578 <HAL_GetTick>
      while(__HAL_RCC_GET_FLAG(RCC_FLAG_LSERDY) == RESET)
 80009fc:	4d3e      	ldr	r5, [pc, #248]	; (8000af8 <HAL_RCC_OscConfig+0x2d4>)
      tickstart = HAL_GetTick();
 80009fe:	4607      	mov	r7, r0
        if((HAL_GetTick() - tickstart ) > RCC_LSE_TIMEOUT_VALUE)
 8000a00:	f241 3888 	movw	r8, #5000	; 0x1388
      while(__HAL_RCC_GET_FLAG(RCC_FLAG_LSERDY) == RESET)
 8000a04:	6f2b      	ldr	r3, [r5, #112]	; 0x70
 8000a06:	079b      	lsls	r3, r3, #30
 8000a08:	d539      	bpl.n	8000a7e <HAL_RCC_OscConfig+0x25a>
    if(pwrclkchanged == SET)
 8000a0a:	2e00      	cmp	r6, #0
 8000a0c:	f43f af20 	beq.w	8000850 <HAL_RCC_OscConfig+0x2c>
      __HAL_RCC_PWR_CLK_DISABLE();
 8000a10:	4a39      	ldr	r2, [pc, #228]	; (8000af8 <HAL_RCC_OscConfig+0x2d4>)
 8000a12:	6c13      	ldr	r3, [r2, #64]	; 0x40
 8000a14:	f023 5380 	bic.w	r3, r3, #268435456	; 0x10000000
 8000a18:	6413      	str	r3, [r2, #64]	; 0x40
 8000a1a:	e719      	b.n	8000850 <HAL_RCC_OscConfig+0x2c>
    FlagStatus       pwrclkchanged = RESET;
 8000a1c:	2600      	movs	r6, #0
 8000a1e:	e7df      	b.n	80009e0 <HAL_RCC_OscConfig+0x1bc>
      SET_BIT(PWR->CR, PWR_CR_DBP);
 8000a20:	682b      	ldr	r3, [r5, #0]
 8000a22:	f443 7380 	orr.w	r3, r3, #256	; 0x100
 8000a26:	602b      	str	r3, [r5, #0]
      tickstart = HAL_GetTick();
 8000a28:	f7ff fda6 	bl	8000578 <HAL_GetTick>
 8000a2c:	4607      	mov	r7, r0
      while(HAL_IS_BIT_CLR(PWR->CR, PWR_CR_DBP))
 8000a2e:	682b      	ldr	r3, [r5, #0]
 8000a30:	05da      	lsls	r2, r3, #23
 8000a32:	d4d9      	bmi.n	80009e8 <HAL_RCC_OscConfig+0x1c4>
        if((HAL_GetTick() - tickstart) > RCC_DBP_TIMEOUT_VALUE)
 8000a34:	f7ff fda0 	bl	8000578 <HAL_GetTick>
 8000a38:	1bc0      	subs	r0, r0, r7
 8000a3a:	2802      	cmp	r0, #2
 8000a3c:	d9f7      	bls.n	8000a2e <HAL_RCC_OscConfig+0x20a>
 8000a3e:	e738      	b.n	80008b2 <HAL_RCC_OscConfig+0x8e>
    __HAL_RCC_LSE_CONFIG(RCC_OscInitStruct->LSEState);
 8000a40:	2b05      	cmp	r3, #5
 8000a42:	d104      	bne.n	8000a4e <HAL_RCC_OscConfig+0x22a>
 8000a44:	6f2b      	ldr	r3, [r5, #112]	; 0x70
 8000a46:	f043 0304 	orr.w	r3, r3, #4
 8000a4a:	672b      	str	r3, [r5, #112]	; 0x70
 8000a4c:	e7d0      	b.n	80009f0 <HAL_RCC_OscConfig+0x1cc>
 8000a4e:	6f2a      	ldr	r2, [r5, #112]	; 0x70
 8000a50:	f022 0201 	bic.w	r2, r2, #1
 8000a54:	672a      	str	r2, [r5, #112]	; 0x70
 8000a56:	6f2a      	ldr	r2, [r5, #112]	; 0x70
 8000a58:	f022 0204 	bic.w	r2, r2, #4
 8000a5c:	672a      	str	r2, [r5, #112]	; 0x70
    if((RCC_OscInitStruct->LSEState) != RCC_LSE_OFF)
 8000a5e:	2b00      	cmp	r3, #0
 8000a60:	d1ca      	bne.n	80009f8 <HAL_RCC_OscConfig+0x1d4>
      tickstart = HAL_GetTick();
 8000a62:	f7ff fd89 	bl	8000578 <HAL_GetTick>
        if((HAL_GetTick() - tickstart ) > RCC_LSE_TIMEOUT_VALUE)
 8000a66:	f241 3888 	movw	r8, #5000	; 0x1388
      tickstart = HAL_GetTick();
 8000a6a:	4607      	mov	r7, r0
      while(__HAL_RCC_GET_FLAG(RCC_FLAG_LSERDY) != RESET)
 8000a6c:	6f2b      	ldr	r3, [r5, #112]	; 0x70
 8000a6e:	0798      	lsls	r0, r3, #30
 8000a70:	d5cb      	bpl.n	8000a0a <HAL_RCC_OscConfig+0x1e6>
        if((HAL_GetTick() - tickstart ) > RCC_LSE_TIMEOUT_VALUE)
 8000a72:	f7ff fd81 	bl	8000578 <HAL_GetTick>
 8000a76:	1bc0      	subs	r0, r0, r7
 8000a78:	4540      	cmp	r0, r8
 8000a7a:	d9f7      	bls.n	8000a6c <HAL_RCC_OscConfig+0x248>
 8000a7c:	e719      	b.n	80008b2 <HAL_RCC_OscConfig+0x8e>
        if((HAL_GetTick() - tickstart ) > RCC_LSE_TIMEOUT_VALUE)
 8000a7e:	f7ff fd7b 	bl	8000578 <HAL_GetTick>
 8000a82:	1bc0      	subs	r0, r0, r7
 8000a84:	4540      	cmp	r0, r8
 8000a86:	d9bd      	bls.n	8000a04 <HAL_RCC_OscConfig+0x1e0>
 8000a88:	e713      	b.n	80008b2 <HAL_RCC_OscConfig+0x8e>
    if(__HAL_RCC_GET_SYSCLK_SOURCE() != RCC_CFGR_SWS_PLL)
 8000a8a:	4d1b      	ldr	r5, [pc, #108]	; (8000af8 <HAL_RCC_OscConfig+0x2d4>)
 8000a8c:	68ab      	ldr	r3, [r5, #8]
 8000a8e:	f003 030c 	and.w	r3, r3, #12
 8000a92:	2b08      	cmp	r3, #8
 8000a94:	f43f aeca 	beq.w	800082c <HAL_RCC_OscConfig+0x8>
 8000a98:	4e1b      	ldr	r6, [pc, #108]	; (8000b08 <HAL_RCC_OscConfig+0x2e4>)
 8000a9a:	2300      	movs	r3, #0
      if((RCC_OscInitStruct->PLL.PLLState) == RCC_PLL_ON)
 8000a9c:	2a02      	cmp	r2, #2
        __HAL_RCC_PLL_DISABLE();
 8000a9e:	6033      	str	r3, [r6, #0]
      if((RCC_OscInitStruct->PLL.PLLState) == RCC_PLL_ON)
 8000aa0:	d134      	bne.n	8000b0c <HAL_RCC_OscConfig+0x2e8>
        tickstart = HAL_GetTick();
 8000aa2:	f7ff fd69 	bl	8000578 <HAL_GetTick>
 8000aa6:	4607      	mov	r7, r0
        while(__HAL_RCC_GET_FLAG(RCC_FLAG_PLLRDY) != RESET)
 8000aa8:	682b      	ldr	r3, [r5, #0]
 8000aaa:	0199      	lsls	r1, r3, #6
 8000aac:	d41e      	bmi.n	8000aec <HAL_RCC_OscConfig+0x2c8>
        WRITE_REG(RCC->PLLCFGR, (RCC_OscInitStruct->PLL.PLLSource                                            | \
 8000aae:	6a22      	ldr	r2, [r4, #32]
 8000ab0:	69e3      	ldr	r3, [r4, #28]
 8000ab2:	4313      	orrs	r3, r2
 8000ab4:	6a62      	ldr	r2, [r4, #36]	; 0x24
 8000ab6:	ea43 1382 	orr.w	r3, r3, r2, lsl #6
 8000aba:	6ae2      	ldr	r2, [r4, #44]	; 0x2c
 8000abc:	ea43 6302 	orr.w	r3, r3, r2, lsl #24
 8000ac0:	6aa2      	ldr	r2, [r4, #40]	; 0x28
        while(__HAL_RCC_GET_FLAG(RCC_FLAG_PLLRDY) == RESET)
 8000ac2:	4c0d      	ldr	r4, [pc, #52]	; (8000af8 <HAL_RCC_OscConfig+0x2d4>)
        WRITE_REG(RCC->PLLCFGR, (RCC_OscInitStruct->PLL.PLLSource                                            | \
 8000ac4:	0852      	lsrs	r2, r2, #1
 8000ac6:	3a01      	subs	r2, #1
 8000ac8:	ea43 4302 	orr.w	r3, r3, r2, lsl #16
 8000acc:	606b      	str	r3, [r5, #4]
        __HAL_RCC_PLL_ENABLE();
 8000ace:	2301      	movs	r3, #1
 8000ad0:	6033      	str	r3, [r6, #0]
        tickstart = HAL_GetTick();
 8000ad2:	f7ff fd51 	bl	8000578 <HAL_GetTick>
 8000ad6:	4605      	mov	r5, r0
        while(__HAL_RCC_GET_FLAG(RCC_FLAG_PLLRDY) == RESET)
 8000ad8:	6823      	ldr	r3, [r4, #0]
 8000ada:	019a      	lsls	r2, r3, #6
 8000adc:	f53f aebc 	bmi.w	8000858 <HAL_RCC_OscConfig+0x34>
          if((HAL_GetTick() - tickstart ) > PLL_TIMEOUT_VALUE)
 8000ae0:	f7ff fd4a 	bl	8000578 <HAL_GetTick>
 8000ae4:	1b40      	subs	r0, r0, r5
 8000ae6:	2802      	cmp	r0, #2
 8000ae8:	d9f6      	bls.n	8000ad8 <HAL_RCC_OscConfig+0x2b4>
 8000aea:	e6e2      	b.n	80008b2 <HAL_RCC_OscConfig+0x8e>
          if((HAL_GetTick() - tickstart ) > PLL_TIMEOUT_VALUE)
 8000aec:	f7ff fd44 	bl	8000578 <HAL_GetTick>
 8000af0:	1bc0      	subs	r0, r0, r7
 8000af2:	2802      	cmp	r0, #2
 8000af4:	d9d8      	bls.n	8000aa8 <HAL_RCC_OscConfig+0x284>
 8000af6:	e6dc      	b.n	80008b2 <HAL_RCC_OscConfig+0x8e>
 8000af8:	40023800 	.word	0x40023800
 8000afc:	42470000 	.word	0x42470000
 8000b00:	42470e80 	.word	0x42470e80
 8000b04:	40007000 	.word	0x40007000
 8000b08:	42470060 	.word	0x42470060
        tickstart = HAL_GetTick();
 8000b0c:	f7ff fd34 	bl	8000578 <HAL_GetTick>
 8000b10:	4604      	mov	r4, r0
        while(__HAL_RCC_GET_FLAG(RCC_FLAG_PLLRDY) != RESET)
 8000b12:	682b      	ldr	r3, [r5, #0]
 8000b14:	019b      	lsls	r3, r3, #6
 8000b16:	f57f ae9f 	bpl.w	8000858 <HAL_RCC_OscConfig+0x34>
          if((HAL_GetTick() - tickstart ) > PLL_TIMEOUT_VALUE)
 8000b1a:	f7ff fd2d 	bl	8000578 <HAL_GetTick>
 8000b1e:	1b00      	subs	r0, r0, r4
 8000b20:	2802      	cmp	r0, #2
 8000b22:	d9f6      	bls.n	8000b12 <HAL_RCC_OscConfig+0x2ee>
 8000b24:	e6c5      	b.n	80008b2 <HAL_RCC_OscConfig+0x8e>
 8000b26:	bf00      	nop

08000b28 <HAL_RCC_GetSysClockFreq>:
{
  uint32_t pllm = 0U, pllvco = 0U, pllp = 0U;
  uint32_t sysclockfreq = 0U;

  /* Get SYSCLK source -------------------------------------------------------*/
  switch (RCC->CFGR & RCC_CFGR_SWS)
 8000b28:	4913      	ldr	r1, [pc, #76]	; (8000b78 <HAL_RCC_GetSysClockFreq+0x50>)
{
 8000b2a:	b508      	push	{r3, lr}
  switch (RCC->CFGR & RCC_CFGR_SWS)
 8000b2c:	688b      	ldr	r3, [r1, #8]
 8000b2e:	f003 030c 	and.w	r3, r3, #12
 8000b32:	2b04      	cmp	r3, #4
 8000b34:	d003      	beq.n	8000b3e <HAL_RCC_GetSysClockFreq+0x16>
 8000b36:	2b08      	cmp	r3, #8
 8000b38:	d003      	beq.n	8000b42 <HAL_RCC_GetSysClockFreq+0x1a>
  {
    case RCC_CFGR_SWS_HSI:  /* HSI used as system clock source */
    {
      sysclockfreq = HSI_VALUE;
 8000b3a:	4810      	ldr	r0, [pc, #64]	; (8000b7c <HAL_RCC_GetSysClockFreq+0x54>)
      sysclockfreq = HSI_VALUE;
      break;
    }
  }
  return sysclockfreq;
}
 8000b3c:	bd08      	pop	{r3, pc}
      sysclockfreq = HSE_VALUE;
 8000b3e:	4810      	ldr	r0, [pc, #64]	; (8000b80 <HAL_RCC_GetSysClockFreq+0x58>)
 8000b40:	bd08      	pop	{r3, pc}
      pllm = RCC->PLLCFGR & RCC_PLLCFGR_PLLM;
 8000b42:	684a      	ldr	r2, [r1, #4]
      if(__HAL_RCC_GET_PLL_OSCSOURCE() != RCC_PLLSOURCE_HSI)
 8000b44:	684b      	ldr	r3, [r1, #4]
        pllvco = (uint32_t) ((((uint64_t) HSE_VALUE * ((uint64_t) ((RCC->PLLCFGR & RCC_PLLCFGR_PLLN) >> RCC_PLLCFGR_PLLN_Pos)))) / (uint64_t)pllm);
 8000b46:	6849      	ldr	r1, [r1, #4]
      if(__HAL_RCC_GET_PLL_OSCSOURCE() != RCC_PLLSOURCE_HSI)
 8000b48:	f413 0380 	ands.w	r3, r3, #4194304	; 0x400000
        pllvco = (uint32_t) ((((uint64_t) HSE_VALUE * ((uint64_t) ((RCC->PLLCFGR & RCC_PLLCFGR_PLLN) >> RCC_PLLCFGR_PLLN_Pos)))) / (uint64_t)pllm);
 8000b4c:	bf14      	ite	ne
 8000b4e:	480c      	ldrne	r0, [pc, #48]	; (8000b80 <HAL_RCC_GetSysClockFreq+0x58>)
        pllvco = (uint32_t) ((((uint64_t) HSI_VALUE * ((uint64_t) ((RCC->PLLCFGR & RCC_PLLCFGR_PLLN) >> RCC_PLLCFGR_PLLN_Pos)))) / (uint64_t)pllm);
 8000b50:	480a      	ldreq	r0, [pc, #40]	; (8000b7c <HAL_RCC_GetSysClockFreq+0x54>)
        pllvco = (uint32_t) ((((uint64_t) HSE_VALUE * ((uint64_t) ((RCC->PLLCFGR & RCC_PLLCFGR_PLLN) >> RCC_PLLCFGR_PLLN_Pos)))) / (uint64_t)pllm);
 8000b52:	f3c1 1188 	ubfx	r1, r1, #6, #9
 8000b56:	bf18      	it	ne
 8000b58:	2300      	movne	r3, #0
      pllm = RCC->PLLCFGR & RCC_PLLCFGR_PLLM;
 8000b5a:	f002 023f 	and.w	r2, r2, #63	; 0x3f
        pllvco = (uint32_t) ((((uint64_t) HSI_VALUE * ((uint64_t) ((RCC->PLLCFGR & RCC_PLLCFGR_PLLN) >> RCC_PLLCFGR_PLLN_Pos)))) / (uint64_t)pllm);
 8000b5e:	fba1 0100 	umull	r0, r1, r1, r0
 8000b62:	f7ff fb37 	bl	80001d4 <__aeabi_uldivmod>
      pllp = ((((RCC->PLLCFGR & RCC_PLLCFGR_PLLP) >> RCC_PLLCFGR_PLLP_Pos) + 1U) *2U);
 8000b66:	4b04      	ldr	r3, [pc, #16]	; (8000b78 <HAL_RCC_GetSysClockFreq+0x50>)
 8000b68:	685b      	ldr	r3, [r3, #4]
 8000b6a:	f3c3 4301 	ubfx	r3, r3, #16, #2
 8000b6e:	3301      	adds	r3, #1
 8000b70:	005b      	lsls	r3, r3, #1
      sysclockfreq = pllvco/pllp;
 8000b72:	fbb0 f0f3 	udiv	r0, r0, r3
 8000b76:	bd08      	pop	{r3, pc}
 8000b78:	40023800 	.word	0x40023800
 8000b7c:	00f42400 	.word	0x00f42400
 8000b80:	007a1200 	.word	0x007a1200

08000b84 <HAL_RCC_ClockConfig>:
{
 8000b84:	e92d 41f0 	stmdb	sp!, {r4, r5, r6, r7, r8, lr}
 8000b88:	460d      	mov	r5, r1
  if(RCC_ClkInitStruct == NULL)
 8000b8a:	4604      	mov	r4, r0
 8000b8c:	b910      	cbnz	r0, 8000b94 <HAL_RCC_ClockConfig+0x10>
    return HAL_ERROR;
 8000b8e:	2001      	movs	r0, #1
 8000b90:	e8bd 81f0 	ldmia.w	sp!, {r4, r5, r6, r7, r8, pc}
  if(FLatency > __HAL_FLASH_GET_LATENCY())
 8000b94:	4b44      	ldr	r3, [pc, #272]	; (8000ca8 <HAL_RCC_ClockConfig+0x124>)
 8000b96:	681a      	ldr	r2, [r3, #0]
 8000b98:	f002 020f 	and.w	r2, r2, #15
 8000b9c:	428a      	cmp	r2, r1
 8000b9e:	d328      	bcc.n	8000bf2 <HAL_RCC_ClockConfig+0x6e>
  if(((RCC_ClkInitStruct->ClockType) & RCC_CLOCKTYPE_HCLK) == RCC_CLOCKTYPE_HCLK)
 8000ba0:	6821      	ldr	r1, [r4, #0]
 8000ba2:	078f      	lsls	r7, r1, #30
 8000ba4:	d42d      	bmi.n	8000c02 <HAL_RCC_ClockConfig+0x7e>
  if(((RCC_ClkInitStruct->ClockType) & RCC_CLOCKTYPE_SYSCLK) == RCC_CLOCKTYPE_SYSCLK)
 8000ba6:	07c8      	lsls	r0, r1, #31
 8000ba8:	d440      	bmi.n	8000c2c <HAL_RCC_ClockConfig+0xa8>
  if(FLatency < __HAL_FLASH_GET_LATENCY())
 8000baa:	4b3f      	ldr	r3, [pc, #252]	; (8000ca8 <HAL_RCC_ClockConfig+0x124>)
 8000bac:	681a      	ldr	r2, [r3, #0]
 8000bae:	f002 020f 	and.w	r2, r2, #15
 8000bb2:	4295      	cmp	r5, r2
 8000bb4:	d366      	bcc.n	8000c84 <HAL_RCC_ClockConfig+0x100>
  if(((RCC_ClkInitStruct->ClockType) & RCC_CLOCKTYPE_PCLK1) == RCC_CLOCKTYPE_PCLK1)
 8000bb6:	6822      	ldr	r2, [r4, #0]
 8000bb8:	0751      	lsls	r1, r2, #29
 8000bba:	d46c      	bmi.n	8000c96 <HAL_RCC_ClockConfig+0x112>
  if(((RCC_ClkInitStruct->ClockType) & RCC_CLOCKTYPE_PCLK2) == RCC_CLOCKTYPE_PCLK2)
 8000bbc:	0713      	lsls	r3, r2, #28
 8000bbe:	d507      	bpl.n	8000bd0 <HAL_RCC_ClockConfig+0x4c>
    MODIFY_REG(RCC->CFGR, RCC_CFGR_PPRE2, ((RCC_ClkInitStruct->APB2CLKDivider) << 3U));
 8000bc0:	4a3a      	ldr	r2, [pc, #232]	; (8000cac <HAL_RCC_ClockConfig+0x128>)
 8000bc2:	6921      	ldr	r1, [r4, #16]
 8000bc4:	6893      	ldr	r3, [r2, #8]
 8000bc6:	f423 4360 	bic.w	r3, r3, #57344	; 0xe000
 8000bca:	ea43 03c1 	orr.w	r3, r3, r1, lsl #3
 8000bce:	6093      	str	r3, [r2, #8]
  SystemCoreClock = HAL_RCC_GetSysClockFreq() >> AHBPrescTable[(RCC->CFGR & RCC_CFGR_HPRE)>> RCC_CFGR_HPRE_Pos];
 8000bd0:	f7ff ffaa 	bl	8000b28 <HAL_RCC_GetSysClockFreq>
 8000bd4:	4b35      	ldr	r3, [pc, #212]	; (8000cac <HAL_RCC_ClockConfig+0x128>)
 8000bd6:	4a36      	ldr	r2, [pc, #216]	; (8000cb0 <HAL_RCC_ClockConfig+0x12c>)
 8000bd8:	689b      	ldr	r3, [r3, #8]
 8000bda:	f3c3 1303 	ubfx	r3, r3, #4, #4
 8000bde:	5cd3      	ldrb	r3, [r2, r3]
 8000be0:	40d8      	lsrs	r0, r3
 8000be2:	4b34      	ldr	r3, [pc, #208]	; (8000cb4 <HAL_RCC_ClockConfig+0x130>)
 8000be4:	6018      	str	r0, [r3, #0]
  HAL_InitTick (TICK_INT_PRIORITY);
 8000be6:	2000      	movs	r0, #0
 8000be8:	f7ff fc7c 	bl	80004e4 <HAL_InitTick>
  return HAL_OK;
 8000bec:	2000      	movs	r0, #0
 8000bee:	e8bd 81f0 	ldmia.w	sp!, {r4, r5, r6, r7, r8, pc}
    __HAL_FLASH_SET_LATENCY(FLatency);
 8000bf2:	b2ca      	uxtb	r2, r1
 8000bf4:	701a      	strb	r2, [r3, #0]
    if(__HAL_FLASH_GET_LATENCY() != FLatency)
 8000bf6:	681b      	ldr	r3, [r3, #0]
 8000bf8:	f003 030f 	and.w	r3, r3, #15
 8000bfc:	4299      	cmp	r1, r3
 8000bfe:	d1c6      	bne.n	8000b8e <HAL_RCC_ClockConfig+0xa>
 8000c00:	e7ce      	b.n	8000ba0 <HAL_RCC_ClockConfig+0x1c>
 8000c02:	4b2a      	ldr	r3, [pc, #168]	; (8000cac <HAL_RCC_ClockConfig+0x128>)
    if(((RCC_ClkInitStruct->ClockType) & RCC_CLOCKTYPE_PCLK1) == RCC_CLOCKTYPE_PCLK1)
 8000c04:	f011 0f04 	tst.w	r1, #4
      MODIFY_REG(RCC->CFGR, RCC_CFGR_PPRE1, RCC_HCLK_DIV16);
 8000c08:	bf1e      	ittt	ne
 8000c0a:	689a      	ldrne	r2, [r3, #8]
 8000c0c:	f442 52e0 	orrne.w	r2, r2, #7168	; 0x1c00
 8000c10:	609a      	strne	r2, [r3, #8]
    if(((RCC_ClkInitStruct->ClockType) & RCC_CLOCKTYPE_PCLK2) == RCC_CLOCKTYPE_PCLK2)
 8000c12:	070e      	lsls	r6, r1, #28
      MODIFY_REG(RCC->CFGR, RCC_CFGR_PPRE2, (RCC_HCLK_DIV16 << 3));
 8000c14:	bf42      	ittt	mi
 8000c16:	689a      	ldrmi	r2, [r3, #8]
 8000c18:	f442 4260 	orrmi.w	r2, r2, #57344	; 0xe000
 8000c1c:	609a      	strmi	r2, [r3, #8]
    MODIFY_REG(RCC->CFGR, RCC_CFGR_HPRE, RCC_ClkInitStruct->AHBCLKDivider);
 8000c1e:	689a      	ldr	r2, [r3, #8]
 8000c20:	68a0      	ldr	r0, [r4, #8]
 8000c22:	f022 02f0 	bic.w	r2, r2, #240	; 0xf0
 8000c26:	4302      	orrs	r2, r0
 8000c28:	609a      	str	r2, [r3, #8]
 8000c2a:	e7bc      	b.n	8000ba6 <HAL_RCC_ClockConfig+0x22>
    if(RCC_ClkInitStruct->SYSCLKSource == RCC_SYSCLKSOURCE_HSE)
 8000c2c:	6862      	ldr	r2, [r4, #4]
 8000c2e:	4b1f      	ldr	r3, [pc, #124]	; (8000cac <HAL_RCC_ClockConfig+0x128>)
 8000c30:	2a01      	cmp	r2, #1
 8000c32:	d11d      	bne.n	8000c70 <HAL_RCC_ClockConfig+0xec>
      if(__HAL_RCC_GET_FLAG(RCC_FLAG_HSERDY) == RESET)
 8000c34:	681b      	ldr	r3, [r3, #0]
 8000c36:	f413 3f00 	tst.w	r3, #131072	; 0x20000
      if(__HAL_RCC_GET_FLAG(RCC_FLAG_HSIRDY) == RESET)
 8000c3a:	d0a8      	beq.n	8000b8e <HAL_RCC_ClockConfig+0xa>
    __HAL_RCC_SYSCLK_CONFIG(RCC_ClkInitStruct->SYSCLKSource);
 8000c3c:	4e1b      	ldr	r6, [pc, #108]	; (8000cac <HAL_RCC_ClockConfig+0x128>)
 8000c3e:	68b3      	ldr	r3, [r6, #8]
 8000c40:	f023 0303 	bic.w	r3, r3, #3
 8000c44:	4313      	orrs	r3, r2
 8000c46:	60b3      	str	r3, [r6, #8]
    tickstart = HAL_GetTick();
 8000c48:	f7ff fc96 	bl	8000578 <HAL_GetTick>
      if ((HAL_GetTick() - tickstart) > CLOCKSWITCH_TIMEOUT_VALUE)
 8000c4c:	f241 3888 	movw	r8, #5000	; 0x1388
    tickstart = HAL_GetTick();
 8000c50:	4607      	mov	r7, r0
    while (__HAL_RCC_GET_SYSCLK_SOURCE() != (RCC_ClkInitStruct->SYSCLKSource << RCC_CFGR_SWS_Pos))
 8000c52:	68b3      	ldr	r3, [r6, #8]
 8000c54:	6862      	ldr	r2, [r4, #4]
 8000c56:	f003 030c 	and.w	r3, r3, #12
 8000c5a:	ebb3 0f82 	cmp.w	r3, r2, lsl #2
 8000c5e:	d0a4      	beq.n	8000baa <HAL_RCC_ClockConfig+0x26>
      if ((HAL_GetTick() - tickstart) > CLOCKSWITCH_TIMEOUT_VALUE)
 8000c60:	f7ff fc8a 	bl	8000578 <HAL_GetTick>
 8000c64:	1bc0      	subs	r0, r0, r7
 8000c66:	4540      	cmp	r0, r8
 8000c68:	d9f3      	bls.n	8000c52 <HAL_RCC_ClockConfig+0xce>
        return HAL_TIMEOUT;
 8000c6a:	2003      	movs	r0, #3
}
 8000c6c:	e8bd 81f0 	ldmia.w	sp!, {r4, r5, r6, r7, r8, pc}
    else if((RCC_ClkInitStruct->SYSCLKSource == RCC_SYSCLKSOURCE_PLLCLK)   ||
 8000c70:	1e91      	subs	r1, r2, #2
 8000c72:	2901      	cmp	r1, #1
      if(__HAL_RCC_GET_FLAG(RCC_FLAG_PLLRDY) == RESET)
 8000c74:	681b      	ldr	r3, [r3, #0]
    else if((RCC_ClkInitStruct->SYSCLKSource == RCC_SYSCLKSOURCE_PLLCLK)   ||
 8000c76:	d802      	bhi.n	8000c7e <HAL_RCC_ClockConfig+0xfa>
      if(__HAL_RCC_GET_FLAG(RCC_FLAG_PLLRDY) == RESET)
 8000c78:	f013 7f00 	tst.w	r3, #33554432	; 0x2000000
 8000c7c:	e7dd      	b.n	8000c3a <HAL_RCC_ClockConfig+0xb6>
      if(__HAL_RCC_GET_FLAG(RCC_FLAG_HSIRDY) == RESET)
 8000c7e:	f013 0f02 	tst.w	r3, #2
 8000c82:	e7da      	b.n	8000c3a <HAL_RCC_ClockConfig+0xb6>
    __HAL_FLASH_SET_LATENCY(FLatency);
 8000c84:	b2ea      	uxtb	r2, r5
 8000c86:	701a      	strb	r2, [r3, #0]
    if(__HAL_FLASH_GET_LATENCY() != FLatency)
 8000c88:	681b      	ldr	r3, [r3, #0]
 8000c8a:	f003 030f 	and.w	r3, r3, #15
 8000c8e:	429d      	cmp	r5, r3
 8000c90:	f47f af7d 	bne.w	8000b8e <HAL_RCC_ClockConfig+0xa>
 8000c94:	e78f      	b.n	8000bb6 <HAL_RCC_ClockConfig+0x32>
    MODIFY_REG(RCC->CFGR, RCC_CFGR_PPRE1, RCC_ClkInitStruct->APB1CLKDivider);
 8000c96:	4905      	ldr	r1, [pc, #20]	; (8000cac <HAL_RCC_ClockConfig+0x128>)
 8000c98:	68e0      	ldr	r0, [r4, #12]
 8000c9a:	688b      	ldr	r3, [r1, #8]
 8000c9c:	f423 53e0 	bic.w	r3, r3, #7168	; 0x1c00
 8000ca0:	4303      	orrs	r3, r0
 8000ca2:	608b      	str	r3, [r1, #8]
 8000ca4:	e78a      	b.n	8000bbc <HAL_RCC_ClockConfig+0x38>
 8000ca6:	bf00      	nop
 8000ca8:	40023c00 	.word	0x40023c00
 8000cac:	40023800 	.word	0x40023800
 8000cb0:	080016b4 	.word	0x080016b4
 8000cb4:	20000008 	.word	0x20000008

08000cb8 <HAL_RCC_GetHCLKFreq>:
  * @retval HCLK frequency
  */
uint32_t HAL_RCC_GetHCLKFreq(void)
{
  return SystemCoreClock;
}
 8000cb8:	4b01      	ldr	r3, [pc, #4]	; (8000cc0 <HAL_RCC_GetHCLKFreq+0x8>)
 8000cba:	6818      	ldr	r0, [r3, #0]
 8000cbc:	4770      	bx	lr
 8000cbe:	bf00      	nop
 8000cc0:	20000008 	.word	0x20000008

08000cc4 <TIM_OC1_SetConfig>:
  uint32_t tmpccmrx = 0U;
  uint32_t tmpccer = 0U;
  uint32_t tmpcr2 = 0U;  

  /* Disable the Channel 1: Reset the CC1E Bit */
  TIMx->CCER &= ~TIM_CCER_CC1E;
 8000cc4:	6a03      	ldr	r3, [r0, #32]
 8000cc6:	f023 0301 	bic.w	r3, r3, #1
 8000cca:	6203      	str	r3, [r0, #32]
  
  /* Get the TIMx CCER register value */
  tmpccer = TIMx->CCER;
 8000ccc:	6a03      	ldr	r3, [r0, #32]
{
 8000cce:	b570      	push	{r4, r5, r6, lr}
  /* Get the TIMx CR2 register value */
  tmpcr2 = TIMx->CR2;
 8000cd0:	6844      	ldr	r4, [r0, #4]
  
  /* Get the TIMx CCMR1 register value */
  tmpccmrx = TIMx->CCMR1;
 8000cd2:	6982      	ldr	r2, [r0, #24]
    
  /* Reset the Output Compare Mode Bits */
  tmpccmrx &= ~TIM_CCMR1_OC1M;
  tmpccmrx &= ~TIM_CCMR1_CC1S;
  /* Select the Output Compare Mode */
  tmpccmrx |= OC_Config->OCMode;
 8000cd4:	680d      	ldr	r5, [r1, #0]
  tmpccmrx &= ~TIM_CCMR1_CC1S;
 8000cd6:	f022 0273 	bic.w	r2, r2, #115	; 0x73
  tmpccmrx |= OC_Config->OCMode;
 8000cda:	432a      	orrs	r2, r5
  
  /* Reset the Output Polarity level */
  tmpccer &= ~TIM_CCER_CC1P;
  /* Set the Output Compare Polarity */
  tmpccer |= OC_Config->OCPolarity;
 8000cdc:	688d      	ldr	r5, [r1, #8]
  tmpccer &= ~TIM_CCER_CC1P;
 8000cde:	f023 0302 	bic.w	r3, r3, #2
  tmpccer |= OC_Config->OCPolarity;
 8000ce2:	432b      	orrs	r3, r5

    
  if(IS_TIM_ADVANCED_INSTANCE(TIMx) != RESET)
 8000ce4:	4d0a      	ldr	r5, [pc, #40]	; (8000d10 <TIM_OC1_SetConfig+0x4c>)
 8000ce6:	42a8      	cmp	r0, r5
 8000ce8:	d10b      	bne.n	8000d02 <TIM_OC1_SetConfig+0x3e>
  {   
    /* Reset the Output N Polarity level */
    tmpccer &= ~TIM_CCER_CC1NP;
    /* Set the Output N Polarity */
    tmpccer |= OC_Config->OCNPolarity;
 8000cea:	68cd      	ldr	r5, [r1, #12]
    tmpcr2 &= ~TIM_CR2_OIS1;
    tmpcr2 &= ~TIM_CR2_OIS1N;
    /* Set the Output Idle state */
    tmpcr2 |= OC_Config->OCIdleState;
    /* Set the Output N Idle state */
    tmpcr2 |= OC_Config->OCNIdleState;
 8000cec:	698e      	ldr	r6, [r1, #24]
    tmpccer &= ~TIM_CCER_CC1NP;
 8000cee:	f023 0308 	bic.w	r3, r3, #8
    tmpccer |= OC_Config->OCNPolarity;
 8000cf2:	432b      	orrs	r3, r5
    tmpcr2 |= OC_Config->OCNIdleState;
 8000cf4:	694d      	ldr	r5, [r1, #20]
    tmpcr2 &= ~TIM_CR2_OIS1N;
 8000cf6:	f424 7440 	bic.w	r4, r4, #768	; 0x300
    tmpcr2 |= OC_Config->OCNIdleState;
 8000cfa:	4335      	orrs	r5, r6
    tmpccer &= ~TIM_CCER_CC1NE;
 8000cfc:	f023 0304 	bic.w	r3, r3, #4
    tmpcr2 |= OC_Config->OCNIdleState;
 8000d00:	432c      	orrs	r4, r5
  }
  /* Write to TIMx CR2 */
  TIMx->CR2 = tmpcr2;
 8000d02:	6044      	str	r4, [r0, #4]
  
  /* Write to TIMx CCMR1 */
  TIMx->CCMR1 = tmpccmrx;
 8000d04:	6182      	str	r2, [r0, #24]
  
  /* Set the Capture Compare Register value */
  TIMx->CCR1 = OC_Config->Pulse;
 8000d06:	684a      	ldr	r2, [r1, #4]
 8000d08:	6342      	str	r2, [r0, #52]	; 0x34
  
  /* Write to TIMx CCER */
  TIMx->CCER = tmpccer;  
 8000d0a:	6203      	str	r3, [r0, #32]
 8000d0c:	bd70      	pop	{r4, r5, r6, pc}
 8000d0e:	bf00      	nop
 8000d10:	40010000 	.word	0x40010000

08000d14 <TIM_OC3_SetConfig>:
  uint32_t tmpccmrx = 0U;
  uint32_t tmpccer = 0U;
  uint32_t tmpcr2 = 0U;   

  /* Disable the Channel 3: Reset the CC2E Bit */
  TIMx->CCER &= ~TIM_CCER_CC3E;
 8000d14:	6a03      	ldr	r3, [r0, #32]
 8000d16:	f423 7380 	bic.w	r3, r3, #256	; 0x100
 8000d1a:	6203      	str	r3, [r0, #32]
  
  /* Get the TIMx CCER register value */
  tmpccer = TIMx->CCER;
 8000d1c:	6a03      	ldr	r3, [r0, #32]
{
 8000d1e:	b570      	push	{r4, r5, r6, lr}
  /* Get the TIMx CR2 register value */
  tmpcr2 = TIMx->CR2;
 8000d20:	6844      	ldr	r4, [r0, #4]
  
  /* Get the TIMx CCMR2 register value */
  tmpccmrx = TIMx->CCMR2;
 8000d22:	69c2      	ldr	r2, [r0, #28]
    
  /* Reset the Output Compare mode and Capture/Compare selection Bits */
  tmpccmrx &= ~TIM_CCMR2_OC3M;
  tmpccmrx &= ~TIM_CCMR2_CC3S;  
  /* Select the Output Compare Mode */
  tmpccmrx |= OC_Config->OCMode;
 8000d24:	680d      	ldr	r5, [r1, #0]
  tmpccmrx &= ~TIM_CCMR2_CC3S;  
 8000d26:	f022 0273 	bic.w	r2, r2, #115	; 0x73
  tmpccmrx |= OC_Config->OCMode;
 8000d2a:	432a      	orrs	r2, r5
  
  /* Reset the Output Polarity level */
  tmpccer &= ~TIM_CCER_CC3P;
  /* Set the Output Compare Polarity */
  tmpccer |= (OC_Config->OCPolarity << 8U);
 8000d2c:	688d      	ldr	r5, [r1, #8]
  tmpccer &= ~TIM_CCER_CC3P;
 8000d2e:	f423 7300 	bic.w	r3, r3, #512	; 0x200
  tmpccer |= (OC_Config->OCPolarity << 8U);
 8000d32:	ea43 2305 	orr.w	r3, r3, r5, lsl #8
    
  if(IS_TIM_ADVANCED_INSTANCE(TIMx) != RESET)
 8000d36:	4d0b      	ldr	r5, [pc, #44]	; (8000d64 <TIM_OC3_SetConfig+0x50>)
 8000d38:	42a8      	cmp	r0, r5
 8000d3a:	d10d      	bne.n	8000d58 <TIM_OC3_SetConfig+0x44>
    assert_param(IS_TIM_OCIDLE_STATE(OC_Config->OCIdleState));
    
    /* Reset the Output N Polarity level */
    tmpccer &= ~TIM_CCER_CC3NP;
    /* Set the Output N Polarity */
    tmpccer |= (OC_Config->OCNPolarity << 8U);
 8000d3c:	68cd      	ldr	r5, [r1, #12]
    tmpcr2 &= ~TIM_CR2_OIS3;
    tmpcr2 &= ~TIM_CR2_OIS3N;
    /* Set the Output Idle state */
    tmpcr2 |= (OC_Config->OCIdleState << 4U);
    /* Set the Output N Idle state */
    tmpcr2 |= (OC_Config->OCNIdleState << 4U);
 8000d3e:	698e      	ldr	r6, [r1, #24]
    tmpccer &= ~TIM_CCER_CC3NP;
 8000d40:	f423 6300 	bic.w	r3, r3, #2048	; 0x800
    tmpccer |= (OC_Config->OCNPolarity << 8U);
 8000d44:	ea43 2305 	orr.w	r3, r3, r5, lsl #8
    tmpcr2 |= (OC_Config->OCIdleState << 4U);
 8000d48:	694d      	ldr	r5, [r1, #20]
    tmpcr2 &= ~TIM_CR2_OIS3N;
 8000d4a:	f424 5440 	bic.w	r4, r4, #12288	; 0x3000
    tmpcr2 |= (OC_Config->OCNIdleState << 4U);
 8000d4e:	4335      	orrs	r5, r6
    tmpccer &= ~TIM_CCER_CC3NE;
 8000d50:	f423 6380 	bic.w	r3, r3, #1024	; 0x400
    tmpcr2 |= (OC_Config->OCNIdleState << 4U);
 8000d54:	ea44 1405 	orr.w	r4, r4, r5, lsl #4
  }
  /* Write to TIMx CR2 */
  TIMx->CR2 = tmpcr2;
 8000d58:	6044      	str	r4, [r0, #4]
  
  /* Write to TIMx CCMR2 */
  TIMx->CCMR2 = tmpccmrx;
 8000d5a:	61c2      	str	r2, [r0, #28]
  
  /* Set the Capture Compare Register value */
  TIMx->CCR3 = OC_Config->Pulse;
 8000d5c:	684a      	ldr	r2, [r1, #4]
 8000d5e:	63c2      	str	r2, [r0, #60]	; 0x3c
  
  /* Write to TIMx CCER */
  TIMx->CCER = tmpccer;
 8000d60:	6203      	str	r3, [r0, #32]
 8000d62:	bd70      	pop	{r4, r5, r6, pc}
 8000d64:	40010000 	.word	0x40010000

08000d68 <TIM_OC4_SetConfig>:
  uint32_t tmpccmrx = 0U;
  uint32_t tmpccer = 0U;
  uint32_t tmpcr2 = 0U;

  /* Disable the Channel 4: Reset the CC4E Bit */
  TIMx->CCER &= ~TIM_CCER_CC4E;
 8000d68:	6a03      	ldr	r3, [r0, #32]
 8000d6a:	f423 5380 	bic.w	r3, r3, #4096	; 0x1000
 8000d6e:	6203      	str	r3, [r0, #32]
  
  /* Get the TIMx CCER register value */
  tmpccer = TIMx->CCER;
 8000d70:	6a03      	ldr	r3, [r0, #32]
{
 8000d72:	b530      	push	{r4, r5, lr}
  /* Get the TIMx CR2 register value */
  tmpcr2 = TIMx->CR2;
 8000d74:	6844      	ldr	r4, [r0, #4]
  
  /* Get the TIMx CCMR2 register value */
  tmpccmrx = TIMx->CCMR2;
 8000d76:	69c2      	ldr	r2, [r0, #28]
  /* Reset the Output Compare mode and Capture/Compare selection Bits */
  tmpccmrx &= ~TIM_CCMR2_OC4M;
  tmpccmrx &= ~TIM_CCMR2_CC4S;
  
  /* Select the Output Compare Mode */
  tmpccmrx |= (OC_Config->OCMode << 8U);
 8000d78:	680d      	ldr	r5, [r1, #0]
  tmpccmrx &= ~TIM_CCMR2_CC4S;
 8000d7a:	f422 42e6 	bic.w	r2, r2, #29440	; 0x7300
  tmpccmrx |= (OC_Config->OCMode << 8U);
 8000d7e:	ea42 2205 	orr.w	r2, r2, r5, lsl #8
  
  /* Reset the Output Polarity level */
  tmpccer &= ~TIM_CCER_CC4P;
  /* Set the Output Compare Polarity */
  tmpccer |= (OC_Config->OCPolarity << 12U);
 8000d82:	688d      	ldr	r5, [r1, #8]
  tmpccer &= ~TIM_CCER_CC4P;
 8000d84:	f423 5300 	bic.w	r3, r3, #8192	; 0x2000
  tmpccer |= (OC_Config->OCPolarity << 12U);
 8000d88:	ea43 3305 	orr.w	r3, r3, r5, lsl #12
   
  /*if((TIMx == TIM1) || (TIMx == TIM8))*/
  if(IS_TIM_ADVANCED_INSTANCE(TIMx) != RESET)
 8000d8c:	4d06      	ldr	r5, [pc, #24]	; (8000da8 <TIM_OC4_SetConfig+0x40>)
 8000d8e:	42a8      	cmp	r0, r5
  {
    assert_param(IS_TIM_OCIDLE_STATE(OC_Config->OCIdleState));
    /* Reset the Output Compare IDLE State */
    tmpcr2 &= ~TIM_CR2_OIS4;
    /* Set the Output Idle state */
    tmpcr2 |= (OC_Config->OCIdleState << 6U);
 8000d90:	bf02      	ittt	eq
 8000d92:	694d      	ldreq	r5, [r1, #20]
    tmpcr2 &= ~TIM_CR2_OIS4;
 8000d94:	f424 4480 	biceq.w	r4, r4, #16384	; 0x4000
    tmpcr2 |= (OC_Config->OCIdleState << 6U);
 8000d98:	ea44 1485 	orreq.w	r4, r4, r5, lsl #6
  }
  /* Write to TIMx CR2 */
  TIMx->CR2 = tmpcr2;
 8000d9c:	6044      	str	r4, [r0, #4]
  
  /* Write to TIMx CCMR2 */  
  TIMx->CCMR2 = tmpccmrx;
 8000d9e:	61c2      	str	r2, [r0, #28]
    
  /* Set the Capture Compare Register value */
  TIMx->CCR4 = OC_Config->Pulse;
 8000da0:	684a      	ldr	r2, [r1, #4]
 8000da2:	6402      	str	r2, [r0, #64]	; 0x40
  
  /* Write to TIMx CCER */
  TIMx->CCER = tmpccer;
 8000da4:	6203      	str	r3, [r0, #32]
 8000da6:	bd30      	pop	{r4, r5, pc}
 8000da8:	40010000 	.word	0x40010000

08000dac <HAL_TIM_PWM_MspInit>:
 8000dac:	4770      	bx	lr

08000dae <HAL_TIM_ConfigClockSource>:
  __HAL_LOCK(htim);
 8000dae:	f890 3038 	ldrb.w	r3, [r0, #56]	; 0x38
 8000db2:	2b01      	cmp	r3, #1
{
 8000db4:	b570      	push	{r4, r5, r6, lr}
 8000db6:	f04f 0302 	mov.w	r3, #2
  __HAL_LOCK(htim);
 8000dba:	d01c      	beq.n	8000df6 <HAL_TIM_ConfigClockSource+0x48>
  htim->State = HAL_TIM_STATE_BUSY;
 8000dbc:	f880 3039 	strb.w	r3, [r0, #57]	; 0x39
  tmpsmcr = htim->Instance->SMCR;
 8000dc0:	6803      	ldr	r3, [r0, #0]
  __HAL_LOCK(htim);
 8000dc2:	2201      	movs	r2, #1
 8000dc4:	f880 2038 	strb.w	r2, [r0, #56]	; 0x38
  tmpsmcr = htim->Instance->SMCR;
 8000dc8:	689a      	ldr	r2, [r3, #8]
  tmpsmcr &= ~(TIM_SMCR_ETF | TIM_SMCR_ETPS | TIM_SMCR_ECE | TIM_SMCR_ETP);
 8000dca:	f422 427f 	bic.w	r2, r2, #65280	; 0xff00
 8000dce:	f022 0277 	bic.w	r2, r2, #119	; 0x77
  htim->Instance->SMCR = tmpsmcr;
 8000dd2:	609a      	str	r2, [r3, #8]
  switch (sClockSourceConfig->ClockSource)
 8000dd4:	680a      	ldr	r2, [r1, #0]
 8000dd6:	2a40      	cmp	r2, #64	; 0x40
 8000dd8:	d079      	beq.n	8000ece <HAL_TIM_ConfigClockSource+0x120>
 8000dda:	d819      	bhi.n	8000e10 <HAL_TIM_ConfigClockSource+0x62>
 8000ddc:	2a10      	cmp	r2, #16
 8000dde:	f000 8093 	beq.w	8000f08 <HAL_TIM_ConfigClockSource+0x15a>
 8000de2:	d80a      	bhi.n	8000dfa <HAL_TIM_ConfigClockSource+0x4c>
 8000de4:	2a00      	cmp	r2, #0
 8000de6:	f000 8089 	beq.w	8000efc <HAL_TIM_ConfigClockSource+0x14e>
  htim->State = HAL_TIM_STATE_READY;
 8000dea:	2301      	movs	r3, #1
 8000dec:	f880 3039 	strb.w	r3, [r0, #57]	; 0x39
  __HAL_UNLOCK(htim);
 8000df0:	2300      	movs	r3, #0
 8000df2:	f880 3038 	strb.w	r3, [r0, #56]	; 0x38
  __HAL_LOCK(htim);
 8000df6:	4618      	mov	r0, r3
}
 8000df8:	bd70      	pop	{r4, r5, r6, pc}
  switch (sClockSourceConfig->ClockSource)
 8000dfa:	2a20      	cmp	r2, #32
 8000dfc:	f000 808a 	beq.w	8000f14 <HAL_TIM_ConfigClockSource+0x166>
 8000e00:	2a30      	cmp	r2, #48	; 0x30
 8000e02:	d1f2      	bne.n	8000dea <HAL_TIM_ConfigClockSource+0x3c>
static void TIM_ITRx_SetConfig(TIM_TypeDef *TIMx, uint16_t TIM_ITRx)
{
  uint32_t tmpsmcr = 0U;
  
   /* Get the TIMx SMCR register value */
   tmpsmcr = TIMx->SMCR;
 8000e04:	689a      	ldr	r2, [r3, #8]
   /* Reset the TS Bits */
   tmpsmcr &= ~TIM_SMCR_TS;
 8000e06:	f022 0270 	bic.w	r2, r2, #112	; 0x70
   /* Set the Input Trigger source and the slave mode*/
   tmpsmcr |= TIM_ITRx | TIM_SLAVEMODE_EXTERNAL1;
 8000e0a:	f042 0237 	orr.w	r2, r2, #55	; 0x37
 8000e0e:	e036      	b.n	8000e7e <HAL_TIM_ConfigClockSource+0xd0>
  switch (sClockSourceConfig->ClockSource)
 8000e10:	2a70      	cmp	r2, #112	; 0x70
 8000e12:	d036      	beq.n	8000e82 <HAL_TIM_ConfigClockSource+0xd4>
 8000e14:	d81b      	bhi.n	8000e4e <HAL_TIM_ConfigClockSource+0xa0>
 8000e16:	2a50      	cmp	r2, #80	; 0x50
 8000e18:	d042      	beq.n	8000ea0 <HAL_TIM_ConfigClockSource+0xf2>
 8000e1a:	2a60      	cmp	r2, #96	; 0x60
 8000e1c:	d1e5      	bne.n	8000dea <HAL_TIM_ConfigClockSource+0x3c>
  TIMx->CCER &= ~TIM_CCER_CC2E;
 8000e1e:	6a1c      	ldr	r4, [r3, #32]
      TIM_TI2_ConfigInputStage(htim->Instance, 
 8000e20:	684d      	ldr	r5, [r1, #4]
 8000e22:	68ce      	ldr	r6, [r1, #12]
  TIMx->CCER &= ~TIM_CCER_CC2E;
 8000e24:	f024 0410 	bic.w	r4, r4, #16
 8000e28:	621c      	str	r4, [r3, #32]
  tmpccmr1 = TIMx->CCMR1;
 8000e2a:	6999      	ldr	r1, [r3, #24]
  tmpccer = TIMx->CCER;
 8000e2c:	6a1a      	ldr	r2, [r3, #32]
  tmpccmr1 &= ~TIM_CCMR1_IC2F;
 8000e2e:	f421 4170 	bic.w	r1, r1, #61440	; 0xf000
  tmpccer &= ~(TIM_CCER_CC2P | TIM_CCER_CC2NP);
 8000e32:	f022 02a0 	bic.w	r2, r2, #160	; 0xa0
  tmpccer |= (TIM_ICPolarity << 4U);
 8000e36:	ea42 1205 	orr.w	r2, r2, r5, lsl #4
  tmpccmr1 |= (TIM_ICFilter << 12U);
 8000e3a:	ea41 3106 	orr.w	r1, r1, r6, lsl #12
  TIMx->CCMR1 = tmpccmr1 ;
 8000e3e:	6199      	str	r1, [r3, #24]
  TIMx->CCER = tmpccer;
 8000e40:	621a      	str	r2, [r3, #32]
   tmpsmcr = TIMx->SMCR;
 8000e42:	689a      	ldr	r2, [r3, #8]
   tmpsmcr &= ~TIM_SMCR_TS;
 8000e44:	f022 0270 	bic.w	r2, r2, #112	; 0x70
   tmpsmcr |= TIM_ITRx | TIM_SLAVEMODE_EXTERNAL1;
 8000e48:	f042 0267 	orr.w	r2, r2, #103	; 0x67
 8000e4c:	e017      	b.n	8000e7e <HAL_TIM_ConfigClockSource+0xd0>
  switch (sClockSourceConfig->ClockSource)
 8000e4e:	f5b2 5f80 	cmp.w	r2, #4096	; 0x1000
 8000e52:	d011      	beq.n	8000e78 <HAL_TIM_ConfigClockSource+0xca>
 8000e54:	f5b2 5f00 	cmp.w	r2, #8192	; 0x2000
 8000e58:	d1c7      	bne.n	8000dea <HAL_TIM_ConfigClockSource+0x3c>

  /* Reset the ETR Bits */
  tmpsmcr &= ~(TIM_SMCR_ETF | TIM_SMCR_ETPS | TIM_SMCR_ECE | TIM_SMCR_ETP);

  /* Set the Prescaler, the Filter value and the Polarity */
  tmpsmcr |= (uint32_t)(TIM_ExtTRGPrescaler | (TIM_ExtTRGPolarity | (ExtTRGFilter << 8)));
 8000e5a:	688a      	ldr	r2, [r1, #8]
 8000e5c:	684d      	ldr	r5, [r1, #4]
  tmpsmcr = TIMx->SMCR;
 8000e5e:	689c      	ldr	r4, [r3, #8]
  tmpsmcr |= (uint32_t)(TIM_ExtTRGPrescaler | (TIM_ExtTRGPolarity | (ExtTRGFilter << 8)));
 8000e60:	68c9      	ldr	r1, [r1, #12]
 8000e62:	432a      	orrs	r2, r5
  tmpsmcr &= ~(TIM_SMCR_ETF | TIM_SMCR_ETPS | TIM_SMCR_ECE | TIM_SMCR_ETP);
 8000e64:	f424 447f 	bic.w	r4, r4, #65280	; 0xff00
  tmpsmcr |= (uint32_t)(TIM_ExtTRGPrescaler | (TIM_ExtTRGPolarity | (ExtTRGFilter << 8)));
 8000e68:	ea42 2201 	orr.w	r2, r2, r1, lsl #8
 8000e6c:	4322      	orrs	r2, r4

  /* Write to TIMx SMCR */
  TIMx->SMCR = tmpsmcr;
 8000e6e:	609a      	str	r2, [r3, #8]
      htim->Instance->SMCR |= TIM_SMCR_ECE;
 8000e70:	689a      	ldr	r2, [r3, #8]
 8000e72:	f442 4280 	orr.w	r2, r2, #16384	; 0x4000
 8000e76:	e002      	b.n	8000e7e <HAL_TIM_ConfigClockSource+0xd0>
      htim->Instance->SMCR &= ~TIM_SMCR_SMS;
 8000e78:	689a      	ldr	r2, [r3, #8]
 8000e7a:	f022 0207 	bic.w	r2, r2, #7
   TIMx->SMCR = tmpsmcr;
 8000e7e:	609a      	str	r2, [r3, #8]
 8000e80:	e7b3      	b.n	8000dea <HAL_TIM_ConfigClockSource+0x3c>
  tmpsmcr |= (uint32_t)(TIM_ExtTRGPrescaler | (TIM_ExtTRGPolarity | (ExtTRGFilter << 8)));
 8000e82:	688a      	ldr	r2, [r1, #8]
 8000e84:	684d      	ldr	r5, [r1, #4]
  tmpsmcr = TIMx->SMCR;
 8000e86:	689c      	ldr	r4, [r3, #8]
  tmpsmcr |= (uint32_t)(TIM_ExtTRGPrescaler | (TIM_ExtTRGPolarity | (ExtTRGFilter << 8)));
 8000e88:	68c9      	ldr	r1, [r1, #12]
 8000e8a:	432a      	orrs	r2, r5
  tmpsmcr &= ~(TIM_SMCR_ETF | TIM_SMCR_ETPS | TIM_SMCR_ECE | TIM_SMCR_ETP);
 8000e8c:	f424 447f 	bic.w	r4, r4, #65280	; 0xff00
  tmpsmcr |= (uint32_t)(TIM_ExtTRGPrescaler | (TIM_ExtTRGPolarity | (ExtTRGFilter << 8)));
 8000e90:	ea42 2201 	orr.w	r2, r2, r1, lsl #8
 8000e94:	4322      	orrs	r2, r4
  TIMx->SMCR = tmpsmcr;
 8000e96:	609a      	str	r2, [r3, #8]
      tmpsmcr = htim->Instance->SMCR;
 8000e98:	689a      	ldr	r2, [r3, #8]
      tmpsmcr |= (TIM_SLAVEMODE_EXTERNAL1 | TIM_CLOCKSOURCE_ETRMODE1);
 8000e9a:	f042 0277 	orr.w	r2, r2, #119	; 0x77
 8000e9e:	e7ee      	b.n	8000e7e <HAL_TIM_ConfigClockSource+0xd0>
      TIM_TI1_ConfigInputStage(htim->Instance, 
 8000ea0:	684c      	ldr	r4, [r1, #4]
 8000ea2:	68ce      	ldr	r6, [r1, #12]
  tmpccer = TIMx->CCER;
 8000ea4:	6a19      	ldr	r1, [r3, #32]
  TIMx->CCER &= ~TIM_CCER_CC1E;
 8000ea6:	6a1d      	ldr	r5, [r3, #32]
 8000ea8:	f025 0501 	bic.w	r5, r5, #1
 8000eac:	621d      	str	r5, [r3, #32]
  tmpccmr1 = TIMx->CCMR1;    
 8000eae:	699a      	ldr	r2, [r3, #24]
  tmpccer &= ~(TIM_CCER_CC1P | TIM_CCER_CC1NP);
 8000eb0:	f021 010a 	bic.w	r1, r1, #10
  tmpccmr1 &= ~TIM_CCMR1_IC1F;
 8000eb4:	f022 02f0 	bic.w	r2, r2, #240	; 0xf0
  tmpccmr1 |= (TIM_ICFilter << 4U);
 8000eb8:	ea42 1206 	orr.w	r2, r2, r6, lsl #4
  tmpccer |= TIM_ICPolarity;
 8000ebc:	4321      	orrs	r1, r4
  TIMx->CCMR1 = tmpccmr1;
 8000ebe:	619a      	str	r2, [r3, #24]
  TIMx->CCER = tmpccer;
 8000ec0:	6219      	str	r1, [r3, #32]
   tmpsmcr = TIMx->SMCR;
 8000ec2:	689a      	ldr	r2, [r3, #8]
   tmpsmcr &= ~TIM_SMCR_TS;
 8000ec4:	f022 0270 	bic.w	r2, r2, #112	; 0x70
   tmpsmcr |= TIM_ITRx | TIM_SLAVEMODE_EXTERNAL1;
 8000ec8:	f042 0257 	orr.w	r2, r2, #87	; 0x57
 8000ecc:	e7d7      	b.n	8000e7e <HAL_TIM_ConfigClockSource+0xd0>
      TIM_TI1_ConfigInputStage(htim->Instance, 
 8000ece:	684c      	ldr	r4, [r1, #4]
 8000ed0:	68ce      	ldr	r6, [r1, #12]
  tmpccer = TIMx->CCER;
 8000ed2:	6a19      	ldr	r1, [r3, #32]
  TIMx->CCER &= ~TIM_CCER_CC1E;
 8000ed4:	6a1d      	ldr	r5, [r3, #32]
 8000ed6:	f025 0501 	bic.w	r5, r5, #1
 8000eda:	621d      	str	r5, [r3, #32]
  tmpccmr1 = TIMx->CCMR1;    
 8000edc:	699a      	ldr	r2, [r3, #24]
  tmpccer &= ~(TIM_CCER_CC1P | TIM_CCER_CC1NP);
 8000ede:	f021 010a 	bic.w	r1, r1, #10
  tmpccmr1 &= ~TIM_CCMR1_IC1F;
 8000ee2:	f022 02f0 	bic.w	r2, r2, #240	; 0xf0
  tmpccmr1 |= (TIM_ICFilter << 4U);
 8000ee6:	ea42 1206 	orr.w	r2, r2, r6, lsl #4
  tmpccer |= TIM_ICPolarity;
 8000eea:	4321      	orrs	r1, r4
  TIMx->CCMR1 = tmpccmr1;
 8000eec:	619a      	str	r2, [r3, #24]
  TIMx->CCER = tmpccer;
 8000eee:	6219      	str	r1, [r3, #32]
   tmpsmcr = TIMx->SMCR;
 8000ef0:	689a      	ldr	r2, [r3, #8]
   tmpsmcr &= ~TIM_SMCR_TS;
 8000ef2:	f022 0270 	bic.w	r2, r2, #112	; 0x70
   tmpsmcr |= TIM_ITRx | TIM_SLAVEMODE_EXTERNAL1;
 8000ef6:	f042 0247 	orr.w	r2, r2, #71	; 0x47
 8000efa:	e7c0      	b.n	8000e7e <HAL_TIM_ConfigClockSource+0xd0>
   tmpsmcr = TIMx->SMCR;
 8000efc:	689a      	ldr	r2, [r3, #8]
   tmpsmcr &= ~TIM_SMCR_TS;
 8000efe:	f022 0270 	bic.w	r2, r2, #112	; 0x70
   tmpsmcr |= TIM_ITRx | TIM_SLAVEMODE_EXTERNAL1;
 8000f02:	f042 0207 	orr.w	r2, r2, #7
 8000f06:	e7ba      	b.n	8000e7e <HAL_TIM_ConfigClockSource+0xd0>
   tmpsmcr = TIMx->SMCR;
 8000f08:	689a      	ldr	r2, [r3, #8]
   tmpsmcr &= ~TIM_SMCR_TS;
 8000f0a:	f022 0270 	bic.w	r2, r2, #112	; 0x70
   tmpsmcr |= TIM_ITRx | TIM_SLAVEMODE_EXTERNAL1;
 8000f0e:	f042 0217 	orr.w	r2, r2, #23
 8000f12:	e7b4      	b.n	8000e7e <HAL_TIM_ConfigClockSource+0xd0>
   tmpsmcr = TIMx->SMCR;
 8000f14:	689a      	ldr	r2, [r3, #8]
   tmpsmcr &= ~TIM_SMCR_TS;
 8000f16:	f022 0270 	bic.w	r2, r2, #112	; 0x70
   tmpsmcr |= TIM_ITRx | TIM_SLAVEMODE_EXTERNAL1;
 8000f1a:	f042 0227 	orr.w	r2, r2, #39	; 0x27
 8000f1e:	e7ae      	b.n	8000e7e <HAL_TIM_ConfigClockSource+0xd0>

08000f20 <HAL_TIM_PeriodElapsedCallback>:
 8000f20:	4770      	bx	lr

08000f22 <HAL_TIM_OC_DelayElapsedCallback>:
 8000f22:	4770      	bx	lr

08000f24 <HAL_TIM_IC_CaptureCallback>:
 8000f24:	4770      	bx	lr

08000f26 <HAL_TIM_PWM_PulseFinishedCallback>:
 8000f26:	4770      	bx	lr

08000f28 <HAL_TIM_TriggerCallback>:
 8000f28:	4770      	bx	lr

08000f2a <HAL_TIM_IRQHandler>:
  if(__HAL_TIM_GET_FLAG(htim, TIM_FLAG_CC1) != RESET)
 8000f2a:	6803      	ldr	r3, [r0, #0]
 8000f2c:	691a      	ldr	r2, [r3, #16]
 8000f2e:	0791      	lsls	r1, r2, #30
{
 8000f30:	b510      	push	{r4, lr}
 8000f32:	4604      	mov	r4, r0
  if(__HAL_TIM_GET_FLAG(htim, TIM_FLAG_CC1) != RESET)
 8000f34:	d50e      	bpl.n	8000f54 <HAL_TIM_IRQHandler+0x2a>
    if(__HAL_TIM_GET_IT_SOURCE(htim, TIM_IT_CC1) !=RESET)
 8000f36:	68da      	ldr	r2, [r3, #12]
 8000f38:	0792      	lsls	r2, r2, #30
 8000f3a:	d50b      	bpl.n	8000f54 <HAL_TIM_IRQHandler+0x2a>
        __HAL_TIM_CLEAR_IT(htim, TIM_IT_CC1);
 8000f3c:	f06f 0202 	mvn.w	r2, #2
 8000f40:	611a      	str	r2, [r3, #16]
        if((htim->Instance->CCMR1 & TIM_CCMR1_CC1S) != 0x00U)
 8000f42:	699b      	ldr	r3, [r3, #24]
        htim->Channel = HAL_TIM_ACTIVE_CHANNEL_1;
 8000f44:	2201      	movs	r2, #1
        if((htim->Instance->CCMR1 & TIM_CCMR1_CC1S) != 0x00U)
 8000f46:	079b      	lsls	r3, r3, #30
        htim->Channel = HAL_TIM_ACTIVE_CHANNEL_1;
 8000f48:	7602      	strb	r2, [r0, #24]
        if((htim->Instance->CCMR1 & TIM_CCMR1_CC1S) != 0x00U)
 8000f4a:	d077      	beq.n	800103c <HAL_TIM_IRQHandler+0x112>
          HAL_TIM_IC_CaptureCallback(htim);
 8000f4c:	f7ff ffea 	bl	8000f24 <HAL_TIM_IC_CaptureCallback>
        htim->Channel = HAL_TIM_ACTIVE_CHANNEL_CLEARED;
 8000f50:	2300      	movs	r3, #0
 8000f52:	7623      	strb	r3, [r4, #24]
  if(__HAL_TIM_GET_FLAG(htim, TIM_FLAG_CC2) != RESET)
 8000f54:	6823      	ldr	r3, [r4, #0]
 8000f56:	691a      	ldr	r2, [r3, #16]
 8000f58:	0750      	lsls	r0, r2, #29
 8000f5a:	d510      	bpl.n	8000f7e <HAL_TIM_IRQHandler+0x54>
    if(__HAL_TIM_GET_IT_SOURCE(htim, TIM_IT_CC2) !=RESET)
 8000f5c:	68da      	ldr	r2, [r3, #12]
 8000f5e:	0751      	lsls	r1, r2, #29
 8000f60:	d50d      	bpl.n	8000f7e <HAL_TIM_IRQHandler+0x54>
      __HAL_TIM_CLEAR_IT(htim, TIM_IT_CC2);
 8000f62:	f06f 0204 	mvn.w	r2, #4
 8000f66:	611a      	str	r2, [r3, #16]
      if((htim->Instance->CCMR1 & TIM_CCMR1_CC2S) != 0x00U)
 8000f68:	699b      	ldr	r3, [r3, #24]
      htim->Channel = HAL_TIM_ACTIVE_CHANNEL_2;
 8000f6a:	2202      	movs	r2, #2
      if((htim->Instance->CCMR1 & TIM_CCMR1_CC2S) != 0x00U)
 8000f6c:	f413 7f40 	tst.w	r3, #768	; 0x300
      htim->Channel = HAL_TIM_ACTIVE_CHANNEL_2;
 8000f70:	7622      	strb	r2, [r4, #24]
        HAL_TIM_IC_CaptureCallback(htim);
 8000f72:	4620      	mov	r0, r4
      if((htim->Instance->CCMR1 & TIM_CCMR1_CC2S) != 0x00U)
 8000f74:	d068      	beq.n	8001048 <HAL_TIM_IRQHandler+0x11e>
        HAL_TIM_IC_CaptureCallback(htim);
 8000f76:	f7ff ffd5 	bl	8000f24 <HAL_TIM_IC_CaptureCallback>
      htim->Channel = HAL_TIM_ACTIVE_CHANNEL_CLEARED;
 8000f7a:	2300      	movs	r3, #0
 8000f7c:	7623      	strb	r3, [r4, #24]
  if(__HAL_TIM_GET_FLAG(htim, TIM_FLAG_CC3) != RESET)
 8000f7e:	6823      	ldr	r3, [r4, #0]
 8000f80:	691a      	ldr	r2, [r3, #16]
 8000f82:	0712      	lsls	r2, r2, #28
 8000f84:	d50f      	bpl.n	8000fa6 <HAL_TIM_IRQHandler+0x7c>
    if(__HAL_TIM_GET_IT_SOURCE(htim, TIM_IT_CC3) !=RESET)
 8000f86:	68da      	ldr	r2, [r3, #12]
 8000f88:	0710      	lsls	r0, r2, #28
 8000f8a:	d50c      	bpl.n	8000fa6 <HAL_TIM_IRQHandler+0x7c>
      __HAL_TIM_CLEAR_IT(htim, TIM_IT_CC3);
 8000f8c:	f06f 0208 	mvn.w	r2, #8
 8000f90:	611a      	str	r2, [r3, #16]
      if((htim->Instance->CCMR2 & TIM_CCMR2_CC3S) != 0x00U)
 8000f92:	69db      	ldr	r3, [r3, #28]
      htim->Channel = HAL_TIM_ACTIVE_CHANNEL_3;
 8000f94:	2204      	movs	r2, #4
      if((htim->Instance->CCMR2 & TIM_CCMR2_CC3S) != 0x00U)
 8000f96:	0799      	lsls	r1, r3, #30
      htim->Channel = HAL_TIM_ACTIVE_CHANNEL_3;
 8000f98:	7622      	strb	r2, [r4, #24]
        HAL_TIM_IC_CaptureCallback(htim);
 8000f9a:	4620      	mov	r0, r4
      if((htim->Instance->CCMR2 & TIM_CCMR2_CC3S) != 0x00U)
 8000f9c:	d05a      	beq.n	8001054 <HAL_TIM_IRQHandler+0x12a>
        HAL_TIM_IC_CaptureCallback(htim);
 8000f9e:	f7ff ffc1 	bl	8000f24 <HAL_TIM_IC_CaptureCallback>
      htim->Channel = HAL_TIM_ACTIVE_CHANNEL_CLEARED;
 8000fa2:	2300      	movs	r3, #0
 8000fa4:	7623      	strb	r3, [r4, #24]
  if(__HAL_TIM_GET_FLAG(htim, TIM_FLAG_CC4) != RESET)
 8000fa6:	6823      	ldr	r3, [r4, #0]
 8000fa8:	691a      	ldr	r2, [r3, #16]
 8000faa:	06d2      	lsls	r2, r2, #27
 8000fac:	d510      	bpl.n	8000fd0 <HAL_TIM_IRQHandler+0xa6>
    if(__HAL_TIM_GET_IT_SOURCE(htim, TIM_IT_CC4) !=RESET)
 8000fae:	68da      	ldr	r2, [r3, #12]
 8000fb0:	06d0      	lsls	r0, r2, #27
 8000fb2:	d50d      	bpl.n	8000fd0 <HAL_TIM_IRQHandler+0xa6>
      __HAL_TIM_CLEAR_IT(htim, TIM_IT_CC4);
 8000fb4:	f06f 0210 	mvn.w	r2, #16
 8000fb8:	611a      	str	r2, [r3, #16]
      if((htim->Instance->CCMR2 & TIM_CCMR2_CC4S) != 0x00U)
 8000fba:	69db      	ldr	r3, [r3, #28]
      htim->Channel = HAL_TIM_ACTIVE_CHANNEL_4;
 8000fbc:	2208      	movs	r2, #8
      if((htim->Instance->CCMR2 & TIM_CCMR2_CC4S) != 0x00U)
 8000fbe:	f413 7f40 	tst.w	r3, #768	; 0x300
      htim->Channel = HAL_TIM_ACTIVE_CHANNEL_4;
 8000fc2:	7622      	strb	r2, [r4, #24]
        HAL_TIM_IC_CaptureCallback(htim);
 8000fc4:	4620      	mov	r0, r4
      if((htim->Instance->CCMR2 & TIM_CCMR2_CC4S) != 0x00U)
 8000fc6:	d04b      	beq.n	8001060 <HAL_TIM_IRQHandler+0x136>
        HAL_TIM_IC_CaptureCallback(htim);
 8000fc8:	f7ff ffac 	bl	8000f24 <HAL_TIM_IC_CaptureCallback>
      htim->Channel = HAL_TIM_ACTIVE_CHANNEL_CLEARED;
 8000fcc:	2300      	movs	r3, #0
 8000fce:	7623      	strb	r3, [r4, #24]
  if(__HAL_TIM_GET_FLAG(htim, TIM_FLAG_UPDATE) != RESET)
 8000fd0:	6823      	ldr	r3, [r4, #0]
 8000fd2:	691a      	ldr	r2, [r3, #16]
 8000fd4:	07d1      	lsls	r1, r2, #31
 8000fd6:	d508      	bpl.n	8000fea <HAL_TIM_IRQHandler+0xc0>
    if(__HAL_TIM_GET_IT_SOURCE(htim, TIM_IT_UPDATE) !=RESET)
 8000fd8:	68da      	ldr	r2, [r3, #12]
 8000fda:	07d2      	lsls	r2, r2, #31
 8000fdc:	d505      	bpl.n	8000fea <HAL_TIM_IRQHandler+0xc0>
      __HAL_TIM_CLEAR_IT(htim, TIM_IT_UPDATE);
 8000fde:	f06f 0201 	mvn.w	r2, #1
 8000fe2:	611a      	str	r2, [r3, #16]
      HAL_TIM_PeriodElapsedCallback(htim);
 8000fe4:	4620      	mov	r0, r4
 8000fe6:	f7ff ff9b 	bl	8000f20 <HAL_TIM_PeriodElapsedCallback>
  if(__HAL_TIM_GET_FLAG(htim, TIM_FLAG_BREAK) != RESET)
 8000fea:	6823      	ldr	r3, [r4, #0]
 8000fec:	691a      	ldr	r2, [r3, #16]
 8000fee:	0610      	lsls	r0, r2, #24
 8000ff0:	d508      	bpl.n	8001004 <HAL_TIM_IRQHandler+0xda>
    if(__HAL_TIM_GET_IT_SOURCE(htim, TIM_IT_BREAK) !=RESET)
 8000ff2:	68da      	ldr	r2, [r3, #12]
 8000ff4:	0611      	lsls	r1, r2, #24
 8000ff6:	d505      	bpl.n	8001004 <HAL_TIM_IRQHandler+0xda>
      __HAL_TIM_CLEAR_IT(htim, TIM_IT_BREAK);
 8000ff8:	f06f 0280 	mvn.w	r2, #128	; 0x80
 8000ffc:	611a      	str	r2, [r3, #16]
      HAL_TIMEx_BreakCallback(htim);
 8000ffe:	4620      	mov	r0, r4
 8001000:	f000 f989 	bl	8001316 <HAL_TIMEx_BreakCallback>
  if(__HAL_TIM_GET_FLAG(htim, TIM_FLAG_TRIGGER) != RESET)
 8001004:	6823      	ldr	r3, [r4, #0]
 8001006:	691a      	ldr	r2, [r3, #16]
 8001008:	0652      	lsls	r2, r2, #25
 800100a:	d508      	bpl.n	800101e <HAL_TIM_IRQHandler+0xf4>
    if(__HAL_TIM_GET_IT_SOURCE(htim, TIM_IT_TRIGGER) !=RESET)
 800100c:	68da      	ldr	r2, [r3, #12]
 800100e:	0650      	lsls	r0, r2, #25
 8001010:	d505      	bpl.n	800101e <HAL_TIM_IRQHandler+0xf4>
      __HAL_TIM_CLEAR_IT(htim, TIM_IT_TRIGGER);
 8001012:	f06f 0240 	mvn.w	r2, #64	; 0x40
 8001016:	611a      	str	r2, [r3, #16]
      HAL_TIM_TriggerCallback(htim);
 8001018:	4620      	mov	r0, r4
 800101a:	f7ff ff85 	bl	8000f28 <HAL_TIM_TriggerCallback>
  if(__HAL_TIM_GET_FLAG(htim, TIM_FLAG_COM) != RESET)
 800101e:	6823      	ldr	r3, [r4, #0]
 8001020:	691a      	ldr	r2, [r3, #16]
 8001022:	0691      	lsls	r1, r2, #26
 8001024:	d522      	bpl.n	800106c <HAL_TIM_IRQHandler+0x142>
    if(__HAL_TIM_GET_IT_SOURCE(htim, TIM_IT_COM) !=RESET)
 8001026:	68da      	ldr	r2, [r3, #12]
 8001028:	0692      	lsls	r2, r2, #26
 800102a:	d51f      	bpl.n	800106c <HAL_TIM_IRQHandler+0x142>
      __HAL_TIM_CLEAR_IT(htim, TIM_FLAG_COM);
 800102c:	f06f 0220 	mvn.w	r2, #32
      HAL_TIMEx_CommutationCallback(htim);
 8001030:	4620      	mov	r0, r4
      __HAL_TIM_CLEAR_IT(htim, TIM_FLAG_COM);
 8001032:	611a      	str	r2, [r3, #16]
}
 8001034:	e8bd 4010 	ldmia.w	sp!, {r4, lr}
      HAL_TIMEx_CommutationCallback(htim);
 8001038:	f000 b96c 	b.w	8001314 <HAL_TIMEx_CommutationCallback>
          HAL_TIM_OC_DelayElapsedCallback(htim);
 800103c:	f7ff ff71 	bl	8000f22 <HAL_TIM_OC_DelayElapsedCallback>
          HAL_TIM_PWM_PulseFinishedCallback(htim);
 8001040:	4620      	mov	r0, r4
 8001042:	f7ff ff70 	bl	8000f26 <HAL_TIM_PWM_PulseFinishedCallback>
 8001046:	e783      	b.n	8000f50 <HAL_TIM_IRQHandler+0x26>
        HAL_TIM_OC_DelayElapsedCallback(htim);
 8001048:	f7ff ff6b 	bl	8000f22 <HAL_TIM_OC_DelayElapsedCallback>
        HAL_TIM_PWM_PulseFinishedCallback(htim);
 800104c:	4620      	mov	r0, r4
 800104e:	f7ff ff6a 	bl	8000f26 <HAL_TIM_PWM_PulseFinishedCallback>
 8001052:	e792      	b.n	8000f7a <HAL_TIM_IRQHandler+0x50>
        HAL_TIM_OC_DelayElapsedCallback(htim);
 8001054:	f7ff ff65 	bl	8000f22 <HAL_TIM_OC_DelayElapsedCallback>
        HAL_TIM_PWM_PulseFinishedCallback(htim); 
 8001058:	4620      	mov	r0, r4
 800105a:	f7ff ff64 	bl	8000f26 <HAL_TIM_PWM_PulseFinishedCallback>
 800105e:	e7a0      	b.n	8000fa2 <HAL_TIM_IRQHandler+0x78>
        HAL_TIM_OC_DelayElapsedCallback(htim);
 8001060:	f7ff ff5f 	bl	8000f22 <HAL_TIM_OC_DelayElapsedCallback>
        HAL_TIM_PWM_PulseFinishedCallback(htim);
 8001064:	4620      	mov	r0, r4
 8001066:	f7ff ff5e 	bl	8000f26 <HAL_TIM_PWM_PulseFinishedCallback>
 800106a:	e7af      	b.n	8000fcc <HAL_TIM_IRQHandler+0xa2>
 800106c:	bd10      	pop	{r4, pc}
	...

08001070 <TIM_Base_SetConfig>:
  if(IS_TIM_CC3_INSTANCE(TIMx) != RESET)   
 8001070:	4a22      	ldr	r2, [pc, #136]	; (80010fc <TIM_Base_SetConfig+0x8c>)
  tmpcr1 = TIMx->CR1;
 8001072:	6803      	ldr	r3, [r0, #0]
  if(IS_TIM_CC3_INSTANCE(TIMx) != RESET)   
 8001074:	4290      	cmp	r0, r2
 8001076:	d00e      	beq.n	8001096 <TIM_Base_SetConfig+0x26>
 8001078:	f1b0 4f80 	cmp.w	r0, #1073741824	; 0x40000000
 800107c:	d00b      	beq.n	8001096 <TIM_Base_SetConfig+0x26>
 800107e:	f5a2 427c 	sub.w	r2, r2, #64512	; 0xfc00
 8001082:	4290      	cmp	r0, r2
 8001084:	d007      	beq.n	8001096 <TIM_Base_SetConfig+0x26>
 8001086:	f502 6280 	add.w	r2, r2, #1024	; 0x400
 800108a:	4290      	cmp	r0, r2
 800108c:	d003      	beq.n	8001096 <TIM_Base_SetConfig+0x26>
 800108e:	f502 6280 	add.w	r2, r2, #1024	; 0x400
 8001092:	4290      	cmp	r0, r2
 8001094:	d119      	bne.n	80010ca <TIM_Base_SetConfig+0x5a>
    tmpcr1 |= Structure->CounterMode;
 8001096:	684a      	ldr	r2, [r1, #4]
    tmpcr1 &= ~(TIM_CR1_DIR | TIM_CR1_CMS);
 8001098:	f023 0370 	bic.w	r3, r3, #112	; 0x70
    tmpcr1 |= Structure->CounterMode;
 800109c:	4313      	orrs	r3, r2
  if(IS_TIM_CC1_INSTANCE(TIMx) != RESET)  
 800109e:	4a17      	ldr	r2, [pc, #92]	; (80010fc <TIM_Base_SetConfig+0x8c>)
 80010a0:	4290      	cmp	r0, r2
 80010a2:	d104      	bne.n	80010ae <TIM_Base_SetConfig+0x3e>
    tmpcr1 |= (uint32_t)Structure->ClockDivision;
 80010a4:	68ca      	ldr	r2, [r1, #12]
    tmpcr1 &= ~TIM_CR1_CKD;
 80010a6:	f423 7340 	bic.w	r3, r3, #768	; 0x300
    tmpcr1 |= (uint32_t)Structure->ClockDivision;
 80010aa:	4313      	orrs	r3, r2
 80010ac:	e018      	b.n	80010e0 <TIM_Base_SetConfig+0x70>
  if(IS_TIM_CC1_INSTANCE(TIMx) != RESET)  
 80010ae:	f1b0 4f80 	cmp.w	r0, #1073741824	; 0x40000000
 80010b2:	d0f7      	beq.n	80010a4 <TIM_Base_SetConfig+0x34>
 80010b4:	4a12      	ldr	r2, [pc, #72]	; (8001100 <TIM_Base_SetConfig+0x90>)
 80010b6:	4290      	cmp	r0, r2
 80010b8:	d0f4      	beq.n	80010a4 <TIM_Base_SetConfig+0x34>
 80010ba:	f502 6280 	add.w	r2, r2, #1024	; 0x400
 80010be:	4290      	cmp	r0, r2
 80010c0:	d0f0      	beq.n	80010a4 <TIM_Base_SetConfig+0x34>
 80010c2:	f502 6280 	add.w	r2, r2, #1024	; 0x400
 80010c6:	4290      	cmp	r0, r2
 80010c8:	d0ec      	beq.n	80010a4 <TIM_Base_SetConfig+0x34>
 80010ca:	4a0e      	ldr	r2, [pc, #56]	; (8001104 <TIM_Base_SetConfig+0x94>)
 80010cc:	4290      	cmp	r0, r2
 80010ce:	d0e9      	beq.n	80010a4 <TIM_Base_SetConfig+0x34>
 80010d0:	f502 6280 	add.w	r2, r2, #1024	; 0x400
 80010d4:	4290      	cmp	r0, r2
 80010d6:	d0e5      	beq.n	80010a4 <TIM_Base_SetConfig+0x34>
 80010d8:	f502 6280 	add.w	r2, r2, #1024	; 0x400
 80010dc:	4290      	cmp	r0, r2
 80010de:	d0e1      	beq.n	80010a4 <TIM_Base_SetConfig+0x34>
  TIMx->CR1 = tmpcr1;
 80010e0:	6003      	str	r3, [r0, #0]
  TIMx->ARR = (uint32_t)Structure->Period ;
 80010e2:	688b      	ldr	r3, [r1, #8]
 80010e4:	62c3      	str	r3, [r0, #44]	; 0x2c
  TIMx->PSC = (uint32_t)Structure->Prescaler;
 80010e6:	680b      	ldr	r3, [r1, #0]
 80010e8:	6283      	str	r3, [r0, #40]	; 0x28
  if(IS_TIM_ADVANCED_INSTANCE(TIMx) != RESET)  
 80010ea:	4b04      	ldr	r3, [pc, #16]	; (80010fc <TIM_Base_SetConfig+0x8c>)
 80010ec:	4298      	cmp	r0, r3
    TIMx->RCR = Structure->RepetitionCounter;
 80010ee:	bf04      	itt	eq
 80010f0:	690b      	ldreq	r3, [r1, #16]
 80010f2:	6303      	streq	r3, [r0, #48]	; 0x30
  TIMx->EGR = TIM_EGR_UG;
 80010f4:	2301      	movs	r3, #1
 80010f6:	6143      	str	r3, [r0, #20]
}
 80010f8:	4770      	bx	lr
 80010fa:	bf00      	nop
 80010fc:	40010000 	.word	0x40010000
 8001100:	40000400 	.word	0x40000400
 8001104:	40014000 	.word	0x40014000

08001108 <HAL_TIM_Base_Init>:
{ 
 8001108:	b510      	push	{r4, lr}
  if(htim == NULL)
 800110a:	4604      	mov	r4, r0
 800110c:	b1a0      	cbz	r0, 8001138 <HAL_TIM_Base_Init+0x30>
  if(htim->State == HAL_TIM_STATE_RESET)
 800110e:	f890 3039 	ldrb.w	r3, [r0, #57]	; 0x39
 8001112:	f003 02ff 	and.w	r2, r3, #255	; 0xff
 8001116:	b91b      	cbnz	r3, 8001120 <HAL_TIM_Base_Init+0x18>
    htim->Lock = HAL_UNLOCKED;
 8001118:	f880 2038 	strb.w	r2, [r0, #56]	; 0x38
    HAL_TIM_Base_MspInit(htim);
 800111c:	f000 fa06 	bl	800152c <HAL_TIM_Base_MspInit>
  htim->State= HAL_TIM_STATE_BUSY;
 8001120:	2302      	movs	r3, #2
 8001122:	f884 3039 	strb.w	r3, [r4, #57]	; 0x39
  TIM_Base_SetConfig(htim->Instance, &htim->Init); 
 8001126:	6820      	ldr	r0, [r4, #0]
 8001128:	1d21      	adds	r1, r4, #4
 800112a:	f7ff ffa1 	bl	8001070 <TIM_Base_SetConfig>
  htim->State= HAL_TIM_STATE_READY;
 800112e:	2301      	movs	r3, #1
 8001130:	f884 3039 	strb.w	r3, [r4, #57]	; 0x39
  return HAL_OK;
 8001134:	2000      	movs	r0, #0
 8001136:	bd10      	pop	{r4, pc}
    return HAL_ERROR;
 8001138:	2001      	movs	r0, #1
}
 800113a:	bd10      	pop	{r4, pc}

0800113c <HAL_TIM_PWM_Init>:
{
 800113c:	b510      	push	{r4, lr}
  if(htim == NULL)
 800113e:	4604      	mov	r4, r0
 8001140:	b1a0      	cbz	r0, 800116c <HAL_TIM_PWM_Init+0x30>
  if(htim->State == HAL_TIM_STATE_RESET)
 8001142:	f890 3039 	ldrb.w	r3, [r0, #57]	; 0x39
 8001146:	f003 02ff 	and.w	r2, r3, #255	; 0xff
 800114a:	b91b      	cbnz	r3, 8001154 <HAL_TIM_PWM_Init+0x18>
    htim->Lock = HAL_UNLOCKED;
 800114c:	f880 2038 	strb.w	r2, [r0, #56]	; 0x38
    HAL_TIM_PWM_MspInit(htim);
 8001150:	f7ff fe2c 	bl	8000dac <HAL_TIM_PWM_MspInit>
  htim->State= HAL_TIM_STATE_BUSY;  
 8001154:	2302      	movs	r3, #2
 8001156:	f884 3039 	strb.w	r3, [r4, #57]	; 0x39
  TIM_Base_SetConfig(htim->Instance, &htim->Init); 
 800115a:	6820      	ldr	r0, [r4, #0]
 800115c:	1d21      	adds	r1, r4, #4
 800115e:	f7ff ff87 	bl	8001070 <TIM_Base_SetConfig>
  htim->State= HAL_TIM_STATE_READY;
 8001162:	2301      	movs	r3, #1
 8001164:	f884 3039 	strb.w	r3, [r4, #57]	; 0x39
  return HAL_OK;
 8001168:	2000      	movs	r0, #0
 800116a:	bd10      	pop	{r4, pc}
    return HAL_ERROR;
 800116c:	2001      	movs	r0, #1
}  
 800116e:	bd10      	pop	{r4, pc}

08001170 <TIM_OC2_SetConfig>:
  TIMx->CCER &= ~TIM_CCER_CC2E;
 8001170:	6a03      	ldr	r3, [r0, #32]
 8001172:	f023 0310 	bic.w	r3, r3, #16
 8001176:	6203      	str	r3, [r0, #32]
  tmpccer = TIMx->CCER;
 8001178:	6a03      	ldr	r3, [r0, #32]
{
 800117a:	b570      	push	{r4, r5, r6, lr}
  tmpcr2 = TIMx->CR2;
 800117c:	6844      	ldr	r4, [r0, #4]
  tmpccmrx = TIMx->CCMR1;
 800117e:	6982      	ldr	r2, [r0, #24]
  tmpccmrx |= (OC_Config->OCMode << 8U);
 8001180:	680d      	ldr	r5, [r1, #0]
  tmpccmrx &= ~TIM_CCMR1_CC2S;
 8001182:	f422 42e6 	bic.w	r2, r2, #29440	; 0x7300
  tmpccmrx |= (OC_Config->OCMode << 8U);
 8001186:	ea42 2205 	orr.w	r2, r2, r5, lsl #8
  tmpccer |= (OC_Config->OCPolarity << 4U);
 800118a:	688d      	ldr	r5, [r1, #8]
  tmpccer &= ~TIM_CCER_CC2P;
 800118c:	f023 0320 	bic.w	r3, r3, #32
  tmpccer |= (OC_Config->OCPolarity << 4U);
 8001190:	ea43 1305 	orr.w	r3, r3, r5, lsl #4
  if(IS_TIM_ADVANCED_INSTANCE(TIMx) != RESET)
 8001194:	4d0b      	ldr	r5, [pc, #44]	; (80011c4 <TIM_OC2_SetConfig+0x54>)
 8001196:	42a8      	cmp	r0, r5
 8001198:	d10d      	bne.n	80011b6 <TIM_OC2_SetConfig+0x46>
    tmpccer |= (OC_Config->OCNPolarity << 4U);
 800119a:	68cd      	ldr	r5, [r1, #12]
    tmpcr2 |= (OC_Config->OCNIdleState << 2U);
 800119c:	698e      	ldr	r6, [r1, #24]
    tmpccer &= ~TIM_CCER_CC2NP;
 800119e:	f023 0380 	bic.w	r3, r3, #128	; 0x80
    tmpccer |= (OC_Config->OCNPolarity << 4U);
 80011a2:	ea43 1305 	orr.w	r3, r3, r5, lsl #4
    tmpcr2 |= (OC_Config->OCIdleState << 2U);
 80011a6:	694d      	ldr	r5, [r1, #20]
    tmpcr2 &= ~TIM_CR2_OIS2N;
 80011a8:	f424 6440 	bic.w	r4, r4, #3072	; 0xc00
    tmpcr2 |= (OC_Config->OCNIdleState << 2U);
 80011ac:	4335      	orrs	r5, r6
    tmpccer &= ~TIM_CCER_CC2NE;
 80011ae:	f023 0340 	bic.w	r3, r3, #64	; 0x40
    tmpcr2 |= (OC_Config->OCNIdleState << 2U);
 80011b2:	ea44 0485 	orr.w	r4, r4, r5, lsl #2
  TIMx->CR2 = tmpcr2;
 80011b6:	6044      	str	r4, [r0, #4]
  TIMx->CCMR1 = tmpccmrx;
 80011b8:	6182      	str	r2, [r0, #24]
  TIMx->CCR2 = OC_Config->Pulse;
 80011ba:	684a      	ldr	r2, [r1, #4]
 80011bc:	6382      	str	r2, [r0, #56]	; 0x38
  TIMx->CCER = tmpccer;
 80011be:	6203      	str	r3, [r0, #32]
 80011c0:	bd70      	pop	{r4, r5, r6, pc}
 80011c2:	bf00      	nop
 80011c4:	40010000 	.word	0x40010000

080011c8 <HAL_TIM_PWM_ConfigChannel>:
{
 80011c8:	b538      	push	{r3, r4, r5, lr}
  __HAL_LOCK(htim);
 80011ca:	f890 3038 	ldrb.w	r3, [r0, #56]	; 0x38
 80011ce:	2b01      	cmp	r3, #1
{
 80011d0:	4604      	mov	r4, r0
 80011d2:	f04f 0002 	mov.w	r0, #2
  __HAL_LOCK(htim);
 80011d6:	d025      	beq.n	8001224 <HAL_TIM_PWM_ConfigChannel+0x5c>
 80011d8:	2301      	movs	r3, #1
 80011da:	f884 3038 	strb.w	r3, [r4, #56]	; 0x38
  htim->State = HAL_TIM_STATE_BUSY;
 80011de:	f884 0039 	strb.w	r0, [r4, #57]	; 0x39
  switch (Channel)
 80011e2:	2a0c      	cmp	r2, #12
 80011e4:	d818      	bhi.n	8001218 <HAL_TIM_PWM_ConfigChannel+0x50>
 80011e6:	e8df f002 	tbb	[pc, r2]
 80011ea:	1707      	.short	0x1707
 80011ec:	171e1717 	.word	0x171e1717
 80011f0:	172f1717 	.word	0x172f1717
 80011f4:	1717      	.short	0x1717
 80011f6:	40          	.byte	0x40
 80011f7:	00          	.byte	0x00
      TIM_OC1_SetConfig(htim->Instance, sConfig);
 80011f8:	6820      	ldr	r0, [r4, #0]
 80011fa:	f7ff fd63 	bl	8000cc4 <TIM_OC1_SetConfig>
      htim->Instance->CCMR1 |= TIM_CCMR1_OC1PE;
 80011fe:	6823      	ldr	r3, [r4, #0]
      htim->Instance->CCMR1 |= sConfig->OCFastMode;
 8001200:	6909      	ldr	r1, [r1, #16]
      htim->Instance->CCMR1 |= TIM_CCMR1_OC1PE;
 8001202:	699a      	ldr	r2, [r3, #24]
 8001204:	f042 0208 	orr.w	r2, r2, #8
 8001208:	619a      	str	r2, [r3, #24]
      htim->Instance->CCMR1 &= ~TIM_CCMR1_OC1FE;
 800120a:	699a      	ldr	r2, [r3, #24]
 800120c:	f022 0204 	bic.w	r2, r2, #4
 8001210:	619a      	str	r2, [r3, #24]
      htim->Instance->CCMR1 |= sConfig->OCFastMode;
 8001212:	699a      	ldr	r2, [r3, #24]
 8001214:	430a      	orrs	r2, r1
      htim->Instance->CCMR1 |= sConfig->OCFastMode << 8U;
 8001216:	619a      	str	r2, [r3, #24]
  htim->State = HAL_TIM_STATE_READY;
 8001218:	2301      	movs	r3, #1
  __HAL_UNLOCK(htim);
 800121a:	2000      	movs	r0, #0
  htim->State = HAL_TIM_STATE_READY;
 800121c:	f884 3039 	strb.w	r3, [r4, #57]	; 0x39
  __HAL_UNLOCK(htim);
 8001220:	f884 0038 	strb.w	r0, [r4, #56]	; 0x38
}
 8001224:	bd38      	pop	{r3, r4, r5, pc}
      TIM_OC2_SetConfig(htim->Instance, sConfig);
 8001226:	6820      	ldr	r0, [r4, #0]
 8001228:	f7ff ffa2 	bl	8001170 <TIM_OC2_SetConfig>
      htim->Instance->CCMR1 |= TIM_CCMR1_OC2PE;
 800122c:	6823      	ldr	r3, [r4, #0]
      htim->Instance->CCMR1 |= sConfig->OCFastMode << 8U;
 800122e:	6909      	ldr	r1, [r1, #16]
      htim->Instance->CCMR1 |= TIM_CCMR1_OC2PE;
 8001230:	699a      	ldr	r2, [r3, #24]
 8001232:	f442 6200 	orr.w	r2, r2, #2048	; 0x800
 8001236:	619a      	str	r2, [r3, #24]
      htim->Instance->CCMR1 &= ~TIM_CCMR1_OC2FE;
 8001238:	699a      	ldr	r2, [r3, #24]
 800123a:	f422 6280 	bic.w	r2, r2, #1024	; 0x400
 800123e:	619a      	str	r2, [r3, #24]
      htim->Instance->CCMR1 |= sConfig->OCFastMode << 8U;
 8001240:	699a      	ldr	r2, [r3, #24]
 8001242:	ea42 2201 	orr.w	r2, r2, r1, lsl #8
 8001246:	e7e6      	b.n	8001216 <HAL_TIM_PWM_ConfigChannel+0x4e>
      TIM_OC3_SetConfig(htim->Instance, sConfig);
 8001248:	6820      	ldr	r0, [r4, #0]
 800124a:	f7ff fd63 	bl	8000d14 <TIM_OC3_SetConfig>
      htim->Instance->CCMR2 |= TIM_CCMR2_OC3PE;
 800124e:	6823      	ldr	r3, [r4, #0]
      htim->Instance->CCMR2 |= sConfig->OCFastMode;  
 8001250:	6909      	ldr	r1, [r1, #16]
      htim->Instance->CCMR2 |= TIM_CCMR2_OC3PE;
 8001252:	69da      	ldr	r2, [r3, #28]
 8001254:	f042 0208 	orr.w	r2, r2, #8
 8001258:	61da      	str	r2, [r3, #28]
      htim->Instance->CCMR2 &= ~TIM_CCMR2_OC3FE;
 800125a:	69da      	ldr	r2, [r3, #28]
 800125c:	f022 0204 	bic.w	r2, r2, #4
 8001260:	61da      	str	r2, [r3, #28]
      htim->Instance->CCMR2 |= sConfig->OCFastMode;  
 8001262:	69da      	ldr	r2, [r3, #28]
 8001264:	430a      	orrs	r2, r1
      htim->Instance->CCMR2 |= sConfig->OCFastMode << 8U;  
 8001266:	61da      	str	r2, [r3, #28]
    break;
 8001268:	e7d6      	b.n	8001218 <HAL_TIM_PWM_ConfigChannel+0x50>
      TIM_OC4_SetConfig(htim->Instance, sConfig);
 800126a:	6820      	ldr	r0, [r4, #0]
 800126c:	f7ff fd7c 	bl	8000d68 <TIM_OC4_SetConfig>
      htim->Instance->CCMR2 |= TIM_CCMR2_OC4PE;
 8001270:	6823      	ldr	r3, [r4, #0]
      htim->Instance->CCMR2 |= sConfig->OCFastMode << 8U;  
 8001272:	6909      	ldr	r1, [r1, #16]
      htim->Instance->CCMR2 |= TIM_CCMR2_OC4PE;
 8001274:	69da      	ldr	r2, [r3, #28]
 8001276:	f442 6200 	orr.w	r2, r2, #2048	; 0x800
 800127a:	61da      	str	r2, [r3, #28]
      htim->Instance->CCMR2 &= ~TIM_CCMR2_OC4FE;
 800127c:	69da      	ldr	r2, [r3, #28]
 800127e:	f422 6280 	bic.w	r2, r2, #1024	; 0x400
 8001282:	61da      	str	r2, [r3, #28]
      htim->Instance->CCMR2 |= sConfig->OCFastMode << 8U;  
 8001284:	69da      	ldr	r2, [r3, #28]
 8001286:	ea42 2201 	orr.w	r2, r2, r1, lsl #8
 800128a:	e7ec      	b.n	8001266 <HAL_TIM_PWM_ConfigChannel+0x9e>

0800128c <TIM_CCxChannelCmd>:
  TIMx->CCER &= ~tmp;
 800128c:	6a03      	ldr	r3, [r0, #32]
{
 800128e:	b510      	push	{r4, lr}
  tmp = TIM_CCER_CC1E << Channel;
 8001290:	2401      	movs	r4, #1
 8001292:	408c      	lsls	r4, r1
  TIMx->CCER &= ~tmp;
 8001294:	ea23 0304 	bic.w	r3, r3, r4
 8001298:	6203      	str	r3, [r0, #32]
  TIMx->CCER |= (uint32_t)(ChannelState << Channel);
 800129a:	6a03      	ldr	r3, [r0, #32]
 800129c:	408a      	lsls	r2, r1
 800129e:	431a      	orrs	r2, r3
 80012a0:	6202      	str	r2, [r0, #32]
 80012a2:	bd10      	pop	{r4, pc}

080012a4 <HAL_TIM_PWM_Start>:
{
 80012a4:	b510      	push	{r4, lr}
 80012a6:	4604      	mov	r4, r0
  TIM_CCxChannelCmd(htim->Instance, Channel, TIM_CCx_ENABLE);
 80012a8:	2201      	movs	r2, #1
 80012aa:	6800      	ldr	r0, [r0, #0]
 80012ac:	f7ff ffee 	bl	800128c <TIM_CCxChannelCmd>
  if(IS_TIM_ADVANCED_INSTANCE(htim->Instance) != RESET)  
 80012b0:	6823      	ldr	r3, [r4, #0]
 80012b2:	4a06      	ldr	r2, [pc, #24]	; (80012cc <HAL_TIM_PWM_Start+0x28>)
 80012b4:	4293      	cmp	r3, r2
    __HAL_TIM_MOE_ENABLE(htim);
 80012b6:	bf02      	ittt	eq
 80012b8:	6c5a      	ldreq	r2, [r3, #68]	; 0x44
 80012ba:	f442 4200 	orreq.w	r2, r2, #32768	; 0x8000
 80012be:	645a      	streq	r2, [r3, #68]	; 0x44
  __HAL_TIM_ENABLE(htim);
 80012c0:	681a      	ldr	r2, [r3, #0]
 80012c2:	f042 0201 	orr.w	r2, r2, #1
 80012c6:	601a      	str	r2, [r3, #0]
} 
 80012c8:	2000      	movs	r0, #0
 80012ca:	bd10      	pop	{r4, pc}
 80012cc:	40010000 	.word	0x40010000

080012d0 <HAL_TIMEx_MasterConfigSynchronization>:
  /* Check the parameters */
  assert_param(IS_TIM_MASTER_INSTANCE(htim->Instance));
  assert_param(IS_TIM_TRGO_SOURCE(sMasterConfig->MasterOutputTrigger));
  assert_param(IS_TIM_MSM_STATE(sMasterConfig->MasterSlaveMode));
  
  __HAL_LOCK(htim);
 80012d0:	f890 3038 	ldrb.w	r3, [r0, #56]	; 0x38
 80012d4:	2b01      	cmp	r3, #1
{
 80012d6:	b510      	push	{r4, lr}
 80012d8:	f04f 0302 	mov.w	r3, #2
  __HAL_LOCK(htim);
 80012dc:	d018      	beq.n	8001310 <HAL_TIMEx_MasterConfigSynchronization+0x40>
  
  htim->State = HAL_TIM_STATE_BUSY;
 80012de:	f880 3039 	strb.w	r3, [r0, #57]	; 0x39

  /* Reset the MMS Bits */
  htim->Instance->CR2 &= ~TIM_CR2_MMS;
 80012e2:	6803      	ldr	r3, [r0, #0]
  /* Select the TRGO source */
  htim->Instance->CR2 |= sMasterConfig->MasterOutputTrigger;
 80012e4:	680c      	ldr	r4, [r1, #0]
  htim->Instance->CR2 &= ~TIM_CR2_MMS;
 80012e6:	685a      	ldr	r2, [r3, #4]

  /* Reset the MSM Bit */
  htim->Instance->SMCR &= ~TIM_SMCR_MSM;
  /* Set or Reset the MSM Bit */
  htim->Instance->SMCR |= sMasterConfig->MasterSlaveMode;
 80012e8:	6849      	ldr	r1, [r1, #4]
  htim->Instance->CR2 &= ~TIM_CR2_MMS;
 80012ea:	f022 0270 	bic.w	r2, r2, #112	; 0x70
 80012ee:	605a      	str	r2, [r3, #4]
  htim->Instance->CR2 |= sMasterConfig->MasterOutputTrigger;
 80012f0:	685a      	ldr	r2, [r3, #4]
 80012f2:	4322      	orrs	r2, r4
 80012f4:	605a      	str	r2, [r3, #4]
  htim->Instance->SMCR &= ~TIM_SMCR_MSM;
 80012f6:	689a      	ldr	r2, [r3, #8]
 80012f8:	f022 0280 	bic.w	r2, r2, #128	; 0x80
 80012fc:	609a      	str	r2, [r3, #8]
  htim->Instance->SMCR |= sMasterConfig->MasterSlaveMode;
 80012fe:	689a      	ldr	r2, [r3, #8]
 8001300:	430a      	orrs	r2, r1
 8001302:	609a      	str	r2, [r3, #8]
  
  htim->State = HAL_TIM_STATE_READY;
 8001304:	2301      	movs	r3, #1
 8001306:	f880 3039 	strb.w	r3, [r0, #57]	; 0x39
  
  __HAL_UNLOCK(htim);
 800130a:	2300      	movs	r3, #0
 800130c:	f880 3038 	strb.w	r3, [r0, #56]	; 0x38
  __HAL_LOCK(htim);
 8001310:	4618      	mov	r0, r3
  
  return HAL_OK;
} 
 8001312:	bd10      	pop	{r4, pc}

08001314 <HAL_TIMEx_CommutationCallback>:
 8001314:	4770      	bx	lr

08001316 <HAL_TIMEx_BreakCallback>:
  * @param  htim pointer to a TIM_HandleTypeDef structure that contains
  *                the configuration information for TIM module.
  * @retval None
  */
__weak void HAL_TIMEx_BreakCallback(TIM_HandleTypeDef *htim)
{
 8001316:	4770      	bx	lr

08001318 <SystemClock_Config>:
/**
  * @brief System Clock Configuration
  * @retval None
  */
void SystemClock_Config(void)
{
 8001318:	b530      	push	{r4, r5, lr}
 800131a:	b095      	sub	sp, #84	; 0x54
  RCC_OscInitTypeDef RCC_OscInitStruct;
  RCC_ClkInitTypeDef RCC_ClkInitStruct;

    /**Configure the main internal regulator output voltage 
    */
  __HAL_RCC_PWR_CLK_ENABLE();
 800131c:	2200      	movs	r2, #0
 800131e:	4b27      	ldr	r3, [pc, #156]	; (80013bc <SystemClock_Config+0xa4>)
 8001320:	9201      	str	r2, [sp, #4]
 8001322:	6c19      	ldr	r1, [r3, #64]	; 0x40
 8001324:	f041 5180 	orr.w	r1, r1, #268435456	; 0x10000000
 8001328:	6419      	str	r1, [r3, #64]	; 0x40
 800132a:	6c1b      	ldr	r3, [r3, #64]	; 0x40

  __HAL_PWR_VOLTAGESCALING_CONFIG(PWR_REGULATOR_VOLTAGE_SCALE2);
 800132c:	4924      	ldr	r1, [pc, #144]	; (80013c0 <SystemClock_Config+0xa8>)
  __HAL_RCC_PWR_CLK_ENABLE();
 800132e:	f003 5380 	and.w	r3, r3, #268435456	; 0x10000000
 8001332:	9301      	str	r3, [sp, #4]
 8001334:	9b01      	ldr	r3, [sp, #4]
  __HAL_PWR_VOLTAGESCALING_CONFIG(PWR_REGULATOR_VOLTAGE_SCALE2);
 8001336:	9202      	str	r2, [sp, #8]
 8001338:	680b      	ldr	r3, [r1, #0]
 800133a:	f423 4340 	bic.w	r3, r3, #49152	; 0xc000
 800133e:	f443 4300 	orr.w	r3, r3, #32768	; 0x8000
 8001342:	600b      	str	r3, [r1, #0]
 8001344:	680b      	ldr	r3, [r1, #0]
    */
  RCC_OscInitStruct.OscillatorType = RCC_OSCILLATORTYPE_HSI;
  RCC_OscInitStruct.HSIState = RCC_HSI_ON;
  RCC_OscInitStruct.HSICalibrationValue = 16;
  RCC_OscInitStruct.PLL.PLLState = RCC_PLL_ON;
  RCC_OscInitStruct.PLL.PLLSource = RCC_PLLSOURCE_HSI;
 8001346:	920f      	str	r2, [sp, #60]	; 0x3c
  __HAL_PWR_VOLTAGESCALING_CONFIG(PWR_REGULATOR_VOLTAGE_SCALE2);
 8001348:	f403 4340 	and.w	r3, r3, #49152	; 0xc000
 800134c:	9302      	str	r3, [sp, #8]
 800134e:	9b02      	ldr	r3, [sp, #8]
  RCC_OscInitStruct.HSIState = RCC_HSI_ON;
 8001350:	2301      	movs	r3, #1
 8001352:	930b      	str	r3, [sp, #44]	; 0x2c
  RCC_OscInitStruct.HSICalibrationValue = 16;
 8001354:	2310      	movs	r3, #16
 8001356:	930c      	str	r3, [sp, #48]	; 0x30
  RCC_OscInitStruct.PLL.PLLM = 16;
 8001358:	9310      	str	r3, [sp, #64]	; 0x40
  RCC_OscInitStruct.PLL.PLLN = 336;
 800135a:	f44f 73a8 	mov.w	r3, #336	; 0x150
  RCC_OscInitStruct.OscillatorType = RCC_OSCILLATORTYPE_HSI;
 800135e:	2402      	movs	r4, #2
  RCC_OscInitStruct.PLL.PLLN = 336;
 8001360:	9311      	str	r3, [sp, #68]	; 0x44
  RCC_OscInitStruct.PLL.PLLP = RCC_PLLP_DIV4;
 8001362:	2504      	movs	r5, #4
  RCC_OscInitStruct.PLL.PLLQ = 7;
 8001364:	2307      	movs	r3, #7
  if (HAL_RCC_OscConfig(&RCC_OscInitStruct) != HAL_OK)
 8001366:	a808      	add	r0, sp, #32
  RCC_OscInitStruct.OscillatorType = RCC_OSCILLATORTYPE_HSI;
 8001368:	9408      	str	r4, [sp, #32]
  RCC_OscInitStruct.PLL.PLLState = RCC_PLL_ON;
 800136a:	940e      	str	r4, [sp, #56]	; 0x38
  RCC_OscInitStruct.PLL.PLLP = RCC_PLLP_DIV4;
 800136c:	9512      	str	r5, [sp, #72]	; 0x48
  RCC_OscInitStruct.PLL.PLLQ = 7;
 800136e:	9313      	str	r3, [sp, #76]	; 0x4c
  if (HAL_RCC_OscConfig(&RCC_OscInitStruct) != HAL_OK)
 8001370:	f7ff fa58 	bl	8000824 <HAL_RCC_OscConfig>
 8001374:	b100      	cbz	r0, 8001378 <SystemClock_Config+0x60>
 8001376:	e7fe      	b.n	8001376 <SystemClock_Config+0x5e>
    _Error_Handler(__FILE__, __LINE__);
  }

    /**Initializes the CPU, AHB and APB busses clocks 
    */
  RCC_ClkInitStruct.ClockType = RCC_CLOCKTYPE_HCLK|RCC_CLOCKTYPE_SYSCLK
 8001378:	230f      	movs	r3, #15
 800137a:	9303      	str	r3, [sp, #12]
                              |RCC_CLOCKTYPE_PCLK1|RCC_CLOCKTYPE_PCLK2;
  RCC_ClkInitStruct.SYSCLKSource = RCC_SYSCLKSOURCE_PLLCLK;
  RCC_ClkInitStruct.AHBCLKDivider = RCC_SYSCLK_DIV1;
 800137c:	9005      	str	r0, [sp, #20]
  RCC_ClkInitStruct.APB1CLKDivider = RCC_HCLK_DIV2;
 800137e:	f44f 5380 	mov.w	r3, #4096	; 0x1000
  RCC_ClkInitStruct.APB2CLKDivider = RCC_HCLK_DIV1;
 8001382:	9007      	str	r0, [sp, #28]

  if (HAL_RCC_ClockConfig(&RCC_ClkInitStruct, FLASH_LATENCY_2) != HAL_OK)
 8001384:	4621      	mov	r1, r4
 8001386:	a803      	add	r0, sp, #12
  RCC_ClkInitStruct.SYSCLKSource = RCC_SYSCLKSOURCE_PLLCLK;
 8001388:	9404      	str	r4, [sp, #16]
  RCC_ClkInitStruct.APB1CLKDivider = RCC_HCLK_DIV2;
 800138a:	9306      	str	r3, [sp, #24]
  if (HAL_RCC_ClockConfig(&RCC_ClkInitStruct, FLASH_LATENCY_2) != HAL_OK)
 800138c:	f7ff fbfa 	bl	8000b84 <HAL_RCC_ClockConfig>
 8001390:	4604      	mov	r4, r0
 8001392:	b100      	cbz	r0, 8001396 <SystemClock_Config+0x7e>
 8001394:	e7fe      	b.n	8001394 <SystemClock_Config+0x7c>
    _Error_Handler(__FILE__, __LINE__);
  }

    /**Configure the Systick interrupt time 
    */
  HAL_SYSTICK_Config(HAL_RCC_GetHCLKFreq()/1000);
 8001396:	f7ff fc8f 	bl	8000cb8 <HAL_RCC_GetHCLKFreq>
 800139a:	f44f 737a 	mov.w	r3, #1000	; 0x3e8
 800139e:	fbb0 f0f3 	udiv	r0, r0, r3
 80013a2:	f7ff f941 	bl	8000628 <HAL_SYSTICK_Config>

    /**Configure the Systick 
    */
  HAL_SYSTICK_CLKSourceConfig(SYSTICK_CLKSOURCE_HCLK);
 80013a6:	4628      	mov	r0, r5
 80013a8:	f7ff f954 	bl	8000654 <HAL_SYSTICK_CLKSourceConfig>

  /* SysTick_IRQn interrupt configuration */
  HAL_NVIC_SetPriority(SysTick_IRQn, 0, 0);
 80013ac:	4622      	mov	r2, r4
 80013ae:	4621      	mov	r1, r4
 80013b0:	f04f 30ff 	mov.w	r0, #4294967295
 80013b4:	f7ff f8f8 	bl	80005a8 <HAL_NVIC_SetPriority>
}
 80013b8:	b015      	add	sp, #84	; 0x54
 80013ba:	bd30      	pop	{r4, r5, pc}
 80013bc:	40023800 	.word	0x40023800
 80013c0:	40007000 	.word	0x40007000

080013c4 <main>:
{
 80013c4:	b570      	push	{r4, r5, r6, lr}
 80013c6:	b090      	sub	sp, #64	; 0x40
  HAL_Init();
 80013c8:	f7ff f8b0 	bl	800052c <HAL_Init>
  SystemClock_Config();
 80013cc:	f7ff ffa4 	bl	8001318 <SystemClock_Config>
*/
static void MX_GPIO_Init(void)
{

  /* GPIO Ports Clock Enable */
  __HAL_RCC_GPIOH_CLK_ENABLE();
 80013d0:	4b2e      	ldr	r3, [pc, #184]	; (800148c <main+0xc8>)
  htim2.Instance = TIM2;
 80013d2:	4c2f      	ldr	r4, [pc, #188]	; (8001490 <main+0xcc>)
  __HAL_RCC_GPIOH_CLK_ENABLE();
 80013d4:	2200      	movs	r2, #0
 80013d6:	9201      	str	r2, [sp, #4]
 80013d8:	6b19      	ldr	r1, [r3, #48]	; 0x30
 80013da:	f041 0180 	orr.w	r1, r1, #128	; 0x80
 80013de:	6319      	str	r1, [r3, #48]	; 0x30
 80013e0:	6b19      	ldr	r1, [r3, #48]	; 0x30
 80013e2:	f001 0180 	and.w	r1, r1, #128	; 0x80
 80013e6:	9101      	str	r1, [sp, #4]
 80013e8:	9901      	ldr	r1, [sp, #4]
  __HAL_RCC_GPIOA_CLK_ENABLE();
 80013ea:	9202      	str	r2, [sp, #8]
 80013ec:	6b19      	ldr	r1, [r3, #48]	; 0x30
 80013ee:	f041 0101 	orr.w	r1, r1, #1
 80013f2:	6319      	str	r1, [r3, #48]	; 0x30
 80013f4:	6b1b      	ldr	r3, [r3, #48]	; 0x30
  htim2.Init.Prescaler = 0;
 80013f6:	6062      	str	r2, [r4, #4]
  __HAL_RCC_GPIOA_CLK_ENABLE();
 80013f8:	f003 0301 	and.w	r3, r3, #1
 80013fc:	9302      	str	r3, [sp, #8]
 80013fe:	9b02      	ldr	r3, [sp, #8]
  htim2.Init.Period = 5000000;
 8001400:	4b24      	ldr	r3, [pc, #144]	; (8001494 <main+0xd0>)
  htim2.Init.CounterMode = TIM_COUNTERMODE_UP;
 8001402:	60a2      	str	r2, [r4, #8]
  htim2.Instance = TIM2;
 8001404:	f04f 4680 	mov.w	r6, #1073741824	; 0x40000000
  if (HAL_TIM_Base_Init(&htim2) != HAL_OK)
 8001408:	4620      	mov	r0, r4
  htim2.Instance = TIM2;
 800140a:	6026      	str	r6, [r4, #0]
  htim2.Init.Period = 5000000;
 800140c:	60e3      	str	r3, [r4, #12]
  htim2.Init.ClockDivision = TIM_CLOCKDIVISION_DIV1;
 800140e:	6122      	str	r2, [r4, #16]
  if (HAL_TIM_Base_Init(&htim2) != HAL_OK)
 8001410:	f7ff fe7a 	bl	8001108 <HAL_TIM_Base_Init>
 8001414:	b100      	cbz	r0, 8001418 <main+0x54>
 8001416:	e7fe      	b.n	8001416 <main+0x52>
  sClockSourceConfig.ClockSource = TIM_CLOCKSOURCE_INTERNAL;
 8001418:	a910      	add	r1, sp, #64	; 0x40
 800141a:	f44f 5380 	mov.w	r3, #4096	; 0x1000
 800141e:	f841 3d2c 	str.w	r3, [r1, #-44]!
  if (HAL_TIM_ConfigClockSource(&htim2, &sClockSourceConfig) != HAL_OK)
 8001422:	4620      	mov	r0, r4
 8001424:	f7ff fcc3 	bl	8000dae <HAL_TIM_ConfigClockSource>
 8001428:	b100      	cbz	r0, 800142c <main+0x68>
 800142a:	e7fe      	b.n	800142a <main+0x66>
  if (HAL_TIM_PWM_Init(&htim2) != HAL_OK)
 800142c:	4620      	mov	r0, r4
 800142e:	f7ff fe85 	bl	800113c <HAL_TIM_PWM_Init>
 8001432:	b100      	cbz	r0, 8001436 <main+0x72>
 8001434:	e7fe      	b.n	8001434 <main+0x70>
  sMasterConfig.MasterOutputTrigger = TIM_TRGO_RESET;
 8001436:	9003      	str	r0, [sp, #12]
  sMasterConfig.MasterSlaveMode = TIM_MASTERSLAVEMODE_DISABLE;
 8001438:	9004      	str	r0, [sp, #16]
  if (HAL_TIMEx_MasterConfigSynchronization(&htim2, &sMasterConfig) != HAL_OK)
 800143a:	a903      	add	r1, sp, #12
 800143c:	4620      	mov	r0, r4
 800143e:	f7ff ff47 	bl	80012d0 <HAL_TIMEx_MasterConfigSynchronization>
 8001442:	4602      	mov	r2, r0
 8001444:	b100      	cbz	r0, 8001448 <main+0x84>
 8001446:	e7fe      	b.n	8001446 <main+0x82>
  sConfigOC.OCMode = TIM_OCMODE_PWM1;
 8001448:	2360      	movs	r3, #96	; 0x60
  sConfigOC.Pulse = 0;
 800144a:	900a      	str	r0, [sp, #40]	; 0x28
  sConfigOC.OCPolarity = TIM_OCPOLARITY_HIGH;
 800144c:	900b      	str	r0, [sp, #44]	; 0x2c
  sConfigOC.OCFastMode = TIM_OCFAST_DISABLE;
 800144e:	900d      	str	r0, [sp, #52]	; 0x34
  if (HAL_TIM_PWM_ConfigChannel(&htim2, &sConfigOC, TIM_CHANNEL_1) != HAL_OK)
 8001450:	a909      	add	r1, sp, #36	; 0x24
 8001452:	4620      	mov	r0, r4
  sConfigOC.OCMode = TIM_OCMODE_PWM1;
 8001454:	9309      	str	r3, [sp, #36]	; 0x24
  if (HAL_TIM_PWM_ConfigChannel(&htim2, &sConfigOC, TIM_CHANNEL_1) != HAL_OK)
 8001456:	f7ff feb7 	bl	80011c8 <HAL_TIM_PWM_ConfigChannel>
 800145a:	4605      	mov	r5, r0
 800145c:	b100      	cbz	r0, 8001460 <main+0x9c>
 800145e:	e7fe      	b.n	800145e <main+0x9a>
  HAL_TIM_MspPostInit(&htim2);
 8001460:	4620      	mov	r0, r4
 8001462:	f000 f87f 	bl	8001564 <HAL_TIM_MspPostInit>
  HAL_TIM_PWM_Start (&htim2, TIM_CHANNEL_1);
 8001466:	4629      	mov	r1, r5
 8001468:	4620      	mov	r0, r4
 800146a:	f7ff ff1b 	bl	80012a4 <HAL_TIM_PWM_Start>
	  for (i=0; i<=500000000; i++)
 800146e:	4b0a      	ldr	r3, [pc, #40]	; (8001498 <main+0xd4>)
		  TIM2->CCR1=i;
 8001470:	6375      	str	r5, [r6, #52]	; 0x34
	  for (i=0; i<=500000000; i++)
 8001472:	3501      	adds	r5, #1
 8001474:	429d      	cmp	r5, r3
 8001476:	d1fb      	bne.n	8001470 <main+0xac>
 8001478:	4b06      	ldr	r3, [pc, #24]	; (8001494 <main+0xd0>)
	  		  TIM2->CCR1=i;
 800147a:	f04f 4180 	mov.w	r1, #1073741824	; 0x40000000
 800147e:	634b      	str	r3, [r1, #52]	; 0x34
 8001480:	2264      	movs	r2, #100	; 0x64
	  		  for (d=0;d<100;d++)
 8001482:	3a01      	subs	r2, #1
 8001484:	d1fd      	bne.n	8001482 <main+0xbe>
	  for (i=5000000; i>=0; i--)
 8001486:	3b01      	subs	r3, #1
	  		  TIM2->CCR1=i;
 8001488:	e7f9      	b.n	800147e <main+0xba>
 800148a:	bf00      	nop
 800148c:	40023800 	.word	0x40023800
 8001490:	2000002c 	.word	0x2000002c
 8001494:	004c4b40 	.word	0x004c4b40
 8001498:	1dcd6501 	.word	0x1dcd6501

0800149c <HAL_MspInit>:
/* USER CODE END 0 */
/**
  * Initializes the Global MSP.
  */
void HAL_MspInit(void)
{
 800149c:	b513      	push	{r0, r1, r4, lr}
  /* USER CODE BEGIN MspInit 0 */

  /* USER CODE END MspInit 0 */

  __HAL_RCC_SYSCFG_CLK_ENABLE();
 800149e:	4b22      	ldr	r3, [pc, #136]	; (8001528 <HAL_MspInit+0x8c>)
 80014a0:	2400      	movs	r4, #0
 80014a2:	9400      	str	r4, [sp, #0]
 80014a4:	6c5a      	ldr	r2, [r3, #68]	; 0x44
 80014a6:	f442 4280 	orr.w	r2, r2, #16384	; 0x4000
 80014aa:	645a      	str	r2, [r3, #68]	; 0x44
 80014ac:	6c5a      	ldr	r2, [r3, #68]	; 0x44
 80014ae:	f402 4280 	and.w	r2, r2, #16384	; 0x4000
 80014b2:	9200      	str	r2, [sp, #0]
 80014b4:	9a00      	ldr	r2, [sp, #0]
  __HAL_RCC_PWR_CLK_ENABLE();
 80014b6:	9401      	str	r4, [sp, #4]
 80014b8:	6c1a      	ldr	r2, [r3, #64]	; 0x40
 80014ba:	f042 5280 	orr.w	r2, r2, #268435456	; 0x10000000
 80014be:	641a      	str	r2, [r3, #64]	; 0x40
 80014c0:	6c1b      	ldr	r3, [r3, #64]	; 0x40
 80014c2:	f003 5380 	and.w	r3, r3, #268435456	; 0x10000000
 80014c6:	9301      	str	r3, [sp, #4]

  HAL_NVIC_SetPriorityGrouping(NVIC_PRIORITYGROUP_0);
 80014c8:	2007      	movs	r0, #7
  __HAL_RCC_PWR_CLK_ENABLE();
 80014ca:	9b01      	ldr	r3, [sp, #4]
  HAL_NVIC_SetPriorityGrouping(NVIC_PRIORITYGROUP_0);
 80014cc:	f7ff f85a 	bl	8000584 <HAL_NVIC_SetPriorityGrouping>

  /* System interrupt init*/
  /* MemoryManagement_IRQn interrupt configuration */
  HAL_NVIC_SetPriority(MemoryManagement_IRQn, 0, 0);
 80014d0:	4622      	mov	r2, r4
 80014d2:	4621      	mov	r1, r4
 80014d4:	f06f 000b 	mvn.w	r0, #11
 80014d8:	f7ff f866 	bl	80005a8 <HAL_NVIC_SetPriority>
  /* BusFault_IRQn interrupt configuration */
  HAL_NVIC_SetPriority(BusFault_IRQn, 0, 0);
 80014dc:	4622      	mov	r2, r4
 80014de:	4621      	mov	r1, r4
 80014e0:	f06f 000a 	mvn.w	r0, #10
 80014e4:	f7ff f860 	bl	80005a8 <HAL_NVIC_SetPriority>
  /* UsageFault_IRQn interrupt configuration */
  HAL_NVIC_SetPriority(UsageFault_IRQn, 0, 0);
 80014e8:	4622      	mov	r2, r4
 80014ea:	4621      	mov	r1, r4
 80014ec:	f06f 0009 	mvn.w	r0, #9
 80014f0:	f7ff f85a 	bl	80005a8 <HAL_NVIC_SetPriority>
  /* SVCall_IRQn interrupt configuration */
  HAL_NVIC_SetPriority(SVCall_IRQn, 0, 0);
 80014f4:	4622      	mov	r2, r4
 80014f6:	4621      	mov	r1, r4
 80014f8:	f06f 0004 	mvn.w	r0, #4
 80014fc:	f7ff f854 	bl	80005a8 <HAL_NVIC_SetPriority>
  /* DebugMonitor_IRQn interrupt configuration */
  HAL_NVIC_SetPriority(DebugMonitor_IRQn, 0, 0);
 8001500:	4622      	mov	r2, r4
 8001502:	4621      	mov	r1, r4
 8001504:	f06f 0003 	mvn.w	r0, #3
 8001508:	f7ff f84e 	bl	80005a8 <HAL_NVIC_SetPriority>
  /* PendSV_IRQn interrupt configuration */
  HAL_NVIC_SetPriority(PendSV_IRQn, 0, 0);
 800150c:	4622      	mov	r2, r4
 800150e:	4621      	mov	r1, r4
 8001510:	f06f 0001 	mvn.w	r0, #1
 8001514:	f7ff f848 	bl	80005a8 <HAL_NVIC_SetPriority>
  /* SysTick_IRQn interrupt configuration */
  HAL_NVIC_SetPriority(SysTick_IRQn, 0, 0);
 8001518:	4622      	mov	r2, r4
 800151a:	4621      	mov	r1, r4
 800151c:	f04f 30ff 	mov.w	r0, #4294967295
 8001520:	f7ff f842 	bl	80005a8 <HAL_NVIC_SetPriority>

  /* USER CODE BEGIN MspInit 1 */

  /* USER CODE END MspInit 1 */
}
 8001524:	b002      	add	sp, #8
 8001526:	bd10      	pop	{r4, pc}
 8001528:	40023800 	.word	0x40023800

0800152c <HAL_TIM_Base_MspInit>:

void HAL_TIM_Base_MspInit(TIM_HandleTypeDef* htim_base)
{

  if(htim_base->Instance==TIM2)
 800152c:	6803      	ldr	r3, [r0, #0]
 800152e:	f1b3 4f80 	cmp.w	r3, #1073741824	; 0x40000000
{
 8001532:	b507      	push	{r0, r1, r2, lr}
  if(htim_base->Instance==TIM2)
 8001534:	d113      	bne.n	800155e <HAL_TIM_Base_MspInit+0x32>
  {
  /* USER CODE BEGIN TIM2_MspInit 0 */

  /* USER CODE END TIM2_MspInit 0 */
    /* Peripheral clock enable */
    __HAL_RCC_TIM2_CLK_ENABLE();
 8001536:	2200      	movs	r2, #0
 8001538:	f503 330e 	add.w	r3, r3, #145408	; 0x23800
 800153c:	9201      	str	r2, [sp, #4]
 800153e:	6c19      	ldr	r1, [r3, #64]	; 0x40
 8001540:	f041 0101 	orr.w	r1, r1, #1
 8001544:	6419      	str	r1, [r3, #64]	; 0x40
 8001546:	6c1b      	ldr	r3, [r3, #64]	; 0x40
 8001548:	f003 0301 	and.w	r3, r3, #1
 800154c:	9301      	str	r3, [sp, #4]
    /* TIM2 interrupt Init */
    HAL_NVIC_SetPriority(TIM2_IRQn, 0, 0);
 800154e:	201c      	movs	r0, #28
 8001550:	4611      	mov	r1, r2
    __HAL_RCC_TIM2_CLK_ENABLE();
 8001552:	9b01      	ldr	r3, [sp, #4]
    HAL_NVIC_SetPriority(TIM2_IRQn, 0, 0);
 8001554:	f7ff f828 	bl	80005a8 <HAL_NVIC_SetPriority>
    HAL_NVIC_EnableIRQ(TIM2_IRQn);
 8001558:	201c      	movs	r0, #28
 800155a:	f7ff f859 	bl	8000610 <HAL_NVIC_EnableIRQ>
  /* USER CODE BEGIN TIM2_MspInit 1 */

  /* USER CODE END TIM2_MspInit 1 */
  }

}
 800155e:	b003      	add	sp, #12
 8001560:	f85d fb04 	ldr.w	pc, [sp], #4

08001564 <HAL_TIM_MspPostInit>:

void HAL_TIM_MspPostInit(TIM_HandleTypeDef* htim)
{
 8001564:	b57f      	push	{r0, r1, r2, r3, r4, r5, r6, lr}

  GPIO_InitTypeDef GPIO_InitStruct;
  if(htim->Instance==TIM2)
 8001566:	6803      	ldr	r3, [r0, #0]
 8001568:	f1b3 4f80 	cmp.w	r3, #1073741824	; 0x40000000
 800156c:	d10c      	bne.n	8001588 <HAL_TIM_MspPostInit+0x24>
  /* USER CODE END TIM2_MspPostInit 0 */
  
    /**TIM2 GPIO Configuration    
    PA5     ------> TIM2_CH1 
    */
    GPIO_InitStruct.Pin = GPIO_PIN_5;
 800156e:	2320      	movs	r3, #32
 8001570:	9301      	str	r3, [sp, #4]
    GPIO_InitStruct.Mode = GPIO_MODE_AF_PP;
 8001572:	2302      	movs	r3, #2
 8001574:	9302      	str	r3, [sp, #8]
    GPIO_InitStruct.Pull = GPIO_NOPULL;
 8001576:	2200      	movs	r2, #0
    GPIO_InitStruct.Speed = GPIO_SPEED_FREQ_HIGH;
 8001578:	9304      	str	r3, [sp, #16]
    GPIO_InitStruct.Alternate = GPIO_AF1_TIM2;
    HAL_GPIO_Init(GPIOA, &GPIO_InitStruct);
 800157a:	a901      	add	r1, sp, #4
    GPIO_InitStruct.Alternate = GPIO_AF1_TIM2;
 800157c:	2301      	movs	r3, #1
    HAL_GPIO_Init(GPIOA, &GPIO_InitStruct);
 800157e:	4804      	ldr	r0, [pc, #16]	; (8001590 <HAL_TIM_MspPostInit+0x2c>)
    GPIO_InitStruct.Pull = GPIO_NOPULL;
 8001580:	9203      	str	r2, [sp, #12]
    GPIO_InitStruct.Alternate = GPIO_AF1_TIM2;
 8001582:	9305      	str	r3, [sp, #20]
    HAL_GPIO_Init(GPIOA, &GPIO_InitStruct);
 8001584:	f7ff f878 	bl	8000678 <HAL_GPIO_Init>
  /* USER CODE BEGIN TIM2_MspPostInit 1 */

  /* USER CODE END TIM2_MspPostInit 1 */
  }

}
 8001588:	b007      	add	sp, #28
 800158a:	f85d fb04 	ldr.w	pc, [sp], #4
 800158e:	bf00      	nop
 8001590:	40020000 	.word	0x40020000

08001594 <SVC_Handler>:
 8001594:	4770      	bx	lr

08001596 <PendSV_Handler>:

/**
* @brief This function handles Pendable request for system service.
*/
void PendSV_Handler(void)
{
 8001596:	4770      	bx	lr

08001598 <SysTick_Handler>:

/**
* @brief This function handles System tick timer.
*/
void SysTick_Handler(void)
{
 8001598:	b508      	push	{r3, lr}
  /* USER CODE BEGIN SysTick_IRQn 0 */

  /* USER CODE END SysTick_IRQn 0 */
  HAL_IncTick();
 800159a:	f7fe ffe1 	bl	8000560 <HAL_IncTick>
  HAL_SYSTICK_IRQHandler();
  /* USER CODE BEGIN SysTick_IRQn 1 */

  /* USER CODE END SysTick_IRQn 1 */
}
 800159e:	e8bd 4008 	ldmia.w	sp!, {r3, lr}
  HAL_SYSTICK_IRQHandler();
 80015a2:	f7ff b864 	b.w	800066e <HAL_SYSTICK_IRQHandler>
	...

080015a8 <TIM2_IRQHandler>:
void TIM2_IRQHandler(void)
{
  /* USER CODE BEGIN TIM2_IRQn 0 */

  /* USER CODE END TIM2_IRQn 0 */
  HAL_TIM_IRQHandler(&htim2);
 80015a8:	4801      	ldr	r0, [pc, #4]	; (80015b0 <TIM2_IRQHandler+0x8>)
 80015aa:	f7ff bcbe 	b.w	8000f2a <HAL_TIM_IRQHandler>
 80015ae:	bf00      	nop
 80015b0:	2000002c 	.word	0x2000002c

080015b4 <SystemInit>:
  */
void SystemInit(void)
{
  /* FPU settings ------------------------------------------------------------*/
  #if (__FPU_PRESENT == 1) && (__FPU_USED == 1)
    SCB->CPACR |= ((3UL << 10*2)|(3UL << 11*2));  /* set CP10 and CP11 Full Access */
 80015b4:	490f      	ldr	r1, [pc, #60]	; (80015f4 <SystemInit+0x40>)
 80015b6:	f8d1 3088 	ldr.w	r3, [r1, #136]	; 0x88
 80015ba:	f443 0370 	orr.w	r3, r3, #15728640	; 0xf00000
 80015be:	f8c1 3088 	str.w	r3, [r1, #136]	; 0x88
  #endif
  /* Reset the RCC clock configuration to the default reset state ------------*/
  /* Set HSION bit */
  RCC->CR |= (uint32_t)0x00000001;
 80015c2:	4b0d      	ldr	r3, [pc, #52]	; (80015f8 <SystemInit+0x44>)
 80015c4:	681a      	ldr	r2, [r3, #0]

  /* Reset CFGR register */
  RCC->CFGR = 0x00000000;
 80015c6:	2000      	movs	r0, #0
  RCC->CR |= (uint32_t)0x00000001;
 80015c8:	f042 0201 	orr.w	r2, r2, #1
 80015cc:	601a      	str	r2, [r3, #0]
  RCC->CFGR = 0x00000000;
 80015ce:	6098      	str	r0, [r3, #8]

  /* Reset HSEON, CSSON and PLLON bits */
  RCC->CR &= (uint32_t)0xFEF6FFFF;
 80015d0:	681a      	ldr	r2, [r3, #0]
 80015d2:	f022 7284 	bic.w	r2, r2, #17301504	; 0x1080000
 80015d6:	f422 3280 	bic.w	r2, r2, #65536	; 0x10000
 80015da:	601a      	str	r2, [r3, #0]

  /* Reset PLLCFGR register */
  RCC->PLLCFGR = 0x24003010;
 80015dc:	4a07      	ldr	r2, [pc, #28]	; (80015fc <SystemInit+0x48>)
 80015de:	605a      	str	r2, [r3, #4]

  /* Reset HSEBYP bit */
  RCC->CR &= (uint32_t)0xFFFBFFFF;
 80015e0:	681a      	ldr	r2, [r3, #0]
 80015e2:	f422 2280 	bic.w	r2, r2, #262144	; 0x40000
 80015e6:	601a      	str	r2, [r3, #0]

  /* Disable all interrupts */
  RCC->CIR = 0x00000000;
 80015e8:	60d8      	str	r0, [r3, #12]

  /* Configure the Vector Table location add offset address ------------------*/
#ifdef VECT_TAB_SRAM
  SCB->VTOR = SRAM_BASE | VECT_TAB_OFFSET; /* Vector Table Relocation in Internal SRAM */
#else
  SCB->VTOR = FLASH_BASE | VECT_TAB_OFFSET; /* Vector Table Relocation in Internal FLASH */
 80015ea:	f04f 6300 	mov.w	r3, #134217728	; 0x8000000
 80015ee:	608b      	str	r3, [r1, #8]
 80015f0:	4770      	bx	lr
 80015f2:	bf00      	nop
 80015f4:	e000ed00 	.word	0xe000ed00
 80015f8:	40023800 	.word	0x40023800
 80015fc:	24003010 	.word	0x24003010

08001600 <Reset_Handler>:

    .section  .text.Reset_Handler
  .weak  Reset_Handler
  .type  Reset_Handler, %function
Reset_Handler:  
  ldr   sp, =_estack    		 /* set stack pointer */
 8001600:	f8df d034 	ldr.w	sp, [pc, #52]	; 8001638 <LoopFillZerobss+0x14>

/* Copy the data segment initializers from flash to SRAM */  
  movs  r1, #0
 8001604:	2100      	movs	r1, #0
  b  LoopCopyDataInit
 8001606:	e003      	b.n	8001610 <LoopCopyDataInit>

08001608 <CopyDataInit>:

CopyDataInit:
  ldr  r3, =_sidata
 8001608:	4b0c      	ldr	r3, [pc, #48]	; (800163c <LoopFillZerobss+0x18>)
  ldr  r3, [r3, r1]
 800160a:	585b      	ldr	r3, [r3, r1]
  str  r3, [r0, r1]
 800160c:	5043      	str	r3, [r0, r1]
  adds  r1, r1, #4
 800160e:	3104      	adds	r1, #4

08001610 <LoopCopyDataInit>:
    
LoopCopyDataInit:
  ldr  r0, =_sdata
 8001610:	480b      	ldr	r0, [pc, #44]	; (8001640 <LoopFillZerobss+0x1c>)
  ldr  r3, =_edata
 8001612:	4b0c      	ldr	r3, [pc, #48]	; (8001644 <LoopFillZerobss+0x20>)
  adds  r2, r0, r1
 8001614:	1842      	adds	r2, r0, r1
  cmp  r2, r3
 8001616:	429a      	cmp	r2, r3
  bcc  CopyDataInit
 8001618:	d3f6      	bcc.n	8001608 <CopyDataInit>
  ldr  r2, =_sbss
 800161a:	4a0b      	ldr	r2, [pc, #44]	; (8001648 <LoopFillZerobss+0x24>)
  b  LoopFillZerobss
 800161c:	e002      	b.n	8001624 <LoopFillZerobss>

0800161e <FillZerobss>:
/* Zero fill the bss segment. */  
FillZerobss:
  movs  r3, #0
 800161e:	2300      	movs	r3, #0
  str  r3, [r2], #4
 8001620:	f842 3b04 	str.w	r3, [r2], #4

08001624 <LoopFillZerobss>:
    
LoopFillZerobss:
  ldr  r3, = _ebss
 8001624:	4b09      	ldr	r3, [pc, #36]	; (800164c <LoopFillZerobss+0x28>)
  cmp  r2, r3
 8001626:	429a      	cmp	r2, r3
  bcc  FillZerobss
 8001628:	d3f9      	bcc.n	800161e <FillZerobss>

/* Call the clock system intitialization function.*/
  bl  SystemInit   
 800162a:	f7ff ffc3 	bl	80015b4 <SystemInit>
/* Call static constructors */
    bl __libc_init_array
 800162e:	f000 f811 	bl	8001654 <__libc_init_array>
/* Call the application's entry point.*/
  bl  main
 8001632:	f7ff fec7 	bl	80013c4 <main>
  bx  lr    
 8001636:	4770      	bx	lr
  ldr   sp, =_estack    		 /* set stack pointer */
 8001638:	20018000 	.word	0x20018000
  ldr  r3, =_sidata
 800163c:	080016d4 	.word	0x080016d4
  ldr  r0, =_sdata
 8001640:	20000000 	.word	0x20000000
  ldr  r3, =_edata
 8001644:	2000000c 	.word	0x2000000c
  ldr  r2, =_sbss
 8001648:	2000000c 	.word	0x2000000c
  ldr  r3, = _ebss
 800164c:	20000068 	.word	0x20000068

08001650 <ADC_IRQHandler>:
 * @retval None       
*/
    .section  .text.Default_Handler,"ax",%progbits
Default_Handler:
Infinite_Loop:
  b  Infinite_Loop
 8001650:	e7fe      	b.n	8001650 <ADC_IRQHandler>
	...

08001654 <__libc_init_array>:
 8001654:	b570      	push	{r4, r5, r6, lr}
 8001656:	4e0d      	ldr	r6, [pc, #52]	; (800168c <__libc_init_array+0x38>)
 8001658:	4c0d      	ldr	r4, [pc, #52]	; (8001690 <__libc_init_array+0x3c>)
 800165a:	1ba4      	subs	r4, r4, r6
 800165c:	10a4      	asrs	r4, r4, #2
 800165e:	2500      	movs	r5, #0
 8001660:	42a5      	cmp	r5, r4
 8001662:	d109      	bne.n	8001678 <__libc_init_array+0x24>
 8001664:	4e0b      	ldr	r6, [pc, #44]	; (8001694 <__libc_init_array+0x40>)
 8001666:	4c0c      	ldr	r4, [pc, #48]	; (8001698 <__libc_init_array+0x44>)
 8001668:	f000 f818 	bl	800169c <_init>
 800166c:	1ba4      	subs	r4, r4, r6
 800166e:	10a4      	asrs	r4, r4, #2
 8001670:	2500      	movs	r5, #0
 8001672:	42a5      	cmp	r5, r4
 8001674:	d105      	bne.n	8001682 <__libc_init_array+0x2e>
 8001676:	bd70      	pop	{r4, r5, r6, pc}
 8001678:	f856 3025 	ldr.w	r3, [r6, r5, lsl #2]
 800167c:	4798      	blx	r3
 800167e:	3501      	adds	r5, #1
 8001680:	e7ee      	b.n	8001660 <__libc_init_array+0xc>
 8001682:	f856 3025 	ldr.w	r3, [r6, r5, lsl #2]
 8001686:	4798      	blx	r3
 8001688:	3501      	adds	r5, #1
 800168a:	e7f2      	b.n	8001672 <__libc_init_array+0x1e>
 800168c:	080016cc 	.word	0x080016cc
 8001690:	080016cc 	.word	0x080016cc
 8001694:	080016cc 	.word	0x080016cc
 8001698:	080016d0 	.word	0x080016d0

0800169c <_init>:
 800169c:	b5f8      	push	{r3, r4, r5, r6, r7, lr}
 800169e:	bf00      	nop
 80016a0:	bcf8      	pop	{r3, r4, r5, r6, r7}
 80016a2:	bc08      	pop	{r3}
 80016a4:	469e      	mov	lr, r3
 80016a6:	4770      	bx	lr

080016a8 <_fini>:
 80016a8:	b5f8      	push	{r3, r4, r5, r6, r7, lr}
 80016aa:	bf00      	nop
 80016ac:	bcf8      	pop	{r3, r4, r5, r6, r7}
 80016ae:	bc08      	pop	{r3}
 80016b0:	469e      	mov	lr, r3
 80016b2:	4770      	bx	lr
