:020000040800F2
:100000000080012001160008511600085116000852
:100010005116000851160008511600080000000093
:10002000000000000000000000000000951500081E
:1000300051160008000000009715000899150008E7
:1000400051160008511600085116000851160008F4
:1000500051160008511600085116000851160008E4
:1000600051160008511600085116000851160008D4
:1000700051160008511600085116000851160008C4
:100080005116000851160008511600080000000023
:1000900000000000000000000000000051160008F1
:1000A0005116000851160008511600085116000894
:1000B000A91500085116000851160008511600082D
:1000C0005116000851160008511600085116000874
:1000D00051160008511600085116000800000000D3
:1000E00051160008511600085116000800000000C3
:1000F0000000000000000000000000005116000891
:1001000000000000511600085116000851160008A2
:1001100000000000000000000000000000000000DF
:100120005116000851160008511600085116000813
:100130005116000800000000000000000000000050
:100140000000000000000000000000005116000840
:1001500051160008511600085116000851160008E3
:1001600051160008511600080000000000000000B1
:10017000000000000000000000000000000000007F
:100180000000000051160008000000000000000000
:0401900051160008FC
:1001940010B5054C237833B9044B13B10448AFF3BD
:1001A40000800123237010BD0C000020000000001B
:1001B4009C16000808B5034B1BB103490348AFF371
:1001C400008008BD00000000100000209C160008FC
:1001D40053B94AB9002908BF00281CBF4FF0FF31AA
:1001E4004FF0FF3000F07AB9ADF1080C6DE904CEA0
:1001F40000F006F8DDF804E0DDE9022304B07047FE
:100204002DE9F0478C460D460446089E002B51D13B
:100214008A4217466DD9B2FA82FEBEF1000F0BD0A6
:10022400CEF1200C01FA0EF520FA0CFC02FA0EF7BE
:100234004CEA050C00FA0EF44FEA174A250CBCFBF5
:10024400FAF81FFA87F90AFB18CC45EA0C4508FBB3
:1002540009F3AB420AD9ED1908F1FF3280F023818A
:10026400AB4240F22081A8F102083D44ED1AA4B249
:10027400B5FBFAF00AFB105544EA054400FB09F902
:10028400A14509D9E41900F1FF3380F00A81A145A1
:1002940040F2078102383C44A4EB090440EA0840D8
:1002A4000021002E61D024FA0EF400233460736020
:1002B400BDE8F0878B4207D9002E54D0002186E890
:1002C40021000846BDE8F087B3FA83F1002940F025
:1002D4008E80AB4202D3824200F2FA80841A65EB2C
:1002E40003050120AC46002E3FD086E81010BDE87F
:1002F400F08712B90127B7FBF2F7B7FA87FEBEF110
:10030400000F34D1EB1B3A0C1FFA87FC0121B3FB1D
:10031400F2F8250C02FB183345EA03450CFB08F3FD
:10032400AB4207D9ED1908F1FF3002D2AB4200F21B
:10033400D1808046ED1AA3B2B5FBF2F002FB105552
:1003440043EA05440CFB00FCA44507D9E41900F179
:10035400FF3302D2A44500F2B8801846A4EB0C0483
:1003640040EA08409DE731463046BDE8F087CEF1CB
:10037400200405FA0EF307FA0EF720FA04F83A0CF3
:1003840025FA04F448EA0308B4FBF2F14FEA1845ED
:1003940002FB11441FFA87FC45EA044501FB0CF3F8
:1003A400AB4200FA0EF409D9ED1901F1FF3080F0E7
:1003B4008A80AB4240F2878002393D44EB1A1FFA2F
:1003C40088F5B3FBF2F002FB103345EA034500FB6A
:1003D4000CF3AB4207D9ED1900F1FF386FD2AB42F1
:1003E4006DD902383D44EB1A40EA01418FE7C1F16F
:1003F400200722FA07F88B4005FA01F448EA0303C0
:1004040020FA07FE4FEA134CFD404EEA040EB5FBFA
:10041400FCF94FEA1E440CFB19551FFA83F844EA11
:10042400054509FB08F4AC4202FA01F200FA01FAAC
:1004340008D9ED1809F1FF3043D2AC4241D9A9F1F2
:1004440002091D442D1B1FFA8EFEB5FBFCF00CFBAC
:1004540010554EEA054400FB08F8A04507D9E418F6
:1004640000F1FF3529D2A04527D902381C4440EABF
:100474000940A4EB0804A0FB02894C45C6464D463E
:1004840015D312D056B1BAEB0E0364EB050404FA8B
:1004940007F7CB401F43CC40376074600021BDE8B0
:1004A400F0871846F8E69046E0E6C245EAD2B8EB93
:1004B400020E69EB03050138E4E72846D7E7404616
:1004C40091E78146BEE7014678E702383C4445E7B8
:1004D400084608E7A8F102083D442BE7704700BF2F
:1004E40038B50E4A0E4B054618784FF47A73B3FBB1
:1004F400F0F31068B0FBF3F000F094F8044658B938
:100504000F2D09D8024629464FF0FF3000F04AF873
:10051400044B20461D6038BD012038BD0800002072
:10052400000000200400002008B50B4B1A6842F4B8
:1005340000721A601A6842F480621A601A6842F4FF
:1005440080721A60032000F01BF80020FFF7C8FF38
:1005540000F0A2FF002008BD003C0240034A044B07
:1005640011681B780B441360704700BF28000020FB
:1005740000000020014B1868704700BF28000020CD
:10058400074AD36823F4E0631B041B0C43F0BF63E6
:10059400000243F4003300F4E0600343D360704787
:1005A40000ED00E0174B30B5DC68C4F30224C4F15D
:1005B4000703251D042B28BF0423062D4FF0010536
:1005C40005FA03F303F1FF338CBF033C0024194005
:1005D400A14005FA04F4013C2240002842EA010249
:1005E4004FEA0212AFBF00F1604000F00F00064B6B
:1005F400D2B2A5BF00F56140D2B21A5480F80023EC
:1006040030BD00BF00ED00E014ED00E0420901231D
:1006140000F01F0003FA00F0014B43F8220070477A
:1006240000E100E00138B0F1807F0AD2064B074AAE
:100634005860F02182F823100020072298601A6085
:1006440070470120704700BF10E000E000ED00E0BB
:10065400044B1A6804280CBF42F0040222F004027E
:100664001A60704710E000E0704708B5FFF7FCFF20
:1006740008BD00002DE9F04F85B00B68DFF89C81C0
:10068400644A01934FF001090023019C09FA03F71E
:1006940007EA0406B74240F0AD804C6824F0100A23
:1006A400BAF1020F16D14FEAD30C00EB8C0C03F015
:1006B400070BDCF820504FEA8B0B4FF00F0E0EFAAD
:1006C4000BFE25EA0E0E0D6905FA0BF545EA0E053B
:1006D400CCF820504FEA430C0325D0F800B005FABB
:1006E4000CF5ED4304F0030E0BEA050B0EFA0CFEB9
:1006F4000AF1FF3A4EEA0B0EBAF1010F0095C0F869
:1007040000E015D8D0F808E005EA0E0ECD6805FA29
:100714000CFA4AEA0E0EC0F808E0D0F804E02EEA1B
:100724000707C4F3001E0EFA03FE4EEA07074760EC
:10073400C768009D3D408F6807FA0CF73D43C560CC
:10074400E50057D54FF0000BCDF80CB0D8F8447045
:10075400314D47F48047C8F84470D8F8447007F422
:1007640080470397039F23F0030707F1804707F5AA
:100774009C3703F0030CD7F808A04FEA8C0C4FF019
:100784000F0E0EFA0CFEA8422AEA0E0E39D005F519
:100794008065A84237D005F58065A84235D005F5B7
:1007A4008065A84233D005F58065A84214BF0725AB
:1007B400042505FA0CF545EA0E05BD601568F743F6
:1007C40014F4803F0CBF3D4035431560556814F464
:1007D400003F0CBF3D4035435560956814F4801FBD
:1007E4000CBF3D4035439560D568A40254BF3D40DD
:1007F4003543D5600133102B7FF447AF05B0BDE816
:10080400F08F5D46D5E70125D3E70225D1E703251F
:10081400CFE700BF003C0140000002400038024026
:100824002DE9F341044618B9012002B0BDE8F08176
:100834000368DD0710D42368980758D423681A077F
:1008440000F19A8023685B0700F1B880A269002A4E
:1008540040F019810020E8E7A64B9A6802F00C02E8
:10086400042A07D09A6802F00C02082A0AD15B68AD
:10087400590207D59F4B1B689A03DCD56368002B8C
:10088400D9D1D1E763689B4DB3F5803F11D12B6873
:1008940043F480332B60FFF76DFE964D06462B68BC
:1008A4009B03C8D4FFF766FE801B6428F7D9032096
:1008B400BBE7B3F5A02F04D12B6843F480232B604E
:1008C400E5E72A6822F480322A602A6822F480222A
:1008D4002A60002BDFD1FFF74DFE06462B689F03ED
:1008E400A9D5FFF747FE801B6428F7D9DFE7814BC2
:1008F4009A6812F00C0F07D09A6802F00C02082ACA
:1009040011D15B685E020ED47A4B1A68950702D542
:10091400E268012A88D11A68216922F0F80242EAC1
:10092400C1021A608AE7E268734BB2B101221A600D
:10093400FFF720FE6F4D06462B68980707D52B68F6
:10094400226923F0F80343EAC2032B6076E7FFF73A
:1009540011FE801B0228EFD9A9E71A60FFF70AFEEF
:10096400644D06462B6899077FF568AFFFF702FED2
:10097400801B0228F6D99AE76269604B7AB101229A
:100984001A60FFF7F7FD5B4D06466B6F9F073FF557
:1009940059AFFFF7EFFD801B0228F6D987E71A60ED
:1009A400FFF7E8FD534D06466B6F98077FF54AAF96
:1009B400FFF7E0FD801B0228F6D978E74D4B1A6C4F
:1009C40012F0805228D101921A6C42F080521A64BB
:1009D4001B6C03F080530193019B0126484D2B6847
:1009E400D9051BD5A368434D012B27D12B6F43F0A9
:1009F40001032B67FFF7BEFD3E4D074641F28838E1
:100A04002B6F9B0739D5002E3FF420AF394A136C66
:100A140023F08053136419E70026DFE72B6843F4BF
:100A240080732B60FFF7A6FD07462B68DA05D9D43F
:100A3400FFF7A0FDC01B0228F7D938E7052B04D126
:100A44002B6F43F004032B67D0E72A6F22F00102D7
:100A54002A672A6F22F004022A67002BCAD1FFF703
:100A640089FD41F2883807462B6F9807CBD5FFF7ED
:100A740081FDC01B4045F7D919E7FFF77BFDC01B7B
:100A84004045BDD913E71B4DAB6803F00C03082B9D
:100A94003FF4CAAE1B4E0023022A336034D1FFF761
:100AA40069FD07462B6899011ED4226AE369134342
:100AB400626A43EA8213E26A43EA0263A26A0D4C61
:100AC4005208013A43EA02436B6001233360FFF7A3
:100AD40051FD054623689A013FF5BCAEFFF74AFD78
:100AE400401B0228F6D9E2E6FFF744FDC01B0228AA
:100AF400D8D9DCE60038024000004742800E474265
:100B04000070004060004742FFF734FD04462B6844
:100B14009B017FF59FAEFFF72DFD001B0228F6D940
:100B2400C5E600BF134908B58B6803F00C03042B1A
:100B340003D0082B03D0104808BD104808BD4A68EC
:100B44004B68496813F4800314BF0C480A48C1F386
:100B5400881118BF002302F03F02A1FB0001FFF738
:100B640037FB044B5B68C3F3014301335B00B0FB09
:100B7400F3F008BD003802400024F40000127A00AB
:100B84002DE9F0410D46044610B90120BDE8F0817D
:100B9400444B1A6802F00F028A4228D321688F0757
:100BA4002DD4C80740D43F4B1A6802F00F02954277
:100BB40066D3226851076CD4130707D53A4A2169D2
:100BC400936823F4604343EAC1039360FFF7AAFFE9
:100BD400354B364A9B68C3F30313D35CD840344B7C
:100BE40018600020FFF77CFC0020BDE8F081CAB249
:100BF4001A701B6803F00F039942C6D1CEE72A4B43
:100C040011F0040F1EBF9A6842F4E0529A600E0776
:100C140042BF9A6842F460429A609A68A06822F0DF
:100C2400F00202439A60BCE762681F4B012A1DD19F
:100C34001B6813F4003FA8D01B4EB36823F00303D2
:100C44001343B360FFF796FC41F288380746B36854
:100C5400626803F00C03B3EB820FA4D0FFF78AFCA5
:100C6400C01B4045F3D90320BDE8F081911E012942
:100C74001B6802D813F0007FDDE713F0020FDAE7F8
:100C8400EAB21A701B6803F00F039D427FF47DAF34
:100C94008FE70549E0688B6823F4E05303438B60D6
:100CA4008AE700BF003C024000380240B416000846
:100CB40008000020014B1868704700BF080000209E
:100CC400036A23F001030362036A70B5446882690E
:100CD4000D6822F073022A438D6823F002032B432C
:100CE4000A4DA8420BD1CD688E6923F008032B432B
:100CF4004D6924F44074354323F004032C434460C9
:100D040082614A684263036270BD00BF0000014013
:100D1400036A23F480730362036A70B54468C2698A
:100D24000D6822F073022A438D6823F4007343EAAA
:100D340005230B4DA8420DD1CD688E6923F40063C1
:100D440043EA05234D6924F44054354323F4806376
:100D540044EA05144460C2614A68C263036270BD18
:100D640000000140036A23F480530362036A30B530
:100D74004468C2690D6822F4E64242EA05228D689D
:100D840023F4005343EA0533064DA84202BF4D69DC
:100D940024F4804444EA85144460C2614A680264CD
:100DA400036230BD00000140704790F83830012BD9
:100DB40070B54FF002031CD080F83930036801226B
:100DC40080F838209A6822F47F4222F077029A60F1
:100DD4000A68402A79D019D8102A00F093800AD8DA
:100DE400002A00F08980012380F83930002380F83C
:100DF4003830184670BD202A00F08A80302AF2D19B
:100E04009A6822F0700242F0370236E0702A36D037
:100E14001BD8502A42D0602AE5D11C6A4D68CE689E
:100E240024F010041C6299691A6A21F4704122F0BA
:100E3400A00242EA051241EA063199611A629A68EF
:100E440022F0700242F0670217E0B2F5805F11D021
:100E5400B2F5005FC7D18A684D689C68C9682A43A7
:100E640024F47F4442EA012222439A609A6842F4BD
:100E7400804202E09A6822F007029A60B3E78A6827
:100E84004D689C68C9682A4324F47F4442EA0122DD
:100E940022439A609A6842F07702EEE74C68CE6883
:100EA400196A1D6A25F001051D629A6921F00A017B
:100EB40022F0F00242EA061221439A6119629A680A
:100EC40022F0700242F05702D7E74C68CE68196AE4
:100ED4001D6A25F001051D629A6921F00A0122F0BC
:100EE400F00242EA061221439A6119629A6822F0DA
:100EF400700242F04702C0E79A6822F0700242F0A2
:100F04000702BAE79A6822F0700242F01702B4E7C7
:100F14009A6822F0700242F02702AEE770477047E9
:100F240070477047704703681A69910710B5044603
:100F34000ED5DA6892070BD56FF002021A619B692D
:100F440001229B07027677D0FFF7EAFF002323767E
:100F540023681A69500710D5DA6851070DD56FF068
:100F640004021A619B69022213F4407F2276204610
:100F740068D0FFF7D5FF0023237623681A69120788
:100F84000FD5DA6810070CD56FF008021A61DB6917
:100F940004229907227620465AD0FFF7C1FF002386
:100FA400237623681A69D20610D5DA68D0060DD5DF
:100FB4006FF010021A61DB69082213F4407F227675
:100FC40020464BD0FFF7ACFF0023237623681A6931
:100FD400D10708D5DA68D20705D56FF001021A6186
:100FE4002046FFF79BFF23681A69100608D5DA68C4
:100FF400110605D56FF080021A61204600F089F9C8
:1010040023681A69520608D5DA68500605D56FF0C8
:1010140040021A612046FFF785FF23681A6991068A
:1010240022D5DA6892061FD56FF0200220461A6195
:10103400BDE8104000F06CB9FFF771FF2046FFF7E0
:1010440070FF83E7FFF76BFF2046FFF76AFF92E725
:10105400FFF765FF2046FFF764FFA0E7FFF75FFF98
:101064002046FFF75EFFAFE710BD0000224A036889
:1010740090420ED0B0F1804F0BD0A2F57C4290424A
:1010840007D002F58062904203D002F5806290425C
:1010940019D14A6823F070031343174A904204D1CC
:1010A400CA6823F44073134318E0B0F1804FF7D0BB
:1010B400124A9042F4D002F580629042F0D002F5D8
:1010C40080629042ECD00E4A9042E9D002F58062F0
:1010D4009042E5D002F580629042E1D003608B68D3
:1010E400C3620B688362044B984204BF0B690363B9
:1010F40001234361704700BF000001400004004029
:101104000040014010B50446A0B190F8393003F016
:10111400FF021BB980F8382000F006FA022384F895
:1011240039302068211DFFF7A1FF012384F83930ED
:10113400002010BD012010BD10B50446A0B190F8E8
:10114400393003F0FF021BB980F83820FFF72CFE7A
:10115400022384F839302068211DFFF787FF01231B
:1011640084F83930002010BD012010BD036A23F03B
:1011740010030362036A70B5446882690D6822F43F
:10118400E64242EA05228D6823F0200343EA051370
:101194000B4DA8420DD1CD688E6923F0800343EA3C
:1011A40005134D6924F44064354323F0400344EAB5
:1011B4008504446082614A688263036270BD00BF33
:1011C4000000014038B590F83830012B04464FF048
:1011D400020025D0012384F8383084F839000C2A21
:1011E40018D8DFE802F0071717171E1717172F175D
:1011F400171740002068FFF763FD236809699A699F
:1012040042F008029A619A6922F004029A619A698A
:101214000A439A610123002084F8393084F83800A5
:1012240038BD2068FFF7A2FF236809699A6942F470
:1012340000629A619A6922F480629A619A6942EA28
:101244000122E6E72068FFF763FD23680969DA698C
:1012540042F00802DA61DA6922F00402DA61DA693A
:101264000A43DA61D6E72068FFF77CFD2368096941
:10127400DA6942F40062DA61DA6922F48062DA61DE
:10128400DA6942EA0122ECE7036A10B501248C40D2
:1012940023EA04030362036A8A401A43026210BD0C
:1012A40010B5044601220068FFF7EEFF2368064AE2
:1012B400934202BF5A6C42F400425A641A6842F0E4
:1012C40001021A60002010BD0000014090F838307F
:1012D400012B10B54FF0020318D080F839300368A1
:1012E4000C685A68496822F070025A605A682243AE
:1012F4005A609A6822F080029A609A680A439A6057
:10130400012380F83930002380F83830184610BDA6
:101314007047704730B595B00022274B0192196C85
:1013240041F0805119641B6C244903F080530193EC
:10133400019B02920B6823F4404343F400430B6087
:101344000B680F9203F440430293029B01230B9317
:1013540010230C9310934FF4A873022411930425C3
:10136400072308A808940E9412951393FFF758FACC
:1013740000B1FEE70F23039305904FF480530790C9
:10138400214603A804940693FFF7FAFB044600B130
:10139400FEE7FFF78FFC4FF47A73B0FBF3F0FFF72F
:1013A40041F92846FFF754F9224621464FF0FF3011
:1013B400FFF7F8F815B030BD003802400070004067
:1013C40070B590B0FFF7B0F8FFF7A4FF2E4B2F4C89
:1013D40000220192196B41F080011963196B01F02D
:1013E4008001019101990292196B41F00101196385
:1013F4001B6B626003F001030293029B244BA26007
:101404004FF0804620462660E3602261FFF77AFEB3
:1014140000B1FEE710A94FF4805341F82C3D20465B
:10142400FFF7C3FC00B1FEE72046FFF785FE00B1DD
:10143400FEE70390049003A92046FFF747FF024606
:1014440000B1FEE760230A900B900D9009A9204695
:101454000993FFF7B7FE054600B1FEE7204600F00A
:101464007FF829462046FFF71BFF0A4B75630135B9
:101474009D42FBD1064B4FF080414B636422013AFD
:10148400FDD1013BF9E700BF003802402C000020E9
:10149400404B4C000165CD1D13B5224B0024009434
:1014A4005A6C42F480425A645A6C02F480420092AC
:1014B400009A01941A6C42F080521A641B6C03F077
:1014C400805301930720019BFFF75AF822462146D7
:1014D4006FF00B00FFF766F8224621466FF00A0012
:1014E400FFF760F8224621466FF00900FFF75AF82B
:1014F400224621466FF00400FFF754F822462146A5
:101504006FF00300FFF74EF8224621466FF001000A
:10151400FFF748F8224621464FF0FF30FFF742F824
:1015240002B010BD003802400368B3F1804F07B524
:1015340013D1002203F50E330192196C41F001011D
:1015440019641B6C03F0010301931C201146019BD9
:10155400FFF728F81C20FFF759F803B05DF804FBE7
:101564007FB50368B3F1804F0CD12023019302238C
:1015740002930022049301A90123044803920593D2
:10158400FFF778F807B05DF804FB00BF00000240E5
:101594007047704708B5FEF7E1FFBDE80840FFF764
:1015A40064B800000148FFF7BEBC00BF2C00002057
:1015B4000F49D1F8883043F47003C1F888300D4BDB
:1015C4001A68002042F001021A6098601A6822F03A
:1015D400847222F480321A60074A5A601A6822F42C
:1015E40080221A60D8604FF000638B60704700BFA0
:1015F40000ED00E00038024010300024DFF834D061
:10160400002103E00C4B5B58435004310B480C4B56
:1016140042189A42F6D30B4A02E0002342F8043BF4
:10162400094B9A42F9D3FFF7C3FF00F011F8FFF713
:10163400C7FE704700800120D41600080000002077
:101644000C0000200C00002068000020FEE70000D1
:1016540070B50D4E0D4CA41BA4100025A54209D154
:101664000B4E0C4C00F018F8A41BA4100025A54246
:1016740005D170BD56F8253098470135EEE756F888
:10168400253098470135F2E7CC160008CC1600083F
:10169400CC160008D0160008F8B500BFF8BC08BC8A
:1016A4009E467047F8B500BFF8BC08BC9E4670471C
:1016B40000000000000000000102030406070809FE
:0816C40040EBFF7F0100000074
:0416CC00B901000858
:0416D0009501000878
:0C16D40001000000100000000024F400E1
:0400000508001601D8
:00000001FF
